:020000040800F2
:10000000101600206D0E0008D90E0008D90E000849
:10001000D90E0008D90E0008D90E00080000000013
:10002000000000000000000000000000D90E0008E1
:10003000D90E000800000000D90E0008552700085E
:10004000D90E0008D90E0008D90E0008D90E0008F4
:10005000D90E0008D90E0008D90E0008D90E0008E4
:10006000D90E0008D90E0008D90E0008D90E0008D4
:10007000D90E0008D90E0008D90E0008D90E0008C4
:10008000D90E0008D90E0008D9210008D90E0008A1
:10009000D90E0008D90E0008D90E0008D90E0008A4
:1000A000D90E0008D90E0008D90E0008D90E000894
:1000B0005D4A0008694A0008754A0008D90E000820
:1000C000D90E0008D90E0008D90E0008D90E000874
:1000D000D90E0008D90E0008D90E0008D90E000864
:1000E000D90E0008D90E0008D90E0008D90E000854
:1000F000D90E0008D90E0008D90E0008D90E000844
:10010000D90E0008D90E0008D90E0008D90E000833
:10011000D90E0008D90E0008D90E0008D90E000823
:10012000D90E0008D90E0008D90E0008D90E000813
:10013000D90E0008D90E0008D90E0008D90E000803
:10014000D90E0008D90E0008D90E0008D90E0008F3
:10015000D90E0008D90E0008D90E0008851800082D
:10016000D90E0008D90E0008D90E0008D90E0008D3
:10017000D90E0008D90E0008D90E0008D90E0008C3
:10018000D90E0008D90E000880B500AF40F2E86330
:10019000C2F200031B78012B17D0022B3BD0002B9F
:1001A00057D14FF0040044F620614FF0090203F0EC
:1001B00053FF4FF0040003F07BFD40F2E863C2F20E
:1001C00000034FF002021A7046E04FF0040003F003
:1001D00059FE4FF0040004F0D3FA40F20103C2F2DA
:1001E00000031B781A4646F26033C0F600039B5C9E
:1001F0004FF0040044F620611A4603F02DFF4FF043
:10020000040003F055FD40F2E863C2F200034FF032
:1002100002021A7020E040F20003C2F200031A78D2
:1002200040F20103C2F200031B789A4213D040F25D
:100230000003C2F200031A7840F20103C2F2000385
:100240001A7040F2E863C2F200034FF001021A7024
:1002500001E000BF00E000BF80BD00BF80B483B0FC
:1002600000AF0346FB7140F20003C2F200031B78AB
:10027000FA799A420DD040F20103C2F200031B78D2
:10028000FA799A4205D040F20003C2F20003FA79EB
:100290001A7007F10C07BD4680BC7047B0B582B03C
:1002A00000AF0B463A600246FA71BB71FB79002B36
:1002B00000F0B280012B40F0AD8040F20103C2F2A9
:1002C00000031B78042B00F2A38001A252F823F054
:1002D000E5020008210300085D03000899030008F7
:1002E000D503000838684F494FF0090205F050FE69
:1002F0003C68204605F01CFE0346E21846F26833CF
:10030000C0F6000314461D460FCD20606160A26058
:10031000E360386844494FF0090205F039FE78E09F
:10032000386842494FF0090205F032FE3C68204629
:1003300005F0FEFD0346E21846F27833C0F60003EE
:1003400014461D460FCD20606160A260E3603868EE
:1003500035494FF0090205F01BFE5AE03868344970
:100360004FF0090205F014FE3C68204605F0E0FD60
:100370000346E21846F28833C0F60003144607CB62
:1003800020606160A2601B88A381386826494FF015
:10039000090205F0FDFD3CE0386824494FF00902F0
:1003A00005F0F6FD3C68204605F0C2FD0346E21864
:1003B00046F29833C0F6000314461D460FCD206068
:1003C0006160A260E360386817494FF0090205F0E8
:1003D000DFFD1EE0386813494FF0090205F0D8FD33
:1003E0003C68204605F0A4FD0346E21846F2A83317
:1003F000C0F6000314461D460FCD20606160A26068
:10040000E360386808494FF0090205F0C1FD00E0DB
:1004100000BF02E000BF00E000BF07F10807BD46D3
:10042000B0BD00BF426300084B63000827630008AB
:100430001E63000880B582B000AF4FF00003FB716F
:100440002BE0FB7940F20402C2F200024FEA4303C0
:10045000D3185B78184603F015FB0346BB71BB79D4
:10046000002B0BD0012B13D1FA7940F20403C2F216
:1004700000034FF0010103F812100AE0FA7940F28C
:100480000403C2F200034FF0000103F8121000E071
:1004900000BFFB7903F10103FB71FB79002BD0D086
:1004A00007F10807BD4680BD80B483B000AF0346A6
:1004B000FB71FB79012B02D94FF0020306E0FA79B8
:1004C00040F20403C2F2000313F81230184607F199
:1004D0000C07BD4680BC704790B583B000AF0B469B
:1004E0003A600246FA71BB71FB79002B02D0012BF6
:1004F00035D076E0BB7940F20402C2F200024FEA46
:100500004303D3185B78194646F2B832C0F60002AE
:100510000B464FEAC3035B1A4FEA8303D3181B68E9
:100520001846396801F0E4FABB7940F20402C2F2DD
:1005300000024FEA4303D3185B78194646F2B832FB
:10054000C0F600020B464FEAC3035B1A4FEA83036F
:10055000D3189B881846396801F06AFB42E0BB79E2
:100560001846FFF7A1FF0346012B1CD138681F492D
:100570004FF0090205F00CFD3C68204605F0D8FC60
:100580000346E31846F2D042C0F600021068186035
:100590009188927999809A71386815494FF00902CB
:1005A00005F0F6FC1EE0386812494FF0090205F02C
:1005B000EFFC3C68204605F0BBFC0346E21846F21F
:1005C000D843C0F6000303CB1060516019889B78B4
:1005D00011819372386806494FF0090205F0D8FC82
:1005E00000E000BF07F10C07BD4690BD8E64000817
:1005F000BB6400089764000880B58AB000AF7860DB
:1006000039604FF000037B624FF000033B624FF014
:100610000003FB614FF00003BB617B681B8A9BB248
:100620007B627B6A23F440537B623B68DB887A6A97
:1006300013437B627B6A9AB27B681A827B689B89D0
:100640009BB27B627B6A23F4B05323F00C037B6282
:100650003B689A883B681B8913439AB23B685B8965
:1006600013439BB27A6A13437B627B6A9AB27B68BC
:100670009A817B689B8A9BB27B627B6A23F440737E
:100680007B623B689B897A6A13437B627B6A9AB27E
:100690007B689A8207F10803184600F0F5FC7A6837
:1006A0004FF48053C4F201039A4206D07A684FF4A3
:1006B000A053C4F201039A4202D17B693B6201E07C
:1006C0003B693B627B689B899BB29BB21BB2002B50
:1006D0000FDA3A6A13464FEA83039B184FEA830204
:1006E0009A183B681B684FEA4303B2FBF3F3FB61C4
:1006F0000EE03A6A13464FEA83039B184FEA8302DF
:100700009A183B681B684FEA8303B2FBF3F3FB6163
:10071000FA6948F21F53C5F2EB13A3FB02134FEA29
:1007200053134FEA03137B627B6A4FEA13134FF0B4
:10073000640202FB03F3FA69D31ABB617B689B89ED
:100740009BB29BB21BB2002B12DABB694FEAC30308
:1007500003F1320248F21F53C5F2EB13A3FB02135D
:100760004FEA531303F007037A6A13437B6211E0E5
:10077000BB694FEA031303F1320248F21F53C5F27B
:10078000EB13A3FB02134FEA531303F00F037A6A30
:1007900013437B627B6A9AB27B681A8107F1280750
:1007A000BD4680BD80B485B000AF786039604FF041
:1007B0000003FB607B681B8A9BB2FB60FB6823F431
:1007C0007063FB603B681A883B685B8813439AB28E
:1007D0003B689B8813439AB23B68DB8813439BB208
:1007E000FA681343FB60FB689AB27B681A8207F1D0
:1007F0001407BD4680BC704780B483B000AF7860FA
:100800000B46FB70FB78002B08D07B689B899BB262
:1008100043F400539AB27B689A8107E07B689B8916
:100820009BB223F400539AB27B689A8107F10C07BC
:10083000BD4680BC704700BF80B483B000AF786015
:100840000B467B807B884FEAC3534FEAD3539AB25F
:100850007B689A8007F10C07BD4680BC704700BFDB
:1008600080B483B000AF78607B689B889BB24FEA0E
:10087000C3534FEAD3539BB2184607F10C07BD464A
:1008800080BC704780B485B000AF78600B467B8039
:100890004FF00003FB737B681B889AB27B88134080
:1008A0009BB2002B03D04FF00103FB7302E04FF02B
:1008B0000003FB73FB7B184607F11407BD4680BCA1
:1008C000704700BF80B500AF40F2F263C2F2000390
:1008D0001B78002B02D0012B0AD013E000F048F85F
:1008E00003461A4640F2F263C2F200031A700AE0AD
:1008F00000F02AF903461A4640F2F263C2F20003FE
:100900001A7000E000BF80BD80B500AF40F2F06318
:10091000C2F200031B8803F101039AB240F2F063B4
:10092000C2F200031A8040F2F063C2F200031B8897
:10093000B3F5FA6F1AD14FF0120002F03BF80246FD
:1009400040F2EC63C2F200031A604FF0120001F0B3
:10095000E9FF4FF012004FF47A7101F06FFF40F29F
:10096000F063C2F200034FF000021A8080BD00BFA6
:1009700090B5ABB000AF4FF00003C7F8A43046F21B
:100980001863C0F6000307F148011A464FF05A03F6
:10099000084611461A4605F093F94FF00003C7F8D0
:1009A000A43024E046F2FC53C0F60003D7F8A4209C
:1009B00053F8223046F20860C0F600004FF0030101
:1009C0001A4602F021FD07F14801D7F8A42013468A
:1009D0004FEA03139B1A4FEA4303CB18184602F061
:1009E00013FDD7F8A43003F10103C7F8A430D7F8FA
:1009F000A430022BD6D946F20860C0F600004FF0B2
:100A000004014FF0140202F0FFFC4FF00003C7F89E
:100A1000A4300BE046F21460C0F6000002F0F4FCD3
:100A2000D7F8A43003F10103C7F8A430D7F8A430F5
:100A30002C2BEFD94FF00003C7F8A43079E040F237
:100A40000803C2F20003D7F8A4204FF05C0101FBB9
:100A500002F29B1803F158031B78012B63D107F1B5
:100A6000040318464FF000014FF0110205F0CAF9D7
:100A7000D7F8A43003F105031A4646F2FC53C0F63A
:100A800000031B6846F20860C0F6000011461A46D3
:100A900002F0BAFCD7F8A4304FF05C0202FB03F27C
:100AA00040F20803C2F20003D318184602F0ACFC6F
:100AB000D7F8A43003F105031A4646F2FC53C0F6FA
:100AC00000035B6846F20860C0F6000011461A4653
:100AD00002F09AFC40F20803C2F20003D7F8A42007
:100AE0004FF05C0101FB02F29B1803F154031C68F8
:100AF00040F20803C2F20003D7F8A4204FF05C01D3
:100B000001FB02F29B1803F118039B791A4607F1C7
:100B100004034FF0000011461A46A04707F10403F2
:100B2000184602F071FCD7F8A43003F10103C7F8AE
:100B3000A430D7F8A430062B81D94FF00103184612
:100B400007F1AC07BD4690BD90B591B000AF4FF036
:100B5000000387F83F304FF00003BB634FF0000302
:100B6000BB63CFE040F20803C2F20003BA6B4FF060
:100B70005C0101FB02F29B1803F158031B78012B67
:100B800040F0BC803B4618464FF000014FF0320267
:100B900005F038F940F20803C2F20003BA6B4FF0D7
:100BA0005C0101FB02F29B1803F154031C6840F244
:100BB0000803C2F20003BA6B4FF05C0101FB02F2C2
:100BC0009B1803F118039B791A463B464FF001002E
:100BD00011461A46A047BB6B4FF05C0202FB03F3C1
:100BE00003F1180240F20803C2F20003D31803F124
:100BF00007043B46184605F09BF903463A46204653
:100C000011461A4605F008FA0346002B76D0BB6B56
:100C10004FF05C0202FB03F303F1180240F20803F9
:100C2000C2F20003D31803F107043B46184605F04F
:100C30007FF903463A46204611461A4605F07CFAEB
:100C40003B46184605F074F90446BB6B4FF05C0256
:100C500002FB03F303F1180240F20803C2F200039F
:100C6000D31803F10703184605F062F90346E31AA7
:100C70007B637B6B002B2CDA4FF0000387F83F304F
:100C800020E03B46184605F053F90346322B0DD0C1
:100C90003B46184605F04CF903463A46D21846F250
:100CA0007463C0F600031B88138005E07B6BDBB226
:100CB000C3F1000387F83F3097F83F3003F1010399
:100CC00087F83F3097F83F207B6BC3F100039A42CF
:100CD000D7DBBB6B03F105031A4646F2FC53C0F6A3
:100CE00000039B6846F20860C0F6000011461A46F1
:100CF00002F08AFB3B46184602F086FBBB6B03F111
:100D00000103BB63BB6B062B7FF62CAF4FF00103D7
:100D1000184607F14407BD4690BD00BF80B586B0B8
:100D200000AF0B463A600246FA71BB71FB79002BAB
:100D300047D0012B43D101F031FE78617A6940F24E
:100D4000E7339A423FD97A6944F6D353C1F262033A
:100D5000A3FB02134FEA93133B613B693B2B24D95E
:100D60003A6948F68903C8F68803A3FB02134FEAE1
:100D70005313FB603A6948F68903C8F68803A3FB5E
:100D800002134FEA53110B464FEA03135B1A4FEA63
:100D90008303D31A3B61FA683B69386846F278618D
:100DA000C0F6000102F046FB0DE03B69386846F2F0
:100DB0008461C0F600011A4602F03CFB03E000BF6C
:100DC00002E000BF00E000BF07F11807BD4680BD8C
:100DD00080B582B000AF0B463A600246FA71BB7133
:100DE000FB79002B3CD0012B38D140F2EC63C2F2EE
:100DF00000031A6840F69F739A4215D940F2EC63DB
:100E0000C2F200031A6844F6D353C1F26203A3FB93
:100E100002134FEAD313386846F29061C0F600011E
:100E20001A4602F007FB1CE040F2EC63C2F200033A
:100E30001B684FF47A7202FB03F244F6D353C1F2FB
:100E40006203A3FB02134FEAD313386846F298619A
:100E5000C0F600011A4602F0EDFA02E000BF00E021
:100E600000BF07F10807BD4680BD00BF80B582B056
:100E700000AF46F6FC53C0F600037B6040F200036F
:100E8000C2F200033B600BE07B681A683B681A60A3
:100E90003B6803F104033B607B6803F104037B6060
:100EA0003A6840F2E863C2F200039A42ECD3084881
:100EB00008494FF000028842B8BF40F8042BFFF603
:100EC000FAAF00F06DF807F10807BD4680BD0000DD
:100ED000E8060020100E002080B400AFFEE700BF3F
:100EE00080B483B000AF03463960FB7197F90730D7
:100EF000002B10DA4FF46D43CEF20003FA7902F0C2
:100F00000F02A2F104013A68D2B24FEA0212D2B241
:100F10005B181A760DE04FF46143CEF2000397F9A7
:100F200007103A68D2B24FEA0212D2B25B1883F8C5
:100F3000002307F10C07BD4680BC704780B582B026
:100F400000AF78607A686FF07F439A4202D94FF021
:100F500001031FE04EF21003CEF200037A6822F084
:100F60007F4202F1FF325A604FF0FF304FF00F0125
:100F7000FFF7B6FF4EF21003CEF200034FF000026F
:100F80009A604EF21003CEF200034FF007021A608F
:100F90004FF00003184607F10807BD4680BD00BFAB
:100FA00080B582B000AF4FF00003FB714FF000033B
:100FB000BB7100F0EDFC01F0EDFB40F2D463C2F236
:100FC00000031A6844F6D353C1F26203A3FB021371
:100FD0004FEA93131846FFF7B1FF4FF00003FB7180
:100FE0004FF00000FFF73AF94FF012004FF47A711A
:100FF00001F024FC01F004FD02F082FA4FF013002E
:1010000001F072FC0346032B07D14FF013004FF0A1
:10101000320101F013FCFFF755FCFFF775FC4FF0B0
:10102000010001F061FC0346032B07D1FFF702FA30
:101030004FF001004FF00A0101F000FC4FF00000FA
:10104000FFF732FA0346012B18D1BB79002B18D1D8
:10105000FB79002B07D14FF00100FFF7FFF84FF0AD
:101060000103FB7106E04FF00000FFF7F7F84FF0C7
:101070000003FB714FF00103BB7102E04FF000036E
:10108000BB71FFF781F8B5E780B489B000AF786035
:101090004FF00003BB614FF000037B614FF0000392
:1010A000FB614FF002033B614FF00003FB604FF028
:1010B0000203BB604FF46053C4F202039B6803F069
:1010C0000C03BB61BB69042B0AD0082B0FD0002B8B
:1010D00060D17A684FF41053C0F2F403136060E0FB
:1010E0007A6847F64003C0F27D13136059E04FF46D
:1010F0006053C4F202035B6803F480034FEA935326
:10110000FB604FF46053C4F202035B6803F03F03DB
:10111000BB60FB68002B14D047F64003C0F27D1380
:10112000BA68B3FBF2F24FF46053C4F20203596899
:1011300047F6C0730B404FEA931303FB02F3FB61C6
:1011400013E04FF41053C0F2F403BA68B3FBF2F2A9
:101150004FF46053C4F20203596847F6C0730B4062
:101160004FEA931303FB02F3FB614FF46053C4F2A5
:1011700002035B6803F440334FEA134303F10103B6
:101180004FEA43033B61FA693B69B2FBF3F27B68C8
:101190001A6006E07A684FF41053C0F2F40313604B
:1011A00000BF4FF46053C4F202039B6803F0F003E6
:1011B000BB61BB694FEA1313BB6140F28C23C2F2DF
:1011C0000003BA699B181B78DBB27B617B681A68E5
:1011D0007B6922FA03F27B685A604FF46053C4F2D1
:1011E00002039B6803F4E053BB61BB694FEA93239E
:1011F000BB6140F28C23C2F20003BA699B181B78D2
:10120000DBB27B617B685A687B6922FA03F27B68F8
:101210009A604FF46053C4F202039B6803F4604386
:10122000BB61BB694FEA5333BB6140F28C23C2F20E
:101230000003BA699B181B78DBB27B617B685A6834
:101240007B6922FA03F27B68DA6007F12407BD4666
:1012500080BC704780B483B000AF78600B46FB70F1
:10126000FB78002B0CD04FF46053C4F202034FF410
:101270006052C4F20202116B7A680A431A630DE0ED
:101280004FF46053C4F202034FF46052C4F20202FE
:10129000116B7A686FEA02020A401A6307F10C07C1
:1012A000BD4680BC704700BF80B483B000AF78609B
:1012B0000B46FB70FB78002B0CD04FF46053C4F24C
:1012C00002034FF46052C4F20202116C7A680A43BE
:1012D0001A640DE04FF46053C4F202034FF46052FD
:1012E000C4F20202116C7A686FEA02020A401A64C0
:1012F00007F10C07BD4680BC704700BF80B483B0C7
:1013000000AF78600B46FB70FB78002B0CD04FF4DD
:101310006053C4F202034FF46052C4F20202516CF3
:101320007A680A435A640DE04FF46053C4F2020332
:101330004FF46052C4F20202516C7A686FEA020202
:101340000A405A6407F10C07BD4680BC704700BFD5
:1013500080B483B000AF78600B46FB70FB78002B45
:101360000CD04FF46053C4F202034FF46052C4F245
:101370000202116A7A680A431A620DE04FF4605360
:10138000C4F202034FF46052C4F20202116A7A6896
:101390006FEA02020A401A6207F10C07BD4680BCE0
:1013A000704700BF80B483B000AF78600B46FB701D
:1013B000FB78002B0CD04FF46053C4F202034FF4BF
:1013C0006052C4F20202516A7A680A435A620DE01E
:1013D0004FF46053C4F202034FF46052C4F20202AD
:1013E000516A7A686FEA02020A405A6207F10C07F2
:1013F000BD4680BC704700BF80B58AB000AF0B46C9
:101400003A600246FA71BB7146F26472C0F600029D
:1014100007F11C031068516803C307F10C034FF078
:1014200000021A6003F104034FF000021A6003F196
:1014300004034FF000021A6003F104034FF00002AE
:101440001A6003F104033B68FB60F97946F2A0627D
:10145000C0F600020B464FEAC3035B1A4FEA830350
:10146000D31803F118031A684FF48053C4F2010330
:101470009A4241D0F97946F2A062C0F600020B46CA
:101480004FEAC3035B1A4FEA8303D31803F118032F
:101490001A684FF48843C4F200039A422CD0F979B9
:1014A00046F2A062C0F600020B464FEAC3035B1A85
:1014B0004FEA8303D31803F118031A684FF49043DB
:1014C000C4F200039A4217D0F97946F2A062C0F63E
:1014D00000020B464FEAC3035B1A4FEA8303D3189B
:1014E00003F118031A684FF4A053C4F201039A429F
:1014F00002D04FF0050360E1F97946F2A062C0F630
:1015000000020B464FEAC3035B1A4FEA8303D3186A
:1015100003F118031B68184600F000FA03461A4648
:1015200040F2F463C2F200034FF02C0101FB02F21F
:101530009B181B78012B02D14FF006033DE1FB798C
:10154000002B6BD0BB79002B68D04FF00C03FB82D3
:10155000F97946F2A062C0F600020B464FEAC303D7
:101560005B1A4FEA8303D31803F118031868B9799B
:1015700046F2A062C0F600020B464FEAC3035B1AB4
:101580004FEA8303D31803F118031B68984202D073
:101590004FF0020311E1F97946F2A062C0F60002B1
:1015A0000B464FEAC3035B1A4FEA8303D31803F1D8
:1015B00018031B68184600F0B1F903461A4640F2BA
:1015C000F463C2F200034FF02C0101FB02F29B18FE
:1015D00003F12803FA795A70B97946F2A062C0F68D
:1015E00000020B464FEAC3035B1A4FEA8303D3188A
:1015F00003F118031B68184600F090F903461A46D9
:1016000040F2F463C2F200034FF02C0101FB02F23E
:101610009B1803F12803BA791A7010E0FB79002BAC
:1016200003D04FF00803FB8209E0BB79002B03D005
:101630004FF00403FB8202E04FF00303BDE0F979B1
:1016400046F2A062C0F600020B464FEAC3035B1AE3
:101650004FEA8303D31803F118031B68184600F000
:1016600017F9F97946F2A062C0F600020B464FEA7C
:10167000C3035B1A4FEA8303D31803F118031B68F3
:101680001A4607F10C0310461946FEF7B5FFF97923
:1016900046F2A062C0F600020B464FEAC3035B1A93
:1016A0004FEA8303D31803F118031B681A4607F1A6
:1016B0001C0310461946FFF775F8BB79002B25D09F
:1016C000B97946F2A062C0F600020B464FEAC303A6
:1016D0005B1A4FEA8303D31803F110031B79012B24
:1016E00014D14FF0470387F824304FF0000387F8F8
:1016F00025304FF0000387F826304FF0010387F8BC
:10170000273007F12403184602F04AF9F97946F226
:10171000A062C0F600020B464FEAC3035B1A4FEA11
:101720008303D31803F118031B6818464FF0010117
:10173000FFF762F8F97946F2A062C0F600020B46A4
:101740004FEAC3035B1A4FEA8303D31803F118036C
:101750001B68184600F0E2F803461A4640F2F463AC
:10176000C2F200034FF02C0101FB02F29B184FF074
:1017700001021A70F97946F2A062C0F600020B4627
:101780004FEAC3035B1A4FEA8303D31803F118032C
:101790001B68184600F0C2F803461A4640F2F4638C
:1017A000C2F200034FF02C0101FB02F29B1803F17F
:1017B00004033A681A604FF00003184607F128073F
:1017C000BD4680BD80B584B000AF39601346024687
:1017D000FA71BB804FF00003FB8149E048F2A0633F
:1017E000C0F20103BB6003E0BB6803F1FF33BB60E1
:1017F000F97946F2A062C0F600020B464FEAC30335
:101800005B1A4FEA8303D31803F118031B681846C9
:101810004FF08001FFF736F80346012B02D0BB687A
:10182000002BE1D1BB68002B02D14FF0040324E070
:10183000F97946F2A062C0F600020B464FEAC303F4
:101840005B1A4FEA8303D31803F118031B681A4687
:10185000FB893968CB181B78F98901F10101F981FD
:1018600010461946FEF7E8FFBB8803F1FF33BB8043
:10187000BB88002BB2D14FF00003184607F11007C8
:10188000BD4680BD80B400AFBD4680BC704700BF80
:1018900080B582B000AF78607B684FF49042C4F2AC
:1018A0000002934227D04FF49042C4F200029342C8
:1018B00006D84FF48842C4F20002934214D028E0C4
:1018C0004FF48052C4F20102934206D04FF4A0526A
:1018D000C4F20102934215D01BE04FF010004FF00C
:1018E0000101FFF70BFD14E04FF400304FF0010150
:1018F000FFF704FD0DE04FF480204FF00101FFF7EA
:10190000FDFC06E04FF020004FF00101FFF7F6FC70
:1019100000BF07F10807BD4680BD00BF80B483B09B
:1019200000AF78607B684FF49042C4F200029342AB
:101930001FD04FF49042C4F20002934206D84FF4F5
:101940008842C4F20002934210D018E04FF4805253
:10195000C4F20102934206D04FF4A052C4F2010235
:10196000934209D00BE04FF000030AE04FF001036F
:1019700007E04FF0020304E04FF0030301E04FF0F3
:101980000503184607F10C07BD4680BC704700BF31
:1019900090B587B000AF01F04BFF4FF00103FB752E
:1019A0009DE0F97D46F26C72C0F600020B464FEAEC
:1019B000C3035B1A4FEA8303D3181B683B61F97DAD
:1019C00046F26C72C0F600020B464FEAC3035B1A84
:1019D0004FEA8303D3189B887B60F97D46F26C72D3
:1019E000C0F600020B464FEAC3035B1A4FEA8303BB
:1019F000D3189B793B72F97D46F26C72C0F60002F7
:101A00000B464FEAC3035B1A4FEA8303D31803F173
:101A100008035B78BB72F97D46F26C72C0F6000277
:101A20000B464FEAC3035B1A4FEA8303D31803F153
:101A300008039B78FB72F97D46F26C72C0F60002D7
:101A40000B464FEAC3035B1A4FEA8303D31803F133
:101A500008031B787B72386900F010FA3B7A022B7E
:101A600033D1F97D46F26C72C0F600020B464FEAA4
:101A7000C3035B1A4FEA8303D3189B88184600F010
:101A800027FBF860F97D46F26C72C0F600020B4647
:101A90004FEAC3035B1A4FEA8303D3181868FB6845
:101AA0009CB2F97D46F26C72C0F600020B464FEA1A
:101AB000C3035B1A4FEA8303D31803F10C031B68BB
:101AC000DBB221461A4601F05FFE07F104033869D4
:101AD000194601F07BFDFB7D03F10103FB75FB7DE6
:101AE000062B7FF65EAF07F11C07BD4690BD00BF19
:101AF00080B483B000AF786039607B684FF4805267
:101B0000C4F20202934265D04FF48052C4F2020242
:101B100093421FD84FF48062C4F20202934241D034
:101B20004FF48062C4F20202934206D84FF00002E2
:101B3000C4F2020293422DD074E04FF40062C4F26A
:101B40000202934236D04FF44062C4F20202934242
:101B500038D067E04FF4C052C4F20202934249D039
:101B60004FF4C052C4F20202934206D84FF4A0527E
:101B7000C4F20202934235D054E04FF4E052C4F272
:101B8000020293423ED04FF40052C4F2020293424A
:101B900040D047E03A6846F63003C0F600031868C4
:101BA00010603FE03A6846F63403C0F60003186858
:101BB000106037E03A6846F63803C0F6000318684C
:101BC00010602FE03A6846F63C03C0F60003186840
:101BD000106027E03A6846F64003C0F60003186834
:101BE00010601FE03A6846F64403C0F60003186828
:101BF000106017E03A6846F64803C0F6000318681C
:101C000010600FE03A6846F64C03C0F6000318680F
:101C1000106007E03A6846F65003C0F60003186803
:101C2000106000BF07F10C07BD4680BC704700BFC5
:101C300090B583B000AF03463960FB80FB88802BF2
:101C400000F09780802B11DC082B5ED0082B06DC7F
:101C5000022B40D0042B4BD0012B2FD00AE1202B9C
:101C60006DD0402B78D0102B5CD003E1B3F5006F22
:101C700000F0B580B3F5006F0BDCB3F5007F00F02A
:101C80009280B3F5806F00F09B80B3F5807F7DD0AC
:101C9000F0E0B3F5005F00F0C080B3F5005F04DC56
:101CA000B3F5805F00F0AA80E4E0B3F5804F00F068
:101CB000C380B3F5004F00F0CE80DBE03C682046E7
:101CC00004F036F90346E21846F65403C0F6000362
:101CD0001B881380CEE03C68204604F029F90346B7
:101CE000E21846F65803C0F600031B881380C1E0D3
:101CF0003C68204604F01CF90346E21846F65C03F3
:101D0000C0F600031B881380B4E03C68204604F052
:101D10000FF90346E21846F66003C0F600031B887D
:101D20001380A7E03C68204604F002F90346E2185D
:101D300046F66403C0F600031B8813809AE03C68F3
:101D4000204604F0F5F80346E21846F66803C0F6AC
:101D500000031B8813808DE03C68204604F0E8F8FF
:101D60000346E21846F66C03C0F600031B88138096
:101D700080E03C68204604F0DBF80346E21846F6B3
:101D80007003C0F600031B88138073E03C68204694
:101D900004F0CEF80346E21846F67403C0F60003DA
:101DA0001B88138066E03C68204604F0C1F80346B7
:101DB000E21846F67803C0F600031B88138059E04A
:101DC0003C68204604F0B4F80346E21846F67C036B
:101DD000C0F6000319889B78118093704AE03C6834
:101DE000204604F0A5F80346E21846F68003C0F644
:101DF000000319889B78118093703BE03C68204673
:101E000004F096F80346E21846F68403C0F6000391
:101E100019889B78118093702CE03C68204604F070
:101E200087F80346E21846F68803C0F600031988CF
:101E30009B78118093701DE03C68204604F078F890
:101E40000346E21846F68C03C0F6000319889B7817
:101E5000118093700EE03C68204604F069F8034658
:101E6000E21846F69003C0F6000319889B781180AB
:101E7000937000BF07F10C07BD4690BD80B582B0DE
:101E800000AF78607B684FF48052C4F20202934244
:101E900000F0A0804FF48052C4F2020293421FD897
:101EA0004FF48062C4F20202934252D04FF4806237
:101EB000C4F20202934206D84FF00002C4F20202BA
:101EC000934230D000E14FF40062C4F20202934228
:101ED00055D04FF44062C4F20202934265D0F3E061
:101EE0004FF4C052C4F20202934200F09D804FF4BE
:101EF000C052C4F20202934206D84FF4A052C4F278
:101F0000020293427BD0DFE04FF4E052C4F20202BF
:101F1000934200F09E804FF40052C4F202029342BA
:101F200000F0AC80D0E040F2A473C2F200031B7852
:101F3000002B40F0B8804FF001004FF00101FFF797
:101F400089F940F2A473C2F200034FF001021A7043
:101F5000A9E040F2A473C2F200035B78002B40F0CA
:101F6000A4804FF002004FF00101FFF773F940F237
:101F7000A473C2F200034FF001025A7095E040F2E0
:101F8000A473C2F200039B78002B40F090804FF0C6
:101F900004004FF00101FFF75DF940F2A473C2F2B3
:101FA00000034FF001029A7081E040F2A473C2F284
:101FB0000003DB78002B7CD14FF008004FF00101CB
:101FC000FFF748F940F2A473C2F200034FF0010298
:101FD000DA706EE040F2A473C2F200031B79002BAA
:101FE00069D14FF010004FF00101FFF733F940F2D3
:101FF000A473C2F200034FF001021A715BE040F2D9
:10200000A473C2F200035B79002B56D14FF020007D
:102010004FF00101FFF71EF940F2A473C2F2000372
:102020004FF001025A7148E040F2A473C2F200037B
:102030009B79002B43D14FF040004FF00101FFF797
:1020400009F940F2A473C2F200034FF001029A7141
:1020500035E040F2A473C2F20003DB79002B30D1EB
:102060004FF080004FF00101FFF7F4F840F2A47345
:10207000C2F200034FF00102DA7122E040F2A473D1
:10208000C2F200031B7A002B1DD14FF480704FF079
:102090000101FFF7DFF840F2A473C2F200034FF032
:1020A00001021A720FE000BF0EE000BF0CE000BF9B
:1020B0000AE000BF08E000BF06E000BF04E000BF88
:1020C00002E000BF00E000BF07F10807BD4680BD89
:1020D00080B485B000AF0346FB80FB88802B50D0D6
:1020E000802B11DC082B3CD0082B06DC022B30D0D7
:1020F000042B32D0012B28D067E0202B39D0402B85
:102100003BD0102B31D060E0B3F5006F49D0B3F570
:10211000006F09DCB3F5007F3BD0B3F5806F3CD096
:10212000B3F5807F31D050E0B3F5005F41D0B3F517
:10213000005F03DCB3F5805F37D046E0B3F5804F36
:102140003BD0B3F5004F3CD03FE04FF00003FB60C5
:102150003BE04FF00103FB6037E04FF00203FB6010
:1021600033E04FF00303FB602FE04FF00403FB600C
:102170002BE04FF00503FB6027E04FF00603FB6008
:1021800023E04FF00703FB601FE04FF00803FB6004
:102190001BE04FF00903FB6017E04FF00A03FB6000
:1021A00013E04FF00B03FB600FE04FF00C03FB60FC
:1021B0000BE04FF00D03FB6007E04FF00E03FB60F8
:1021C00003E04FF00F03FB6000BFFB68184607F108
:1021D0001407BD4680BC7047B0B582B000AF4FF465
:1021E0000050C4F2010040F2052100F05BFD0346FF
:1021F000012B05D14FF40053C4F201037B6021E0B1
:102200004FF40450C4F2010040F2052100F04AFDF1
:102210000346012B05D14FF40453C4F201037B6044
:1022200010E04FF40850C4F2010040F2052100F024
:1022300039FD0346012B40F04D814FF40853C4F2A1
:1022400001037B607B68184600F01EFD03461846BC
:1022500000F0CAF93860786800F052FA03461C466C
:10226000786800F04DFA03461A4640F2B873C2F29D
:1022700000039B5CDBB2194640F2C472C2F200025A
:1022800023464FEAC3031B194FEA43035B184FEA87
:102290000313D3183A685A60786800F031FA03469D
:1022A0001C46786800F02CFA03461A4640F2B873D0
:1022B000C2F200039B5CDBB2194640F2C472C2F268
:1022C000000223464FEAC3031B194FEA43035B187E
:1022D0004FEA0313D31803F108031B68002B42D005
:1022E000786800F00DFA03461C46786800F008FA9A
:1022F00003461A4640F2B873C2F200039B5CDBB29D
:10230000194640F2C472C2F2000223464FEAC303E8
:102310001B194FEA43035B184FEA0313D31803F169
:1023200008031D68786800F0EBF903461C467868DE
:1023300000F0E6F903461A4640F2B873C2F2000311
:102340009B5CDBB2194640F2C472C2F20002234623
:102350004FEAC3031B194FEA43035B184FEA031309
:10236000D3185B682B60786800F0CAF903461C46F6
:10237000786800F0C5F903461A4640F2B873C2F215
:1023800000039B5CDBB2194640F2C472C2F2000249
:1023900023464FEAC3031B194FEA43035B184FEA76
:1023A0000313D31803F108035B68002B43D078684C
:1023B00000F0A6F903461C46786800F0A1F9034630
:1023C0001A4640F2B873C2F200039B5CDBB21946B6
:1023D00040F2C472C2F2000223464FEAC3031B1943
:1023E0004FEA43035B184FEA0313D31803F10803C2
:1023F0005D68786800F084F903461C46786800F050
:102400007FF903461A4640F2B873C2F200039B5CA0
:10241000DBB2194640F2C472C2F2000223464FEA10
:10242000C3031B194FEA43035B184FEA0313D31886
:102430005B681846A847786800F062F903461A46B8
:1024400040F2B473C2F200034FF00001995478686F
:1024500000F056F903461A4640F2C073C2F2000378
:102460009B5CDBB2002B36D0786800F049F903465C
:102470001A4640F2BC73C2F200039B5CDBB203F16C
:102480000103D9B240F2BC73C2F2000399547868D8
:1024900000F0CCF80346002B0FDB786800F030F931
:1024A00003461A4640F2BC73C2F200039B5CDBB2E7
:1024B0007868194600F028F80DE0786800F020F9F7
:1024C00003461A4640F2C073C2F200034FF0000107
:1024D000995400E000BF07F10807BD46B0BD00BF3A
:1024E00080B582B000AF7860786800F009F90346E3
:1024F0001A4640F2B473C2F200039B5CDBB218468A
:1025000007F10807BD4680BD90B585B000AF786083
:102510000B46FB704FF6FF73FB6000E000BF78686E
:10252000FFF7DEFF0346002B0BD0FB68002B0CBF30
:1025300000230123DBB2FA6802F1FF32FA60002BBC
:10254000ECD1FB68002B4AD07C68786800F0D8F8A2
:1025500003461946F87840F2C472C2F200020B46F4
:102560004FEAC3035B184FEA43031B184FEA0313F8
:10257000D3181B78DBB2194646F69402C0F6000267
:102580000B464FEAC3035B1A4FEA8303D31803F1E8
:1025900010031B68DBB2204619464FF001024FF0D2
:1025A000000300F083FA786800F0AAF803461A46A0
:1025B00040F2B473C2F200034FF0010199547868FD
:1025C00000F09EF803461A4640F2B873C2F20003C8
:1025D000F97899547B68184600F046FB00E000BF8C
:1025E00007F11407BD4690BD80B485B000AF786098
:1025F0007B68FB60FB6840F6E44202FB03F3FB6090
:10260000FA6840F20113C0F21003A3FB0213D21ABE
:102610004FEA52029B184FEAD323FB60FB6818462F
:1026200007F11407BD4680BC704700BF90B585B068
:1026300000AF78604FF00003FB7339E0786800F07A
:102640005FF803461C46786800F05AF803461A46BD
:1026500040F2BC73C2F200039B5CDBB2194640F24D
:10266000C472C2F2000223464FEAC3031B194FEAA9
:1026700043035B184FEA0313D3185B78DBB2012BDB
:1026800003D14FF00103FB7312E0786800F038F8D3
:1026900003461A4640F2BC73C2F200039B5CDBB2F5
:1026A00003F10103D9B240F2BC73C2F200039954A2
:1026B000786800F025F803461A4640F2BC73C2F26F
:1026C00000039B5CDCB2786800F01AF803461A46F7
:1026D00040F62433C2F200039B5C9C4202D2FB7B97
:1026E000002BABD0FB7B002B01D0FB7B01E04FF03C
:1026F000FF035BB2184607F11407BD4690BD00BF4B
:1027000080B483B000AF78607A684FF40053C4F2AD
:1027100001039A4202D14FF0000315E07A684FF4AA
:102720000453C4F201039A4202D14FF001030BE0BB
:102730007A684FF40853C4F201039A4202D14FF071
:10274000020301E04FF00403184607F10C07BD46F1
:1027500080BC704780B400AF40F62833C2F200035B
:102760001B6803F1010240F62833C2F200031A602D
:1027700040F62833C2F200031B68B3F1FF3F06D1D5
:1027800040F62833C2F200034FF000021A60BD4643
:1027900080BC704780B483B000AF4FF00003FB7182
:1027A00043E0F97940F62C32C2F200020B464FEAC0
:1027B00043035B184FEA8303D3184FF000021A70EB
:1027C000F97940F62C32C2F200020B464FEA43037D
:1027D0005B184FEA8303D3184FF003025A70F9795C
:1027E00040F62C32C2F200020B464FEA43035B185C
:1027F0004FEA8303D31803F104034FF000021A6079
:10280000F97940F62C32C2F200020B464FEA43033C
:102810005B184FEA8303D31803F108034FF000025B
:102820001A60FB7903F10103FB71FB79172BB8D90F
:1028300007F10C07BD4680BC704700BF80B483B071
:1028400000AF03463960FB71FB79172B47D8F97944
:1028500040F62C32C2F200020B464FEA43035B18EB
:102860004FEA8303D3184FF001021A70F97940F64A
:102870002C32C2F200020B464FEA43035B184FEAC8
:102880008303D3184FF002025A70F97940F62833C7
:10289000C2F200031A683B68D01840F62C32C2F22C
:1028A00000020B464FEA43035B184FEA8303D31839
:1028B00003F104031860F97940F62833C2F20003EB
:1028C000186840F62C32C2F200020B464FEA43036E
:1028D0005B184FEA8303D31803F10803186007F16C
:1028E0000C07BD4680BC704780B483B000AF034680
:1028F000FB71FB79172B0DD8F97940F62C32C2F217
:1029000000020B464FEA43035B184FEA8303D318D8
:102910005B7801E04FF00003184607F10C07BD4655
:1029200080BC704780B483B000AF0346FB71FB7975
:10293000172B2ED8F97940F62C32C2F200020B4642
:102940004FEA43035B184FEA8303D3184FF00002AA
:102950001A70F97940F62C32C2F200020B464FEAA7
:1029600043035B184FEA8303D3184FF003025A70F6
:10297000F97940F62C32C2F200020B464FEA4303CB
:102980005B184FEA8303D31803F104034FF00002EE
:102990001A6007F10C07BD4680BC704780B400AFD9
:1029A00040F62833C2F200031B681846BD4680BCBF
:1029B000704700BF80B483B000AF0346FB71FB7962
:1029C000172B15D840F62833C2F200031868F9799E
:1029D00040F62C32C2F200020B464FEA43035B186A
:1029E0004FEA8303D31803F108031B68C31A01E0FD
:1029F0004FF00003184607F10C07BD4680BC704736
:102A000080B483B000AF4FF00003FB7146E0F9796A
:102A100040F62C32C2F200020B464FEA43035B1829
:102A20004FEA8303D3181B78012B33D1F97940F691
:102A30002C32C2F200020B464FEA43035B184FEA06
:102A40008303D3185B78032B24D0F97940F62C321A
:102A5000C2F200020B464FEA43035B184FEA8303BE
:102A6000D31803F104031A6840F62833C2F20003B6
:102A70001B689A420ED8F97940F62C32C2F2000255
:102A80000B464FEA43035B184FEA8303D3184FF01A
:102A900003025A70FB7903F10103FB71FB79172BD9
:102AA000B5D907F10C07BD4680BC704780B485B02E
:102AB00000AF7860F970BA707B704FF00003FB6074
:102AC0004FF00003BB60FB78092B27D97B68DB68DC
:102AD000FB60FA7813464FEA43039B18A3F11E03E9
:102AE0004FF0070202FA03F3BB60BB686FEA03030F
:102AF000FA681340FB607978FA7813464FEA43038B
:102B00009B18A3F11E0301FA03F3BB60FA68BB68CC
:102B10001343FB607B68FA68DA6022E07B681B691C
:102B2000FB60FA7813464FEA43039B184FF0070205
:102B300002FA03F3BB60BB686FEA0303FA68134051
:102B4000FB607978FA7813464FEA43039B1801FA41
:102B500003F3BB60FA68BB681343FB607B68FA68E9
:102B60001A61BB78062B27D87B685B6BFB60BB7850
:102B700003F1FF3213464FEA83039B184FF01F0205
:102B800002FA03F3BB60BB686FEA0303FA68134001
:102B9000FB60F978BB7803F1FF3213464FEA8303F9
:102BA0009B1801FA03F3BB60FA68BB681343FB6030
:102BB0007B68FA685A6351E0BB780C2B27D87B6896
:102BC0001B6BFB60BA7813464FEA83039B18A3F193
:102BD00023034FF01F0202FA03F3BB60BB686FEAE6
:102BE0000303FA681340FB60F978BA7813464FEA9A
:102BF00083039B18A3F1230301FA03F3BB60FA6874
:102C0000BB681343FB607B68FA681A6326E07B6845
:102C1000DB6AFB60BA7813464FEA83039B18A3F183
:102C200041034FF01F0202FA03F3BB60BB686FEA77
:102C30000303FA681340FB60F978BA7813464FEA49
:102C400083039B18A3F1410301FA03F3BB60FA6805
:102C5000BB681343FB607B68FA68DA6207F114070C
:102C6000BD4680BC704700BF80B483B000AF7860C1
:102C70007B689B6843F080427B689A6007F10C0791
:102C8000BD4680BC704700BF80B483B000AF7860A1
:102C90007B68DB6C9BB2184607F10C07BD4680BC15
:102CA000704700BF80B487B000AF78600B467B8070
:102CB0004FF00003FB754FF000033B614FF0000342
:102CC000FB607B884FEA13239BB23B617B685A68A9
:102CD0007B88DBB24FF0010101FA03F31340FB6084
:102CE0007B681A683B691340002B06D0FB68002BF9
:102CF00003D04FF00103FB7502E04FF00003FB75BA
:102D0000FB7D184607F11C07BD4680BC704700BF1D
:102D100080B582B000AF0346FB7107F107034FF0A7
:102D2000010019464FF00102FEF74CFD07F10807BC
:102D3000BD4680BD80B483B000AF78600B46FB70A9
:102D40007B68FA781A704FF00103184607F10C07F8
:102D5000BD4680BC704700BF80B485B000AF7860CE
:102D600039604FF00003FB600FE03B681A787B6826
:102D70001A707B6803F101037B603B6803F1010378
:102D80003B60FB6803F10103FB603B681B78002B91
:102D9000EBD1FB68184607F11407BD4680BC7047AD
:102DA00080B586B000AFF8607A603B600B46FB727E
:102DB0004FF000037B617B6803F1FF337B603B686E
:102DC000092B25D93A684CF6CD43CCF6CC43A3FB6E
:102DD00002134FEAD303FA7AF86811467A68FFF7CC
:102DE000DFFF78617B69FA68D318FB6013E0FB7A38
:102DF000F8681946FFF79EFFFB6803F10103FB60CB
:102E00007B6903F101037B617B6803F1FF337B6026
:102E10007B68002BEBDC39684CF6CD43CCF6CC4319
:102E2000A3FB01234FEAD30213464FEA83039B1807
:102E30004FEA4303CA1AD3B203F13003DBB2F86896
:102E40001946FFF777FF03467A69D3187B617B69E0
:102E5000184607F11807BD4680BD00BF80B586B093
:102E600000AFF8607A603B600B46FB724FF00003E6
:102E70007B613B68002B04DA3B68C3F100033B61D4
:102E800001E03B683B617B6803F1FF337B603B699A
:102E9000092B2AD93B68002B12DA3A694CF6CD434C
:102EA000CCF6CC43A3FB02134FEAD303C3F10003D8
:102EB000FA7AF86811467A68FFF7D0FF78610FE078
:102EC0003A694CF6CD43CCF6CC43A3FB02134FEA50
:102ED000D303FA7AF86811467A68FFF7BFFF786182
:102EE0007B69FA68D318FB602BE03B68002B15DA8E
:102EF0007B6803F1FF337B6010E0FB7AF8681946CA
:102F0000FFF718FFFB6803F10103FB607B6903F126
:102F100001037B617B6803F1FF337B607B68002BDF
:102F2000EBDC3B68002B0CDAF8684FF02D01FFF763
:102F300001FF03467A69D3187B61FB6803F1010343
:102F4000FB6039694CF6CD43CCF6CC43A3FB01239F
:102F50004FEAD30213464FEA83039B184FEA430319
:102F6000CA1AD3B203F13003DBB2F8681946FFF78F
:102F7000E1FE03467A69D3187B617B69184607F145
:102F80001807BD4680BD00BF80B588B002AFF860AD
:102F90007A600A46FA72BB724FF000037B617B686D
:102FA00003F1FF337B603B6A4FEA1313002B24D0FD
:102FB0003B6A4FEA1311FA7ABB7A0091F86811461E
:102FC0007A68FFF7E1FF03467A69D3187B617B6972
:102FD000FA68D318FB6013E0FB7AF8681946FFF72C
:102FE000A9FEFB6803F10103FB607B6903F10103A8
:102FF0007B617B6803F1FF337B607B68002BEBDC3C
:103000003B6A03F00F03092B0CD83B6ADBB203F0D9
:103010000F03DBB203F13003DBB2F8681946FFF7A8
:1030200089FE1BE0BB7A002B0CD03B6ADBB203F0BD
:103030000F03DBB203F13703DBB2F8681946FFF781
:1030400079FE0BE03B6ADBB203F00F03DBB203F166
:103050005703DBB2F8681946FFF76CFE7B6903F192
:1030600001037B617B69184607F11807BD4680BDE7
:1030700080B58AB002AFF860B9607A603B604FF00B
:103080000003BB614FF000037B61FB68002B00F085
:103090001C81FB684FF000021A7016E17B681B78F8
:1030A000252B10D07B681A78FB681A70FB6803F137
:1030B0000103FB607B6803F101037B607B6903F123
:1030C00001037B6102E17B6803F101031B78252B7F
:1030D00010D1FB684FF025021A70FB6803F1010361
:1030E000FB607B6803F102037B607B6903F10103F2
:1030F0007B61EBE04FF02003FB774FF00003BB77E1
:103100007B6803F101037B607B681B78302B1BD14C
:103110004FF03003FB777B6803F101037B6013E022
:10312000BB7F1A464FEA8202D3184FEA4303DAB252
:103130007B681B78D318DBB2A3F13003BB777B68C5
:1031400003F101037B6000E000BF7B681B782F2B3D
:1031500003D97B681B78392BE2D9BA7F7B69D318F6
:103160001A46BB689A4205D9BB68DAB27B69DBB202
:10317000D31ABB777B681B78A3F15803202B00F28E
:10318000948001A252F823F05D320008AB320008AF
:10319000AB320008AB320008AB320008AB3200089B
:1031A000AB320008AB320008AB320008AB3200088B
:1031B000AB320008933200080D320008AB32000831
:1031C000AB320008AB320008AB3200080D32000809
:1031D000AB320008AB320008AB320008AB3200085B
:1031E000AB320008AB320008AB320008AB3200084B
:1031F000AB3200087D320008AB32000825320008EF
:10320000AB320008AB3200083D320008BA7F3B68A1
:1032100003F1040139601B68F97FF868FFF71EFEAF
:10322000B86145E0BA7F3B6803F1040139601B686F
:10323000F97FF868FFF7B4FDB86139E0BA7F3B6801
:1032400003F1040139601968FB7F0091F8681946A1
:103250004FF00003FFF798FEB86129E0BA7F3B68A2
:1032600003F1040139601968FB7F0091F868194681
:103270004FF00103FFF788FEB86119E03B6803F1E6
:1032800004023A601B68F8681946FFF765FDB861EB
:103290000EE03B6803F104023A601B68DBB2F86899
:1032A0001946FFF747FDB86102E04FF0FF332CE00D
:1032B0007B6803F101037B60BB69FA68D318FB608C
:1032C0007A69BB69D3187B6100E000BF7B681B781B
:1032D000002B04D07A69BB689A42FFF4DFAE7A69AA
:1032E000BB689A4204D2FB684FF000021A700BE0F0
:1032F000FB6803F1FF33FB60FB684FF000021A70BC
:103300007B6903F1FF337B617B69184607F1200776
:10331000BD4680BD0CB480B584B000AF7860396024
:1033200007F11C03BB6078683968BA69BB68FFF7AE
:103330009FFEF860FB68184607F11007BD46BDE820
:10334000804002B0704700BF80B584B000AFF86025
:10335000B9607A60F8684FF06401BA687B68FFF77B
:1033600087FE0346184607F11007BD4680BD00BF23
:10337000B0B5A6B000AFF860B9607A6046F61C231D
:10338000C0F6000307F110041D460FCD0FC40FCD8A
:103390000FC42B68236007F134031846B9687A68B4
:1033A000FFF7D2FF0346632B0CDD40F2C863C2F285
:1033B00000031B68DB6807F110021046194600F095
:1033C00077F8FEE707F134031846F96800F070F863
:1033D0000346184607F19807BD46B0BD80B582B0D8
:1033E00000AF7860396040F2C863C2F200031B6826
:1033F0009B68184679683A68FFF7BAFF0346184693
:1034000007F10807BD4680BD0FB480B582B000AF9C
:1034100007F114033B6038693968FFF7DFFF786014
:103420007B68184607F10807BD46BDE8804004B038
:10343000704700BF0EB480B585B000AF786007F16B
:103440002003BB607868F969BA68FFF77DFFF86010
:10345000FB68184607F11407BD46BDE8804003B07D
:10346000704700BF80B582B000AF7860396040F22D
:10347000C863C2F200031B689A683B689A4208D08E
:1034800040F2C863C2F200031B68DA683B689A42E4
:1034900006D17B68DBB21846FFF73AFC7B6801E097
:1034A0004FF0FF33184607F10807BD4680BD00BF47
:1034B00080B584B000AF786039604FF00003FB60E6
:1034C00014E07B681B7818463968FFF7CBFF03468A
:1034D000B3F1FF3F02D14FF0FF330CE0FB6803F183
:1034E0000103FB607B6803F101037B607B681B7851
:1034F000002BE6D1FB68184607F11007BD4680BDDA
:1035000080B582B000AF4FF00003FB804FF4A050B5
:10351000C4F201004FF02001FDF7B4F90346012B7E
:1035200007D14FF4A050C4F20100FDF799F903460A
:10353000FB8040F64C43C2F200031B78002B09D1FC
:1035400000F00EF803461A4640F64C43C2F2000360
:103550001A7000E000BF07F10807BD4680BD00BF3C
:1035600080B500AF40F2D063C2F200039A7840F217
:10357000D063C2F20003DB78104619464FF4E13203
:10358000FDF73AFF46F65830C0F60000FFF73CFF63
:1035900046F66030C0F60000FFF736FF46F66430AE
:1035A000C0F60000FFF730FF46F66C30C0F60000B2
:1035B0004FF00701FFF728FF46F67430C0F6000011
:1035C000FFF722FF4FF00103184680BD80B487B09B
:1035D00000AF786039604FF000037B614FF000036B
:1035E0003B614FF00003FB604FF000037B6186E01E
:1035F0007B694FF0010202FA03F33B613B681A68F2
:103600003B691340FB60FA683B699A4273D17B685F
:103610001A687B694FEA43034FF0030101FA03F391
:103620006FEA03031A407B681A607B681A683B687C
:103630001B7919467B694FEA430301FA03F31A43E6
:103640007B681A603B681B79012B03D03B681B79B0
:10365000022B34D17B689A687B694FEA43034FF0B1
:10366000030101FA03F36FEA03031A407B689A60CF
:103670007B689A683B685B7919467B694FEA43032C
:1036800001FA03F31A437B689A607B685A687B6986
:103690009BB24FF0010101FA03F36FEA03031A40F2
:1036A0007B685A607B685A683B689B7919467B69DE
:1036B0009BB201FA03F39BB21A437B685A607B68A2
:1036C000DA687B699BB24FEA43034FF0030101FACA
:1036D00003F36FEA03031A407B68DA607B68DA68F9
:1036E0003B68DB7919467B694FEA430301FA03F330
:1036F0001A437B68DA607B6903F101037B617B69B4
:103700000F2B7FF675AF07F11C07BD4680BC7047D5
:1037100080B485B000AF78600B467B804FF000032B
:10372000FB737B681A697B881340002B03D04FF032
:103730000103FB7302E04FF00003FB73FB7B1846B1
:1037400007F11407BD4680BC704700BF80B485B048
:1037500000AF78600B467B804FF00003FB737B6803
:103760005A697B881340002B03D04FF00103FB7391
:1037700002E04FF00003FB73FB7B184607F11407D0
:10378000BD4680BC704700BF80B485B000AF786094
:1037900013460A467A807B704FF00003FB604FF0BF
:1037A0000003BB607A787B8803F007034FEA83034A
:1037B00002FA03F3FB607B884FEAD3039BB21A46FD
:1037C0007B884FEAD3039BB219467B6801F108015D
:1037D00053F821107B8803F007034FEA83034FF06F
:1037E0000F0000FA03F36FEA030319407B6802F14C
:1037F000080243F822107B884FEAD3039BB21A4693
:103800007B6802F1080253F82220FB681343BB6077
:103810007B884FEAD3039BB21A467B6802F1080209
:10382000B96843F8221007F11407BD4680BC704701
:1038300080B487B000AF4FF000033B614FF000034E
:103840007B614FF00203FB604FF00003BB604FF061
:1038500002037B604FF46053C4F202039B6803F0E1
:103860000C033B613B69042B0DD0082B15D0002BBA
:1038700069D140F2D463C2F200034FF41052C0F297
:10388000F4021A6069E040F2D463C2F2000347F622
:103890004002C0F27D121A605FE04FF46053C4F240
:1038A00002035B6803F480034FEA9353BB604FF459
:1038B0006053C4F202035B6803F03F037B60BB68A4
:1038C000002B14D047F64003C0F27D137A68B3FB97
:1038D000F2F24FF46053C4F20203596847F6C07322
:1038E0000B404FEA931303FB02F37B6113E04FF4A9
:1038F0001053C0F2F4037A68B3FBF2F24FF4605352
:10390000C4F20203596847F6C0730B404FEA9313A1
:1039100003FB02F37B614FF46053C4F202035B6864
:1039200003F440334FEA134303F101034FEA430327
:10393000FB607A69FB68B2FBF3F240F2D463C2F237
:1039400000031A6009E040F2D463C2F200034FF4AE
:103950001052C0F2F4021A6000BF4FF46053C4F278
:1039600002039B6803F0F0034FEA131240F2D8639E
:10397000C2F200039B5CDBB23B6140F2D463C2F253
:1039800000031A683B6922FA03F240F2D463C2F2E0
:1039900000031A6007F11C07BD4680BC704700BFDA
:1039A00080B485B000AF78604FF00003FB734FF038
:1039B0000003BB734FF00F037B737B68DB78002B36
:1039C00045D04FF46D43CEF20003DB686FEA03038A
:1039D00003F4E0634FEA1323FB73FB7BC3F104039F
:1039E000BB737A7BFB7B42FA03F37B737B685B7868
:1039F0001A46BB7B02FA03F3FB737B689A787B7BE6
:103A00001340DAB2FB7B1343FB73FB7B4FEA0313D8
:103A1000FB734FF46143CEF200037A6812789B186F
:103A2000FA7B83F800234FF46143CEF200037A68F7
:103A300012784FEA5212D2B27968097801F01F0168
:103A40004FF0010000FA01F143F8221014E04FF4A6
:103A50006143CEF200037A6812784FEA5212D2B272
:103A60007968097801F01F014FF0010000FA01F1B7
:103A700002F1200243F8221007F11407BD4680BC72
:103A8000704700BF80B586B000AF0346FB71F9797F
:103A900046F69032C0F600020B464FEAC3035B1AAB
:103AA0004FEA8303D3181B683B61F97946F69032DD
:103AB000C0F600020B464FEAC3035B1A4FEA8303CA
:103AC000D3189B88FB81F97946F69032C0F6000244
:103AD0000B464FEAC3035B1A4FEA8303D3189B7963
:103AE000002B02D0012B08D00FE0FB893869194662
:103AF000FFF70EFE0346FB7508E0FB89386919469F
:103B0000FFF724FE0346FB7500E000BFF97946F697
:103B10009032C0F600020B464FEAC3035B1A4FEA2D
:103B20008303D318DB79002B10D0012B1DD1FB7D33
:103B3000002B05D0012B07D14FF00003BB7504E02B
:103B40004FF00103BB7500E000BF0EE0FB7D002BD2
:103B500005D0012B07D14FF00103BB7504E04FF0F6
:103B60000003BB7500E000BF00BFBB7D184607F136
:103B70001807BD4680BD00BF90B585B000AF0B46AD
:103B80003A600246FA71BB714FF00003FB73FB7998
:103B9000002B02D0012B23D07CE0B97946F690327D
:103BA000C0F600020B464FEAC3035B1A4FEA8303D9
:103BB000D3181B6818463968FDF79AFFB97946F69D
:103BC0009032C0F600020B464FEAC3035B1A4FEA7D
:103BD0008303D3189B8818463968FEF729F85CE000
:103BE000B97946F69032C0F600020B464FEAC3039D
:103BF0005B1A4FEA8303D31803F10C031B68002BF5
:103C00004AD1BB791846FFF73DFF0346FB73FB7BA8
:103C1000002B1FD0012B3BD1386822494FF00902FD
:103C200002F0B6F93C68204602F082F90346E21839
:103C300046F6A843C0F6000303CB10605160198814
:103C40009B7811819372386817494FF0090202F08E
:103C50009FF91EE0386815494FF0090202F098F903
:103C60003C68204602F064F90346E21846F6B44385
:103C7000C0F60003144607CB20606160A2601B7889
:103C80002373386808494FF0090202F081F900E017
:103C900000BF02E000BF00E000BF07F11407BD460F
:103CA00090BD00BF666C0008936C00085D6C000856
:103CB00090B585B000AF0346FB71F97946F6C44272
:103CC000C0F600020B464FEAC3035B1A4FEA8303B8
:103CD000D31803F118031B68184600F0A5FF03462C
:103CE0001C46F97946F6C442C0F600020B464FEA7C
:103CF000C3035B1A4FEA8303D31803F110031B6855
:103D0000184601F031F8034640F65042C2F2000274
:103D10004FEA8401CB184FEAC303D3189B79002BD9
:103D200002D14FF00003A7E0F97946F6C442C0F68D
:103D300000020B464FEAC3035B1A4FEA8303D31812
:103D400003F118031B68184600F06EFF03461C467B
:103D5000F97946F6C442C0F600020B464FEAC303A7
:103D60005B1A4FEA8303D31803F110031B6818464C
:103D700000F0FAFF034640F65042C2F200024FEA5A
:103D80008401CB184FEAC303D3185B79FB73FB7B29
:103D9000012B02D14FF001036EE0F97946F6C442DF
:103DA000C0F600020B464FEAC3035B1A4FEA8303D7
:103DB000D31803F118031B68184600F035FF0346BB
:103DC0001C46F97946F6C442C0F600020B464FEA9B
:103DD000C3035B1A4FEA8303D31803F110031B6874
:103DE000184600F0C1FF034640F65042C2F20002FE
:103DF0004FEA8401CB184FEAC303D3184FF00102F6
:103E00005A71F97946F6C442C0F600020B464FEAF1
:103E1000C3035B1A4FEA8303D31803F118031B682B
:103E20001846F97946F6C442C0F600020B464FEA3E
:103E3000C3035B1A4FEA8303D31803F110031B6813
:103E40009BB219464FF0010201F0C0FEF97946F627
:103E5000C442C0F600020B464FEAC3035B1A4FEAA6
:103E60008303D31803F118031B6818464FF00101B0
:103E700001F0DAFE4FF00103184607F11407BD46C2
:103E800090BD00BF90B585B000AF0346FB71F979D6
:103E900046F6C442C0F600020B464FEAC3035B1A63
:103EA0004FEA8303D31803F118031B68184600F088
:103EB000BBFE03461C46F97946F6C442C0F6000232
:103EC0000B464FEAC3035B1A4FEA8303D31803F18F
:103ED00010031B68184600F047FF034640F65042A7
:103EE000C2F200024FEA8401CB184FEAC303D31891
:103EF0009B79002B02D14FF00003A7E0F97946F639
:103F0000C442C0F600020B464FEAC3035B1A4FEAF5
:103F10008303D31803F118031B68184600F084FECE
:103F200003461C46F97946F6C442C0F600020B4629
:103F30004FEAC3035B1A4FEA8303D31803F110035C
:103F40001B68184600F010FF034640F65042C2F2CC
:103F500000024FEA8401CB184FEAC303D3185B7900
:103F6000FB73FB7B002B02D14FF000036EE0F9796D
:103F700046F6C442C0F600020B464FEAC3035B1A82
:103F80004FEA8303D31803F118031B68184600F0A7
:103F90004BFE03461C46F97946F6C442C0F60002C1
:103FA0000B464FEAC3035B1A4FEA8303D31803F1AE
:103FB00010031B68184600F0D7FE034640F6504237
:103FC000C2F200024FEA8401CB184FEAC303D318B0
:103FD0004FF000025A71F97946F6C442C0F6000269
:103FE0000B464FEAC3035B1A4FEA8303D31803F16E
:103FF00018031B681846F97946F6C442C0F6000259
:104000000B464FEAC3035B1A4FEA8303D31803F14D
:1040100010031B689BB219464FF0000201F0D6FD59
:10402000F97946F6C442C0F600020B464FEAC303D4
:104030005B1A4FEA8303D31803F118031B68184671
:104040004FF0000101F0F0FD4FF00003184607F1BA
:104050001407BD4690BD00BF90B589B000AF0346C0
:10406000B9607A60FB734FF00103FB614FF001030D
:10407000BB614FF000037B61FB7B062B02D94FF045
:10408000010378E3F97B46F6C442C0F600020B4612
:104090004FEAC3035B1A4FEA8303D31803F11803F3
:1040A0001B68B3F1804F00F00581F97B46F6C442EE
:1040B000C0F600020B464FEAC3035B1A4FEA8303C4
:1040C000D31803F118031A684FF48063C4F2000395
:1040D0009A4200F0EF80F97B46F6C442C0F6000237
:1040E0000B464FEAC3035B1A4FEA8303D31803F16D
:1040F00018031A684FF40063C4F200039A4200F0F8
:10410000D980F97B46F6C442C0F600020B464FEA5E
:10411000C3035B1A4FEA8303D31803F118031A6829
:104120004FF44063C4F200039A4200F0C380F97B6D
:1041300046F6C442C0F600020B464FEAC3035B1AC0
:104140004FEA8303D31803F118031A684FF480531E
:10415000C4F200039A4200F0AD80F97B46F6C442F7
:10416000C0F600020B464FEAC3035B1A4FEA830313
:10417000D31803F118031A684FF4A053C4F20003D4
:104180009A4200F09780F97B46F6C442C0F60002DE
:104190000B464FEAC3035B1A4FEA8303D31803F1BC
:1041A00018031A684FF48063C4F201039A4200F0C6
:1041B0008180F97B46F6C442C0F600020B464FEA06
:1041C000C3035B1A4FEA8303D31803F118031A6879
:1041D0004FF48043C4F201039A426BD0F97B46F658
:1041E000C442C0F600020B464FEAC3035B1A4FEA13
:1041F0008303D31803F118031A684FF48843C4F2F9
:1042000001039A4256D0F97B46F6C442C0F600023A
:104210000B464FEAC3035B1A4FEA8303D31803F13B
:1042200018031A684FF49043C4F201039A4241D034
:10423000F97B46F6C442C0F600020B464FEAC303C0
:104240005B1A4FEA8303D31803F118031A684FF47B
:10425000C053C4F200039A422CD0F97B46F6C44204
:10426000C0F600020B464FEAC3035B1A4FEA830312
:10427000D31803F118031A684FF4E053C4F2000393
:104280009A4217D0F97B46F6C442C0F600020B46AC
:104290004FEAC3035B1A4FEA8303D31803F11803F1
:1042A0001A684FF40053C4F200039A4202D04FF050
:1042B000030360E2F97B46F6C442C0F600020B46F7
:1042C0004FEAC3035B1A4FEA8303D31803F11803C1
:1042D0001B68184600F0A8FC03461C46F97B46F60E
:1042E000C442C0F600020B464FEAC3035B1A4FEA12
:1042F0008303D31803F110031B68184600F034FD44
:10430000034640F65042C2F200024FEA8401CB1845
:104310004FEAC303D3189B79012B02D14FF002035C
:1043200029E240F2D463C2F200031A684DF68363B7
:10433000C4F21B33A3FB02134FEAD34303F1FF3351
:10434000BB61BB684FEA430303F1FF33FB61F97BB9
:1043500046F6C442C0F600020B464FEAC3035B1A9E
:104360004FEA8303D31803F118031B68B3F1804F9E
:1043700014D0F97B46F6C442C0F600020B464FEA61
:10438000C3035B1A4FEA8303D31803F118031A68B7
:104390004FF44063C4F200039A4203D14FF0FF335D
:1043A0007B61E0E0F97B46F6C442C0F600020B46B2
:1043B0004FEAC3035B1A4FEA8303D31803F11803D0
:1043C0001A684FF48063C4F200039A4200F0BF8081
:1043D000F97B46F6C442C0F600020B464FEAC3031F
:1043E0005B1A4FEA8303D31803F118031A684FF4DA
:1043F0000063C4F200039A4200F0A980F97B46F6FC
:10440000C442C0F600020B464FEAC3035B1A4FEAF0
:104410008303D31803F118031A684FF48043C4F2DE
:1044200001039A4200F09380F97B46F6C442C0F63D
:1044300000020B464FEAC3035B1A4FEA8303D3180B
:1044400003F118031A684FF48843C4F201039A4237
:104450007DD0F97B46F6C442C0F600020B464FEA17
:10446000C3035B1A4FEA8303D31803F118031A68D6
:104470004FF49043C4F201039A4268D0F97B46F6A8
:10448000C442C0F600020B464FEAC3035B1A4FEA70
:104490008303D31803F118031A684FF4C053C4F20E
:1044A00000039A4253D0F97B46F6C442C0F600029C
:1044B0000B464FEAC3035B1A4FEA8303D31803F199
:1044C00018031A684FF4E053C4F200039A423ED036
:1044D000F97B46F6C442C0F600020B464FEAC3031E
:1044E0005B1A4FEA8303D31803F118031A684FF4D9
:1044F0000053C4F200039A4229D0F97B46F6C44225
:10450000C0F600020B464FEAC3035B1A4FEA83036F
:10451000D31803F118031A684FF48053C4F2000350
:104520009A4214D0F97B46F6C442C0F600020B460C
:104530004FEAC3035B1A4FEA8303D31803F118034E
:104540001A684FF4A053C4F200039A420BD14FF6FD
:10455000FF737B6107E0BB694FEA4303BB61FB6903
:104560004FEA5303FB61FA697B699A42F3D2FB7B02
:104570001846F969BA6900F02FFCFB7B1846F96907
:104580007A6800F06DFCF97B46F6C442C0F6000282
:104590000B464FEAC3035B1A4FEA8303D31803F1B8
:1045A00010031B79012B20D1F97B46F6C442C0F6DB
:1045B00000020B464FEAC3035B1A4FEA8303D3188A
:1045C00003F118031868F97B46F6C442C0F60002EE
:1045D0000B464FEAC3035B1A4FEA8303D31803F178
:1045E00010031B68194600F027FDF97B46F6C4420C
:1045F000C0F600020B464FEAC3035B1A4FEA83037F
:10460000D31803F118031B6818464FF0010101F09D
:1046100009F8F97B46F6C442C0F600020B464FEAA1
:10462000C3035B1A4FEA8303D31803F110035B79CA
:10463000012B04D1FB7B1846FFF73AFB33E0F97BF3
:1046400046F6C442C0F600020B464FEAC3035B1AAB
:104650004FEA8303D31803F118031B68184600F0D0
:10466000E3FA03461C46F97B46F6C442C0F6000254
:104670000B464FEAC3035B1A4FEA8303D31803F1D7
:1046800010031B68184600F06FFB034640F65042CB
:10469000C2F200024FEA8401CB184FEAC303D318D9
:1046A0004FF000025A71F97B46F6C442C0F6000290
:1046B0000B464FEAC3035B1A4FEA8303D31803F197
:1046C00018031B68184600F0AFFA03461C46F97B36
:1046D00046F6C442C0F600020B464FEAC3035B1A1B
:1046E0004FEA8303D31803F110031B68184600F048
:1046F0003BFB03461A4640F65043C2F200034FEA22
:1047000084018A18F96943F83210F97B46F6C442ED
:10471000C0F600020B464FEAC3035B1A4FEA83035D
:10472000D31803F118031B68184600F07DFA0346FE
:104730001C46F97B46F6C442C0F600020B464FEA1F
:10474000C3035B1A4FEA8303D31803F110031B68FA
:10475000184600F009FB034640F65042C2F2000240
:104760004FEA8401CB184FEAC303D3184FF001027C
:104770009A714FF00203184607F12407BD4690BD19
:1047800090B583B000AF0346FB71F97946F6C44299
:10479000C0F600020B464FEAC3035B1A4FEA8303DD
:1047A000D31803F118031B68184600F087FDF97948
:1047B00046F6C442C0F600020B464FEAC3035B1A3A
:1047C0004FEA8303D31803F118031B68184600F05F
:1047D0002BFA03461C46F97946F6C442C0F600029D
:1047E0000B464FEAC3035B1A4FEA8303D31803F166
:1047F00010031B68184600F0B7FA03461A4640F645
:104800005043C2F200034FEA84018A184FF00001BE
:1048100043F83210F97946F6C442C0F600020B465E
:104820004FEAC3035B1A4FEA8303D31803F118035B
:104830001B68184600F0F8F903461C46F97946F65D
:10484000C442C0F600020B464FEAC3035B1A4FEAAC
:104850008303D31803F110031B68184600F084FA91
:10486000034640F65042C2F200024FEA8401CB18E0
:104870004FEAC303D3184FF000025A71F97946F694
:10488000C442C0F600020B464FEAC3035B1A4FEA6C
:104890008303D31803F118031B68184600F0C4F90A
:1048A00003461C46F97946F6C442C0F600020B46A0
:1048B0004FEAC3035B1A4FEA8303D31803F11003D3
:1048C0001B68184600F050FA034640F65042C2F208
:1048D00000024FEA8401CB184FEAC303D3184FF00C
:1048E00000029A7107F10C07BD4690BD90B587B0E4
:1048F00000AF0346B9607A60FB73F97B46F6C442A9
:10490000C0F600020B464FEAC3035B1A4FEA83036B
:10491000D31803F118031B68184600F085F9034605
:104920001C46F97B46F6C442C0F600020B464FEA2D
:10493000C3035B1A4FEA8303D31803F110031B6808
:10494000184600F011FA034640F65042C2F2000247
:104950004FEA8401CB184FEAC303D3185B79FB7588
:10496000FB7D002B08D1BB684FF000021A607B680A
:104970004FF000021A706CE0F97B46F6C442C0F6B4
:1049800000020B464FEAC3035B1A4FEA8303D318B6
:1049900003F118031B68184600F046F903461C464D
:1049A000F97B46F6C442C0F600020B464FEAC30349
:1049B0005B1A4FEA8303D31803F110031B681846F0
:1049C00000F0D2F903461A4640F65043C2F2000303
:1049D0004FEA84018A1853F83220BB681A60F97BC9
:1049E00046F6C442C0F600020B464FEAC3035B1A08
:1049F0004FEA8303D31803F118031B68184600F02D
:104A000013F903461C46F97B46F6C442C0F6000281
:104A10000B464FEAC3035B1A4FEA8303D31803F133
:104A200010031B68184600F09FF9034640F65042F9
:104A3000C2F200024FEA8401CB184FEAC303D31835
:104A40001A797B681A70BB681B684FEA5302BB680F
:104A50001A6007F11C07BD4690BD00BF80B400AFCF
:104A600000BFBD4680BC704780B400AF00BFBD46EC
:104A700080BC704780B400AF00BFBD4680BC7047AB
:104A800080B582B000AF78607B684FF4C052C4F24A
:104A90000002934200F0AE804FF4C052C4F2000214
:104AA000934228D84FF40062C4F20002934269D0C6
:104AB0004FF40062C4F20002934209D8B3F1804F70
:104AC00052D04FF48062C4F20002934253D0A6E069
:104AD0004FF48052C4F20002934261D04FF4A052CE
:104AE000C4F20002934262D04FF44062C4F200026A
:104AF00093424ED093E04FF48062C4F2010293429D
:104B00005CD04FF48062C4F20102934212D84FF499
:104B10000052C4F2000293427AD04FF00002C4F275
:104B20000102934219D04FF4E052C4F200029342C2
:104B300067D074E04FF48842C4F2010293424BD034
:104B40004FF49042C4F2010293424CD04FF48042A1
:104B5000C4F20102934238D061E04FF001004FF0FF
:104B60000101FCF7A1FB5AE04FF001004FF00101F9
:104B7000FCF79AFB53E04FF002004FF00101FCF705
:104B800093FB4CE04FF004004FF00101FCF78CFB6D
:104B900045E04FF008004FF00101FCF785FB3EE0D7
:104BA0004FF010004FF00101FCF77EFB37E04FF0B3
:104BB00020004FF00101FCF777FB30E04FF00200DE
:104BC0004FF00101FCF770FB29E04FF480304FF00B
:104BD0000101FCF769FB22E04FF400304FF00101C6
:104BE000FCF762FB1BE04FF480204FF00101FCF763
:104BF0005BFB14E04FF040004FF00101FCF754FB69
:104C00000DE04FF080004FF00101FCF74DFB06E096
:104C10004FF480704FF00101FCF746FB00BF07F135
:104C20000807BD4680BD00BF80B483B000AF786088
:104C30007B684FF4C052C4F20002934200F08280BD
:104C40004FF4C052C4F20002934228D84FF40062DD
:104C5000C4F2000293425DD04FF40062C4F200023D
:104C6000934209D8B3F1804F4ED04FF48062C4F222
:104C7000000293424BD06EE04FF48052C4F2000227
:104C800093424DD04FF4A052C4F2000293424AD056
:104C90004FF44062C4F2000293423ED05BE04FF416
:104CA0008062C4F20102934240D04FF48062C4F2A9
:104CB0000102934212D84FF40052C4F20002934210
:104CC00046D04FF00002C4F20102934219D04FF4D3
:104CD000E052C4F20002934237D03CE04FF48842E5
:104CE000C4F20102934227D04FF49042C4F2010271
:104CF000934224D04FF48042C4F20102934218D070
:104D000029E04FF0000328E04FF0010325E04FF0C9
:104D1000020322E04FF003031FE04FF004031CE006
:104D20004FF0050319E04FF0060316E04FF00703BC
:104D300013E04FF0080310E04FF009030DE04FF0CF
:104D40000A030AE04FF00B0307E04FF00C0304E006
:104D50004FF00D0301E04FF00F03184607F10C0769
:104D6000BD4680BC704700BF80B483B000AF7860A0
:104D70007B680C2B28D801A252F823F0B14D000813
:104D8000C94D0008C94D0008C94D0008B74D0008BD
:104D9000C94D0008C94D0008C94D0008BD4D0008A7
:104DA000C94D0008C94D0008C94D0008C34D000891
:104DB0004FF000030AE04FF0010307E04FF0020359
:104DC00004E04FF0030301E04FF00503184607F13C
:104DD0000C07BD4680BC704780B588B000AF034665
:104DE000B9607A60FB7307F11403184600F0FCFB0E
:104DF000F97B46F6C442C0F600020B464FEAC303F5
:104E00005B1A4FEA8303D31803F118031B68184693
:104E1000FFF736FE7B689BB2BB82BB68BB614FF07D
:104E20000003FB824FF00003BB83F97B46F6C442CC
:104E3000C0F600020B464FEAC3035B1A4FEA830336
:104E4000D31803F118031B681A4607F11403104620
:104E5000194600F04FFB07F12007BD4680BD00BF9B
:104E600090B58DB000AF0346B9607A60FB7307F16F
:104E70001003184600F008FE4FF000037B824FF04D
:104E80000003BB834FF060033B82F97B46F6C442CC
:104E9000C0F600020B464FEAC3035B1A4FEA8303D6
:104EA000D31803F118031B681846FFF7BDFE03462D
:104EB0001C46F97B46F6C442C0F600020B464FEA98
:104EC000C3035B1A4FEA8303D31803F110031B6873
:104ED0001846FFF749FF03467A68D1B240F65042C0
:104EE000C2F200024FEA8400C3184FEAC303D3188A
:104EF0000A461A717B68632B02D9BB68BB6110E05C
:104F00007B68BA6802FB03F37B627A6A48F21F533C
:104F1000C5F2EB13A3FB02134FEA53137B627B6AC8
:104F2000BB61F97B46F6C442C0F600020B464FEA6D
:104F3000C3035B1A4FEA8303D31803F110031B6802
:104F40000C2B74D801A252F823F000BF814F000847
:104F50002F5000082F5000082F500008974F0008CE
:104F60002F5000082F5000082F500008AD4F0008A8
:104F70002F5000082F5000082F500008C34F000882
:104F800045F26563C0F60003FB6245F6DD23C0F61B
:104F90000003BB6220E045F26173C0F60003FB62D0
:104FA00045F61533C0F60003BB6215E045F68903EC
:104FB000C0F60003FB6245F65533C0F60003BB6242
:104FC0000AE045F6A913C0F60003FB6245F68D33EF
:104FD000C0F60003BB6200BFF97B46F6C442C0F6D0
:104FE00000020B464FEAC3035B1A4FEA8303D31850
:104FF00003F118031B68194607F11002FB6A084603
:1050000011469847F97B46F6C442C0F600020B46AB
:105010004FEAC3035B1A4FEA8303D31803F1180363
:105020001B681A46BB6A10464FF00801984707F103
:105030003407BD4690BD00BF80B582B000AF786038
:1050400039603B680C2B3DD801A252F823F000BF19
:1050500085500008C5500008C5500008C55000081C
:1050600095500008C5500008C5500008C5500008FC
:10507000A5500008C5500008C5500008C5500008DC
:10508000B55000087B6818464FF002014FF001024E
:1050900000F0F2FD7B6818464FF004014FF001026A
:1050A00000F0EAFD7B6818464FF008014FF001025E
:1050B00000F0E2FD7B6818464FF010014FF001024E
:1050C00000F0DAFD00BF07F10807BD4680BD00BF54
:1050D00090B58DB000AF0B463A600246FA71BB71D5
:1050E00007F11C0318464FF000014FF00C0200F0CE
:1050F00089FE07F10C0318464FF000014FF00F0234
:1051000000F080FEFB79002B02D0012B23D0C8E0F9
:10511000B97946F6C442C0F600020B464FEAC30313
:105120005B1A4FEA8303D3181B6818463968FCF7EB
:10513000DFFCB97946F6C442C0F600020B464FEADE
:10514000C3035B1A4FEA8303D3189B881846396858
:10515000FCF76EFDA6E0B97907F12C0207F12B03ED
:10516000084611461A46FFF7C1FBFB6A002B7FD0A9
:10517000FA6A40F2E7339A4232D8FB6A4FF064028F
:1051800002FB03F244F24023C0F20F03B3FBF2F33D
:1051900007F10C0210464FF0030146F6DC52C0F650
:1051A0000002FEF7B7F8386840494FF0090200F0F6
:1051B000EFFE07F10C03386819464FF00F0200F0BC
:1051C000E7FE3C68204600F0B3FE0346E21846F6D0
:1051D000E053C0F60003186810601B7913712BE0D0
:1051E000FA6A44F24023C0F20F03B3FBF2F307F173
:1051F0000C0210464FF0030146F6DC52C0F60002E6
:10520000FEF788F8386829494FF0090200F0C0FE1F
:1052100007F10C03386819464FF00F0200F0B8FE92
:105220003C68204600F084FE0346E21846F6E85348
:10523000C0F600031868106097F82B3007F11C02C5
:1052400010464FF00C0146F6EC52C0F60002FEF795
:1052500061F807F11C03386819464FF00C0200F0A2
:1052600097FE386812494FF0090200F091FE19E0EC
:10527000386810494FF0090200F08AFE3C68204669
:1052800000F056FE0346E21846F6F853C0F6000357
:1052900018681060386808494FF0090200F078FE7D
:1052A00000E000BF07F13407BD4690BD9A6D0008CD
:1052B000C76D0008916D0008D06D000880B582B000
:1052C00000AF78607A684FF00003C4F201039A429D
:1052D0000CD14FF001004FF00101FCF763F84FF0E3
:1052E00001004FF00001FCF75DF8FFE07B68B3F1CF
:1052F000804F0CD14FF001004FF00101FCF728F86E
:105300004FF001004FF00001FCF722F8EEE07A6860
:105310004FF48063C4F200039A420CD14FF00200B4
:105320004FF00101FCF714F84FF002004FF00001BC
:10533000FCF70EF8DAE07A684FF40063C4F2000379
:105340009A420CD14FF004004FF00101FCF700F835
:105350004FF004004FF00001FBF7FAFFC6E07A6857
:105360004FF44063C4F200039A420CD14FF008009E
:105370004FF00101FBF7ECFF4FF008004FF0000188
:10538000FBF7E6FFB2E07A684FF48053C4F2000303
:105390009A420CD14FF010004FF00101FBF7D8FFFB
:1053A0004FF010004FF00001FBF7D2FF9EE07A684B
:1053B0004FF4A053C4F200039A420CD14FF02000E6
:1053C0004FF00101FBF7C4FF4FF020004FF0000148
:1053D000FBF7BEFF8AE07A684FF48063C4F20103F2
:1053E0009A420CD14FF002004FF00101FBF7DAFFB7
:1053F0004FF002004FF00001FBF7D4FF76E07A682F
:105400004FF48043C4F201039A420CD14FF4803030
:105410004FF00101FBF7C6FF4FF480304FF0000161
:10542000FBF7C0FF62E07A684FF48843C4F20103DF
:105430009A420CD14FF400304FF00101FBF7B2FF5C
:105440004FF400304FF00001FBF7ACFF4EE07A68FC
:105450004FF49043C4F201039A420CD14FF48020E0
:105460004FF00101FBF79EFF4FF480204FF0000149
:10547000FBF798FF3AE07A684FF4C053C4F2000398
:105480009A420CD14FF040004FF00101FBF760FF52
:105490004FF040004FF00001FBF75AFF26E07A681A
:1054A0004FF4E053C4F200039A420CD14FF0800055
:1054B0004FF00101FBF74CFF4FF080004FF000016F
:1054C000FBF746FF12E07A684FF40053C4F2000382
:1054D0009A420BD14FF480704FF00101FBF738FF77
:1054E0004FF480704FF00001FBF732FF07F108071F
:1054F000BD4680BD80B485B000AF786039604FF0A4
:105500000003FB817B681B88FB817A684FF00003F6
:10551000C4F201039A421FD07A684FF48063C4F248
:1055200001039A4218D07B68B3F1804F14D07A6897
:105530004FF48063C4F200039A420DD07A684FF4AE
:105540000063C4F200039A4206D07A684FF44063C5
:10555000C4F200039A4208D1FB8923F07003FB8157
:105560003B685A88FB891343FB817A684FF4805368
:10557000C4F200039A420FD07A684FF4A053C4F2E9
:1055800000039A4208D0FB8923F44073FB813B68F7
:105590001A89FB891343FB817B68FA891A803B686F
:1055A0005A687B68DA623B681A887B681A857A6871
:1055B0004FF00003C4F201039A4206D07A684FF418
:1055C0008063C4F201039A4204D13B689B7A1A4675
:1055D0007B681A867B684FF001029A8207F11407F4
:1055E000BD4680BC704700BF80B483B000AF786018
:1055F0007B684FF0FF325A607B684FF000021A80E0
:105600007B684FF000021A817B684FF000025A80DD
:105610007B684FF000029A7207F10C07BD4680BC10
:10562000704700BF80B483B000AF78600B46FB705A
:10563000FB78002B08D07B681B889BB243F00103EA
:105640009AB27B681A8007E07B681B889BB223F0C4
:1056500001039AB27B681A8007F10C07BD4680BC33
:10566000704700BF80B485B000AF786039604FF0FC
:1056700000037B814FF00003FB814FF00003BB81EF
:105680007B681B8C9BB223F001039AB27B681A845F
:105690007B681B8CFB817B689B88BB817B681B8B39
:1056A0007B817B8923F070037B817B8923F003035B
:1056B0007B813B681A887B8913437B81FB8923F0BC
:1056C0000203FB813B689A89FB891343FB813B689A
:1056D0005A88FB891343FB817A684FF00003C4F2B8
:1056E00001039A4206D07A684FF48063C4F2010342
:1056F0009A4223D1FB8923F00803FB813B68DA89B6
:10570000FB891343FB81FB8923F00403FB813B6886
:105710009A88FB891343FB81BB8923F48073BB8187
:10572000BB8923F40073BB813B681A8ABB8913438E
:10573000BB813B685A8ABB891343BB817B68BA89AA
:105740009A807B687A891A833B689A687B685A6377
:105750007B68FA891A8407F11407BD4680BC70473C
:1057600080B485B000AF786039604FF000037B8172
:105770004FF00003FB814FF00003BB817B681B8C63
:105780009BB223F010039AB27B681A847B681B8C4F
:10579000FB817B689B88BB817B681B8B7B817B89C2
:1057A00023F4E0437B817B8923F440737B813B6856
:1057B0001B884FEA03239AB27B8913437B81FB89C1
:1057C00023F02003FB813B689B894FEA03139AB2C5
:1057D000FB891343FB813B685B884FEA03139AB252
:1057E000FB891343FB817A684FF00003C4F2010385
:1057F0009A4206D07A684FF48063C4F201039A4259
:105800002FD1FB8923F08003FB813B68DB894FEAC2
:1058100003139AB2FB891343FB81FB8923F04003F6
:10582000FB813B689B884FEA03139AB2FB891343C1
:10583000FB81BB8923F48063BB81BB8923F40063B4
:10584000BB813B681B8A4FEA83039AB2BB8913432F
:10585000BB813B685B8A4FEA83039AB2BB891343DF
:10586000BB817B68BA899A807B687A891A833B6896
:105870009A687B689A637B68FA891A8407F114072F
:10588000BD4680BC704700BF80B485B000AF786073
:1058900039604FF000037B814FF00003FB814FF034
:1058A0000003BB817B681B8C9BB223F480739AB28C
:1058B0007B681A847B681B8CFB817B689B88BB811F
:1058C0007B689B8B7B817B8923F070037B817B8949
:1058D00023F003037B813B681A887B8913437B8118
:1058E000FB8923F40073FB813B689B894FEA032308
:1058F0009AB2FB891343FB813B685B884FEA032321
:105900009AB2FB891343FB817A684FF00003C4F21B
:1059100001039A4206D07A684FF48063C4F201030F
:105920009A422FD1FB8923F40063FB813B68DB891A
:105930004FEA03239AB2FB891343FB81FB8923F4CB
:105940008063FB813B689B884FEA03239AB2FB8903
:105950001343FB81BB8923F48053BB81BB8923F4B0
:105960000053BB813B681B8A4FEA03139AB2BB8981
:105970001343BB813B685B8A4FEA03139AB2BB892E
:105980001343BB817B68BA899A807B687A899A8342
:105990003B689A687B68DA637B68FA891A8407F146
:1059A0001407BD4680BC704780B485B000AF7860F6
:1059B00039604FF00003BB814FF000037B814FF053
:1059C0000003FB817B681B8C9BB223F480539AB24B
:1059D0007B681A847B681B8C7B817B689B88FB813E
:1059E0007B689B8BBB81BB8923F4E043BB81BB8974
:1059F00023F44073BB813B681B884FEA03239AB2B0
:105A0000BB891343BB817B8923F400537B813B68B3
:105A10009B894FEA03339AB27B8913437B813B68AE
:105A20005B884FEA03339AB27B8913437B817A68A0
:105A30004FF00003C4F201039A4206D07A684FF493
:105A40008063C4F201039A420BD1FB8923F48043A3
:105A5000FB813B681B8A4FEA83139AB2FB8913438D
:105A6000FB817B68FA899A807B68BA899A833B6854
:105A70009A687B681A647B687A891A8407F114072C
:105A8000BD4680BC704700BF80B483B000AF786073
:105A90007B684FF000021A807B684FF000025A804A
:105AA0007B684FF000029A807B684FF000029A609A
:105AB0007B684FF000029A817B684FF00002DA8128
:105AC0007B684FF000021A827B684FF000025A8216
:105AD00007F10C07BD4680BC704700BF80B485B09D
