:020000040800F2
:10000000E01100206D0E0008D90E0008D90E00087E
:10001000D90E0008D90E0008D90E00080000000013
:10002000000000000000000000000000D90E0008E1
:10003000D90E000800000000D90E0008492600086B
:10004000D90E0008D90E0008D90E0008D90E0008F4
:10005000D90E0008D90E0008D90E0008D90E0008E4
:10006000D90E0008D90E0008D90E0008D90E0008D4
:10007000D90E0008D90E0008D90E0008D90E0008C4
:10008000D90E0008D90E0008D90E0008D90E0008B4
:10009000D90E0008D90E0008D90E0008D90E0008A4
:1000A000D90E0008D90E0008D90E0008D90E000894
:1000B00001480008DD110008D90E0008D90E00081B
:1000C000D90E0008D90E0008D90E0008D90E000874
:1000D000D90E0008D90E0008D90E0008D90E000864
:1000E000D90E0008D90E0008D90E0008D90E000854
:1000F000D90E0008D90E0008D90E0008D90E000844
:10010000D90E0008D90E0008D90E0008D90E000833
:10011000D90E0008D90E0008D90E0008D90E000823
:10012000D90E0008D90E0008D90E0008D90E000813
:10013000D90E0008D90E0008D90E0008D90E000803
:10014000D90E0008D90E0008D90E0008D90E0008F3
:10015000D90E0008D90E0008D90E0008F51C0008B9
:10016000D90E0008D90E0008D90E0008D90E0008D3
:10017000D90E0008D90E0008D90E0008D90E0008C3
:10018000D90E0008D90E000880B500AF40F2F06328
:10019000C2F200031B78012B17D0022B3BD0002B9F
:1001A00057D14FF0030044F620614FF0090203F0ED
:1001B00055FE4FF0030003F065FC40F2F063C2F21D
:1001C00000034FF002021A7046E04FF0030003F004
:1001D0005BFD4FF0030004F0A5F940F20103C2F209
:1001E00000031B781A4646F2F423C0F600039B5C1A
:1001F0004FF0030044F620611A4603F02FFE4FF043
:10020000030003F03FFC40F2F063C2F200034FF042
:1002100002021A7020E040F20003C2F200031A78D2
:1002200040F20103C2F200031B789A4213D040F25D
:100230000003C2F200031A7840F20103C2F2000385
:100240001A7040F2F063C2F200034FF001021A701C
:1002500001E000BF00E000BF80BD00BF80B483B0FC
:1002600000AF0346FB7140F20003C2F200031B78AB
:10027000FA799A420DD040F20103C2F200031B78D2
:10028000FA799A4205D040F20003C2F20003FA79EB
:100290001A7007F10C07BD4680BC7047B0B582B03C
:1002A00000AF0B463A600246FA71BB71FB79002B36
:1002B00000F0B280012B40F0AD8040F20103C2F2A9
:1002C00000031B78042B00F2A38001A252F823F054
:1002D000E5020008210300085D03000899030008F7
:1002E000D503000838684F494FF0090205F01AFE9F
:1002F0003C68204605F0E6FD0346E21846F2FC2382
:10030000C0F6000314461D460FCD20606160A26058
:10031000E360386844494FF0090205F003FE78E0D5
:10032000386842494FF0090205F0FCFD3C68204660
:1003300005F0C8FD0346E21846F20C33C0F6000390
:1003400014461D460FCD20606160A260E3603868EE
:1003500035494FF0090205F0E5FD5AE038683449A7
:100360004FF0090205F0DEFD3C68204605F0AAFDCD
:100370000346E21846F21C33C0F60003144607CBCE
:1003800020606160A2601B88A381386826494FF015
:10039000090205F0C7FD3CE0386824494FF0090226
:1003A00005F0C0FD3C68204605F08CFD0346E218D0
:1003B00046F22C33C0F6000314461D460FCD2060D4
:1003C0006160A260E360386817494FF0090205F0E8
:1003D000A9FD1EE0386813494FF0090205F0A2FD9F
:1003E0003C68204605F06EFD0346E21846F23C33B9
:1003F000C0F6000314461D460FCD20606160A26068
:10040000E360386808494FF0090205F08BFD00E011
:1004100000BF02E000BF00E000BF07F10807BD46D3
:10042000B0BD00BFD6620008DF620008BB620008F2
:10043000B262000880B582B000AF4FF00003FB71DC
:100440002BE0FB7940F20402C2F200024FEA4303C0
:10045000D3185B78184603F09BFA0346BB71BB794F
:10046000002B0BD0012B13D1FA7940F20403C2F216
:1004700000034FF0010103F812100AE0FA7940F28C
:100480000403C2F200034FF0000103F8121000E071
:1004900000BFFB7903F10103FB71FB79002BD0D086
:1004A00007F10807BD4680BD80B483B000AF0346A6
:1004B000FB71FB79012B02D94FF0020306E0FA79B8
:1004C00040F20403C2F2000313F81230184607F199
:1004D0000C07BD4680BC704790B583B000AF0B469B
:1004E0003A600246FA71BB71FB79002B02D0012BF6
:1004F00035D076E0BB7940F20402C2F200024FEA46
:100500004303D3185B78194646F24C32C0F600021A
:100510000B464FEAC3035B1A4FEA8303D3181B68E9
:100520001846396801F01CFDBB7940F20402C2F2A2
:1005300000024FEA4303D3185B78194646F24C3267
:10054000C0F600020B464FEAC3035B1A4FEA83036F
:10055000D3189B881846396801F0A2FD42E0BB79A8
:100560001846FFF7A1FF0346012B1CD138681F492D
:100570004FF0090205F0D6FC3C68204605F0A2FCCD
:100580000346E31846F26442C0F6000210681860A1
:100590009188927999809A71386815494FF00902CB
:1005A00005F0C0FC1EE0386812494FF0090205F062
:1005B000B9FC3C68204605F085FC0346E21846F28B
:1005C0006C43C0F6000303CB1060516019889B7820
:1005D00011819372386806494FF0090205F0A2FCB8
:1005E00000E000BF07F10C07BD4690BD2264000883
:1005F0004F6400082B64000880B58AB000AF7860B3
:1006000039604FF000037B624FF000033B624FF014
:100610000003FB614FF00003BB617B681B8A9BB248
:100620007B627B6A23F440537B623B68DB887A6A97
:1006300013437B627B6A9AB27B681A827B689B89D0
:100640009BB27B627B6A23F4B05323F00C037B6282
:100650003B689A883B681B8913439AB23B685B8965
:1006600013439BB27A6A13437B627B6A9AB27B68BC
:100670009A817B689B8A9BB27B627B6A23F440737E
:100680007B623B689B897A6A13437B627B6A9AB27E
:100690007B689A8207F10803184600F02DFF7A68FC
:1006A0004FF48053C4F201039A4206D07A684FF4A3
:1006B000A053C4F201039A4202D17B693B6201E07C
:1006C0003B693B627B689B899BB29BB21BB2002B50
:1006D0000FDA3A6A13464FEA83039B184FEA830204
:1006E0009A183B681B684FEA4303B2FBF3F3FB61C4
:1006F0000EE03A6A13464FEA83039B184FEA8302DF
:100700009A183B681B684FEA8303B2FBF3F3FB6163
:10071000FA6948F21F53C5F2EB13A3FB02134FEA29
:1007200053134FEA03137B627B6A4FEA13134FF0B4
:10073000640202FB03F3FA69D31ABB617B689B89ED
:100740009BB29BB21BB2002B12DABB694FEAC30308
:1007500003F1320248F21F53C5F2EB13A3FB02135D
:100760004FEA531303F007037A6A13437B6211E0E5
:10077000BB694FEA031303F1320248F21F53C5F27B
:10078000EB13A3FB02134FEA531303F00F037A6A30
:1007900013437B627B6A9AB27B681A8107F1280750
:1007A000BD4680BD80B485B000AF786039604FF041
:1007B0000003FB607B681B8A9BB2FB60FB6823F431
:1007C0007063FB603B681A883B685B8813439AB28E
:1007D0003B689B8813439AB23B68DB8813439BB208
:1007E000FA681343FB60FB689AB27B681A8207F1D0
:1007F0001407BD4680BC704780B483B000AF7860FA
:100800000B46FB70FB78002B08D07B689B899BB262
:1008100043F400539AB27B689A8107E07B689B8916
:100820009BB223F400539AB27B689A8107F10C07BC
:10083000BD4680BC704700BF80B483B000AF786015
:100840000B467B807B884FEAC3534FEAD3539AB25F
:100850007B689A8007F10C07BD4680BC704700BFDB
:1008600080B483B000AF78607B689B889BB24FEA0E
:10087000C3534FEAD3539BB2184607F10C07BD464A
:1008800080BC704780B485B000AF78600B467B8039
:100890004FF00003FB737B681B889AB27B88134080
:1008A0009BB2002B03D04FF00103FB7302E04FF02B
:1008B0000003FB73FB7B184607F11407BD4680BCA1
:1008C000704700BF80B500AF40F2FA63C2F2000388
:1008D0001B78002B02D0012B0AD013E000F048F85F
:1008E00003461A4640F2FA63C2F200031A700AE0A5
:1008F00000F02AF903461A4640F2FA63C2F20003F6
:100900001A7000E000BF80BD80B500AF40F2F86310
:10091000C2F200031B8803F101039AB240F2F863AC
:10092000C2F200031A8040F2F863C2F200031B888F
:10093000B3F5FA6F1AD14FF0030001F0B5FF02468C
:1009400040F2F463C2F200031A604FF0030001F0BA
:1009500063FF4FF003004FF47A7101F0E9FE40F2BB
:10096000F863C2F200034FF000021A8080BD00BF9E
:1009700090B5ABB000AF4FF00003C7F8A43046F21B
:10098000AC53C0F6000307F148011A464FF05A0372
:10099000084611461A4605F05DF94FF00003C7F806
:1009A000A43024E046F29053C0F60003D7F8A42008
:1009B00053F8223046F29C50C0F600004FF003017D
:1009C0001A4602F069FB07F14801D7F8A420134644
:1009D0004FEA03139B1A4FEA4303CB18184602F061
:1009E0005BFBD7F8A43003F10103C7F8A430D7F8B4
:1009F000A430022BD6D946F29C50C0F600004FF02E
:100A000004014FF0140202F047FB4FF00003C7F857
:100A1000A4300BE046F2A850C0F6000002F03CFB08
:100A2000D7F8A43003F10103C7F8A430D7F8A430F5
:100A30002C2BEFD94FF00003C7F8A43079E040F237
:100A40000803C2F20003D7F8A4204FF05C0101FBB9
:100A500002F29B1803F158031B78012B63D107F1B5
:100A6000040318464FF000014FF0110205F094F90D
:100A7000D7F8A43003F105031A4646F29053C0F6A6
:100A800000031B6846F29C50C0F6000011461A464F
:100A900002F002FBD7F8A4304FF05C0202FB03F235
:100AA00040F20803C2F20003D318184602F0F4FA29
:100AB000D7F8A43003F105031A4646F29053C0F666
:100AC00000035B6846F29C50C0F6000011461A46CF
:100AD00002F0E2FA40F20803C2F20003D7F8A420C1
:100AE0004FF05C0101FB02F29B1803F154031C68F8
:100AF00040F20803C2F20003D7F8A4204FF05C01D3
:100B000001FB02F29B1803F118039B791A4607F1C7
:100B100004034FF0000011461A46A04707F10403F2
:100B2000184602F0B9FAD7F8A43003F10103C7F868
:100B3000A430D7F8A430062B81D94FF00103184612
:100B400007F1AC07BD4690BD90B591B000AF4FF036
:100B5000000387F83F304FF00003BB634FF0000302
:100B6000BB63CFE040F20803C2F20003BA6B4FF060
:100B70005C0101FB02F29B1803F158031B78012B67
:100B800040F0BC803B4618464FF000014FF0320267
:100B900005F002F940F20803C2F20003BA6B4FF00D
:100BA0005C0101FB02F29B1803F154031C6840F244
:100BB0000803C2F20003BA6B4FF05C0101FB02F2C2
:100BC0009B1803F118039B791A463B464FF001002E
:100BD00011461A46A047BB6B4FF05C0202FB03F3C1
:100BE00003F1180240F20803C2F20003D31803F124
:100BF00007043B46184605F065F903463A46204689
:100C000011461A4605F0D2F90346002B76D0BB6B8D
:100C10004FF05C0202FB03F303F1180240F20803F9
:100C2000C2F20003D31803F107043B46184605F04F
:100C300049F903463A46204611461A4605F046FA57
:100C40003B46184605F03EF90446BB6B4FF05C028C
:100C500002FB03F303F1180240F20803C2F200039F
:100C6000D31803F10703184605F02CF90346E31ADD
:100C70007B637B6B002B2CDA4FF0000387F83F304F
:100C800020E03B46184605F01DF90346322B0DD0F7
:100C90003B46184605F016F903463A46D21846F286
:100CA0000863C0F600031B88138005E07B6BDBB292
:100CB000C3F1000387F83F3097F83F3003F1010399
:100CC00087F83F3097F83F207B6BC3F100039A42CF
:100CD000D7DBBB6B03F105031A4646F29053C0F60F
:100CE00000039B6846F29C50C0F6000011461A466D
:100CF00002F0D2F93B46184602F0CEF9BB6B03F185
:100D00000103BB63BB6B062B7FF62CAF4FF00103D7
:100D1000184607F14407BD4690BD00BF80B586B0B8
:100D200000AF0B463A600246FA71BB71FB79002BAB
:100D300047D0012B43D101F0ABFD78617A6940F2D5
:100D4000E7339A423FD97A6944F6D353C1F262033A
:100D5000A3FB02134FEA93133B613B693B2B24D95E
:100D60003A6948F68903C8F68803A3FB02134FEAE1
:100D70005313FB603A6948F68903C8F68803A3FB5E
:100D800002134FEA53110B464FEA03135B1A4FEA63
:100D90008303D31A3B61FA683B69386846F20C61F9
:100DA000C0F6000102F08EF90DE03B69386846F2AA
:100DB0001861C0F600011A4602F084F903E000BF92
:100DC00002E000BF00E000BF07F11807BD4680BD8C
:100DD00080B582B000AF0B463A600246FA71BB7133
:100DE000FB79002B3CD0012B38D140F2F463C2F2E6
:100DF00000031A6840F69F739A4215D940F2F463D3
:100E0000C2F200031A6844F6D353C1F26203A3FB93
:100E100002134FEAD313386846F22461C0F600018A
:100E20001A4602F04FF91CE040F2F463C2F20003EC
:100E30001B684FF47A7202FB03F244F6D353C1F2FB
:100E40006203A3FB02134FEAD313386846F22C6106
:100E5000C0F600011A4602F035F902E000BF00E0DA
:100E600000BF07F10807BD4680BD00BF80B582B056
:100E700000AF46F68073C0F600037B6040F20003CB
:100E8000C2F200033B600BE07B681A683B681A60A3
:100E90003B6803F104033B607B6803F104037B6060
:100EA0003A6840F2F063C2F200039A42ECD3084879
:100EB00008494FF000028842B8BF40F8042BFFF603
:100EC000FAAF00F0C3FA07F10807BD4680BD000085
:100ED000F0060020DC09002080B400AFFEE700BF70
:100EE00080B500AF40F2FC63C2F200031B78002B18
:100EF00002D0012B0CD02FE000F0AEF800F0C4F8C7
:100F000040F2FC63C2F200034FF001021A7026E0C7
:100F10004FF0020001F062FC0346032B1ED140F2A9
:100F20008C23C2F200031B78184602F0ABFD4FF091
:100F300002004FF03C0101F0FBFB40F28C23C2F2B7
:100F400000035B78184600F0B7F9024640F28C23A4
:100F5000C2F200035A6001E000BF00E000BF80BDA4
:100F600080B400AF40F28C23C2F200035B681846E5
:100F7000BD4680BC704700BF90B587B000AF0B4640
:100F80003A600246FA71BB7140F28C23C2F2000350
:100F90005B78BA799A4207D040F28C23C2F2000300
:100FA0001B78BA799A4252D1FB79002B02D0012BDF
:100FB00023D04CE0B97946F23462C0F600020B4609
:100FC0004FEAC3035B1A4FEA8303D3181B68184622
:100FD000396800F0C5FFB97946F23462C0F6000204
:100FE0000B464FEAC3035B1A4FEA8303D3189B886F
:100FF0001846396801F054F829E0BB79184600F02A
:101000005BF9034607F10C0210464FF0070146F268
:101010004C72C0F6000201F0C5FF07F10C03184640
:1010200004F050FF034607F10C02386811461A46D7
:1010300004F078FF3C68204604F044FF0346E218C1
:1010400046F25073C0F600031868106000BF07F145
:101050001C07BD4690BD00BF80B500AF40F28C2399
:10106000C2F200031B7818464FF028014FF0190216
:1010700002F0F4FE40F28C23C2F200031B78184603
:1010800002F000FD80BD00BF80B500AF40F28C23B0
:10109000C2F200035B78184643F6982100F002F88C
:1010A00080BD00BF80B588B000AF03463960FB71DA
:1010B0004FF00103FB614FF00103BB6146F61802DC
:1010C000C0F6000207F10C031068516803C31289CF
:1010D0001A80FB79062B02D94FF0010379E040F228
:1010E000DC63C2F200031A684DF68363C4F21B335B
:1010F000A3FB02134FEAD34303F1FF33FB613B68C9
:101100004FEA430303F1FF33BB61FB791846B9692A
:10111000FA6902F03DF8F97946F25472C0F600021D
:101120000B464FEAC3035B1A4FEA8303D31803F15C
:1011300018031B681A4607F10C031046194604F001
:1011400043FBF97946F25472C0F600020B464FEAAF
:10115000C3035B1A4FEA8303D31803F110031B790F
:10116000012B20D1F97946F25472C0F600020B46E9
:101170004FEAC3035B1A4FEA8303D31803F1180342
:101180001868F97946F25472C0F600020B464FEA2D
:10119000C3035B1A4FEA8303D31803F110031B68E0
:1011A000194600F099F8F97946F25472C0F6000237
:1011B0000B464FEAC3035B1A4FEA8303D31803F1CC
:1011C00018031B6818464FF0010103F0FBFF4FF0B6
:1011D0000003184607F12007BD4680BD80B500AF6B
:1011E00040F20073C2F200031B78012B4AD14FF486
:1011F0008060C4F2000004F03BFB024640F204733E
:10120000C2F200031A604FF48060C4F200004FF095
:1012100008014FF0000204F0D3FB40F20873C2F261
:1012200000031A6840F20473C2F200031B689A427A
:1012300010D940F20873C2F200031A6840F2047336
:10124000C2F200031B68D21A40F6D813C2F20003A0
:101250001A600FE040F20473C2F200031A6840F211
:101260000873C2F200031B68D21A40F6D813C2F208
:1012700000031A6040F20073C2F200034FF0000254
:101280001A7018E040F20073C2F200031B7803F1F9
:101290000103DAB240F20073C2F200031A704FF495
:1012A0008060C4F2000004F0E3FA024640F20873E2
:1012B000C2F200031A6080BD80B483B000AF034661
:1012C000FB7140F6D813C2F200031B68184607F101
:1012D0000C07BD4680BC704780B584B000AF786015
:1012E00039604FF01D033B734FF000037B734FF0E9
:1012F0000103BB734FF00103FB7307F10C031846A6
:1013000002F0D4FA3B680C2B3CD801A252F823F02F
:10131000451300088513000885130008851300088D
:10132000551300088513000885130008851300086D
:10133000651300088513000885130008851300084D
:10134000751300087B6818464FF002014FF0000249
:1013500004F036FB7B6818464FF004014FF00002A2
:1013600004F02EFB7B6818464FF008014FF0000296
:1013700004F026FB7B6818464FF010014FF0000286
:1013800004F01EFB07F11007BD4680BD80B483B09A
:1013900000AF03463960FB7197F90730002B10DA74
:1013A0004FF46D43CEF20003FA7902F00F02A2F17E
:1013B00004013A68D2B24FEA0212D2B25B181A762E
:1013C0000DE04FF46143CEF2000397F907103A683D
:1013D000D2B24FEA0212D2B25B1883F8002307F1AF
:1013E0000C07BD4680BC704780B582B000AF786006
:1013F0007A686FF07F439A4202D94FF001031FE0F1
:101400004EF21003CEF200037A6822F07F4202F11E
:10141000FF325A604FF0FF304FF00F01FFF7B6FF79
:101420004EF21003CEF200034FF000029A604EF22B
:101430001003CEF200034FF007021A604FF00003D2
:10144000184607F10807BD4680BD00BF80B582B0D1
:1014500000AF4FF00003FB714FF00003BB7100F0D1
:10146000CFFC01F011F940F2DC63C2F200031A680C
:1014700044F6D353C1F26203A3FB02134FEA931362
:101480001846FFF7B1FF4FF00003FB714FF000006B
:10149000FEF7E4FE4FF003004FF47A7101F048F9D3
:1014A00001F028FA01F08CFF4FF0040001F096F9EA
:1014B0000346032B07D14FF004004FF0320101F037
:1014C00037F9FFF7FFF9FFF71FFA4FF0010001F0BE
:1014D00085F90346032B07D1FEF7ACFF4FF001005F
:1014E0004FF00A0101F024F9FEF74EFEFFF7F8FC79
:1014F00002F0B6F9D4E700BF80B489B000AF7860DD
:101500004FF00003BB614FF000037B614FF000031D
:10151000FB614FF002033B614FF00003FB604FF0B3
:101520000203BB604FF46053C4F202039B6803F0F4
:101530000C03BB61BB69042B0AD0082B0FD0002B16
:1015400060D17A684FF41053C0F2F403136060E086
:101550007A6847F64003C0F27D13136059E04FF4F8
:101560006053C4F202035B6803F480034FEA9353B1
:10157000FB604FF46053C4F202035B6803F03F0367
:10158000BB60FB68002B14D047F64003C0F27D130C
:10159000BA68B3FBF2F24FF46053C4F20203596825
:1015A00047F6C0730B404FEA931303FB02F3FB6152
:1015B00013E04FF41053C0F2F403BA68B3FBF2F235
:1015C0004FF46053C4F20203596847F6C0730B40EE
:1015D0004FEA931303FB02F3FB614FF46053C4F231
:1015E00002035B6803F440334FEA134303F1010342
:1015F0004FEA43033B61FA693B69B2FBF3F27B6854
:101600001A6006E07A684FF41053C0F2F4031360D6
:1016100000BF4FF46053C4F202039B6803F0F00371
:10162000BB61BB694FEA1313BB6140F29823C2F25E
:101630000003BA699B181B78DBB27B617B681A6870
:101640007B6922FA03F27B685A604FF46053C4F25C
:1016500002039B6803F4E053BB61BB694FEA932329
:10166000BB6140F29823C2F20003BA699B181B7851
:10167000DBB27B617B685A687B6922FA03F27B6884
:101680009A604FF46053C4F202039B6803F4604312
:10169000BB61BB694FEA5333BB6140F29823C2F28E
:1016A0000003BA699B181B78DBB27B617B685A68C0
:1016B0007B6922FA03F27B68DA6007F12407BD46F2
:1016C00080BC704780B483B000AF78600B46FB707D
:1016D000FB78002B0CD04FF46053C4F202034FF49C
:1016E0006052C4F20202116B7A680A431A630DE079
:1016F0004FF46053C4F202034FF46052C4F202028A
:10170000116B7A686FEA02020A401A6307F10C074C
:10171000BD4680BC704700BF80B483B000AF786026
:101720000B46FB70FB78002B0CD04FF46053C4F2D7
:1017300002034FF46052C4F20202116C7A680A4349
:101740001A640DE04FF46053C4F202034FF4605288
:10175000C4F20202116C7A686FEA02020A401A644B
:1017600007F10C07BD4680BC704700BF80B483B052
:1017700000AF78600B46FB70FB78002B0CD04FF469
:101780006053C4F202034FF46052C4F20202516C7F
:101790007A680A435A640DE04FF46053C4F20203BE
:1017A0004FF46052C4F20202516C7A686FEA02028E
:1017B0000A405A6407F10C07BD4680BC704700BF61
:1017C00080B483B000AF78600B46FB70FB78002BD1
:1017D0000CD04FF46053C4F202034FF46052C4F2D1
:1017E0000202116A7A680A431A620DE04FF46053EC
:1017F000C4F202034FF46052C4F20202116A7A6822
:101800006FEA02020A401A6207F10C07BD4680BC6B
:10181000704700BF80B483B000AF78600B46FB70A8
:10182000FB78002B0CD04FF46053C4F202034FF44A
:101830006052C4F20202516A7A680A435A620DE0A9
:101840004FF46053C4F202034FF46052C4F2020238
:10185000516A7A686FEA02020A405A6207F10C077D
:10186000BD4680BC704700BF80B58AB000AF0B4654
:101870003A600246FA71BB7146F6E802C0F6000211
:1018800007F11C031068516803C307F10C034FF004
:1018900000021A6003F104034FF000021A6003F122
:1018A00004034FF000021A6003F104034FF000023A
:1018B0001A6003F104033B68FB60F97946F62402E1
:1018C000C0F600020B464FEAC3035B1A4FEA8303DC
:1018D000D31803F118031A684FF48053C4F20103BC
:1018E0009A4241D0F97946F62402C0F600020B462E
:1018F0004FEAC3035B1A4FEA8303D31803F11803BB
:101900001A684FF48843C4F200039A422CD0F97944
:1019100046F62402C0F600020B464FEAC3035B1AE8
:101920004FEA8303D31803F118031A684FF4904366
:10193000C4F200039A4217D0F97946F62402C0F6A1
:1019400000020B464FEAC3035B1A4FEA8303D31826
:1019500003F118031A684FF4A053C4F201039A422A
:1019600002D04FF0050360E1F97946F62402C0F693
:1019700000020B464FEAC3035B1A4FEA8303D318F6
:1019800003F118031B68184600F000FA03461A46D4
:1019900040F20C73C2F200034FF02C0101FB02F283
:1019A0009B181B78012B02D14FF006033DE1FB7918
:1019B000002B6BD0BB79002B68D04FF00C03FB825F
:1019C000F97946F62402C0F600020B464FEAC3033B
:1019D0005B1A4FEA8303D31803F118031868B97927
:1019E00046F62402C0F600020B464FEAC3035B1A18
:1019F0004FEA8303D31803F118031B68984202D0FF
:101A00004FF0020311E1F97946F62402C0F6000214
:101A10000B464FEAC3035B1A4FEA8303D31803F163
:101A200018031B68184600F0B1F903461A4640F245
:101A30000C73C2F200034FF02C0101FB02F29B1861
:101A400003F12803FA795A70B97946F62402C0F6F0
:101A500000020B464FEAC3035B1A4FEA8303D31815
:101A600003F118031B68184600F090F903461A4664
:101A700040F20C73C2F200034FF02C0101FB02F2A2
:101A80009B1803F12803BA791A7010E0FB79002B38
:101A900003D04FF00803FB8209E0BB79002B03D091
:101AA0004FF00403FB8202E04FF00303BDE0F9793D
:101AB00046F62402C0F600020B464FEAC3035B1A47
:101AC0004FEA8303D31803F118031B68184600F08C
:101AD00017F9F97946F62402C0F600020B464FEAE0
:101AE000C3035B1A4FEA8303D31803F118031B687F
:101AF0001A4607F10C0310461946FEF77DFDF979E9
:101B000046F62402C0F600020B464FEAC3035B1AF6
:101B10004FEA8303D31803F118031B681A4607F131
:101B20001C0310461946FEF73DFEBB79002B25D05D
:101B3000B97946F62402C0F600020B464FEAC30309
:101B40005B1A4FEA8303D31803F110031B79012BAF
:101B500014D14FF0470387F824304FF0000387F883
:101B600025304FF0000387F826304FF0010387F847
:101B7000273007F12403184601F098FEF97946F65C
:101B80002402C0F600020B464FEAC3035B1A4FEA79
:101B90008303D31803F118031B6818464FF00101A3
:101BA000FEF72AFEF97946F62402C0F600020B463B
:101BB0004FEAC3035B1A4FEA8303D31803F11803F8
:101BC0001B68184600F0E2F803461A4640F20C7310
:101BD000C2F200034FF02C0101FB02F29B184FF000
:101BE00001021A70F97946F62402C0F600020B468B
:101BF0004FEAC3035B1A4FEA8303D31803F11803B8
:101C00001B68184600F0C2F803461A4640F20C73EF
:101C1000C2F200034FF02C0101FB02F29B1803F10A
:101C200004033A681A604FF00003184607F12807CA
:101C3000BD4680BD80B584B000AF39601346024612
:101C4000FA71BB804FF00003FB8149E048F2A063CA
:101C5000C0F20103BB6003E0BB6803F1FF33BB606C
:101C6000F97946F62402C0F600020B464FEAC30398
:101C70005B1A4FEA8303D31803F118031B68184655
:101C80004FF08001FEF7FEFD0346012B02D0BB683A
:101C9000002BE1D1BB68002B02D14FF0040324E0FC
:101CA000F97946F62402C0F600020B464FEAC30358
:101CB0005B1A4FEA8303D31803F118031B681A4613
:101CC000FB893968CB181B78F98901F10101F98189
:101CD00010461946FEF7B0FDBB8803F1FF33BB8009
:101CE000BB88002BB2D14FF00003184607F1100754
:101CF000BD4680BD80B400AFBD4680BC704700BF0C
:101D000080B582B000AF78607B684FF49042C4F237
:101D10000002934227D04FF49042C4F20002934253
:101D200006D84FF48842C4F20002934214D028E04F
:101D30004FF48052C4F20102934206D04FF4A052F5
:101D4000C4F20102934215D01BE04FF010004FF097
:101D50000101FFF70BFD14E04FF400304FF00101DB
:101D6000FFF704FD0DE04FF480204FF00101FFF775
:101D7000FDFC06E04FF020004FF00101FFF7F6FCFC
:101D800000BF07F10807BD4680BD00BF80B483B027
:101D900000AF78607B684FF49042C4F20002934237
:101DA0001FD04FF49042C4F20002934206D84FF481
:101DB0008842C4F20002934210D018E04FF48052DF
:101DC000C4F20102934206D04FF4A052C4F20102C1
:101DD000934209D00BE04FF000030AE04FF00103FB
:101DE00007E04FF0020304E04FF0030301E04FF07F
:101DF0000503184607F10C07BD4680BC704700BFBD
:101E000090B587B000AF01F073FC4FF00103FB7594
:101E10009DE0F97D46F6F002C0F600020B464FEA5F
:101E2000C3035B1A4FEA8303D3181B683B61F97D38
:101E300046F6F002C0F600020B464FEAC3035B1AF7
:101E40004FEA8303D3189B887B60F97D46F6F00246
:101E5000C0F600020B464FEAC3035B1A4FEA830346
:101E6000D3189B793B72F97D46F6F002C0F600026A
:101E70000B464FEAC3035B1A4FEA8303D31803F1FF
:101E800008035B78BB72F97D46F6F002C0F60002EB
:101E90000B464FEAC3035B1A4FEA8303D31803F1DF
:101EA00008039B78FB72F97D46F6F002C0F600024B
:101EB0000B464FEAC3035B1A4FEA8303D31803F1BF
:101EC00008031B787B72386900F010FA3B7A022B0A
:101ED00033D1F97D46F6F002C0F600020B464FEA18
:101EE000C3035B1A4FEA8303D3189B88184600F09C
:101EF00027FBF860F97D46F6F002C0F600020B46BB
:101F00004FEAC3035B1A4FEA8303D3181868FB68D0
:101F10009CB2F97D46F6F002C0F600020B464FEA8D
:101F2000C3035B1A4FEA8303D31803F10C031B6846
:101F3000DBB221461A4601F087FB07F1040338693A
:101F4000194601F0A3FAFB7D03F10103FB75FB7D4C
:101F5000062B7FF65EAF07F11C07BD4690BD00BFA4
:101F600080B483B000AF786039607B684FF48052F2
:101F7000C4F20202934265D04FF48052C4F20202CE
:101F800093421FD84FF48062C4F20202934241D0C0
:101F90004FF48062C4F20202934206D84FF000026E
:101FA000C4F2020293422DD074E04FF40062C4F2F6
:101FB0000202934236D04FF44062C4F202029342CE
:101FC00038D067E04FF4C052C4F20202934249D0C5
:101FD0004FF4C052C4F20202934206D84FF4A0520A
:101FE000C4F20202934235D054E04FF4E052C4F2FE
:101FF000020293423ED04FF40052C4F202029342D6
:1020000040D047E03A6846F6B413C0F600031868BB
:1020100010603FE03A6846F6B813C0F6000318684F
:10202000106037E03A6846F6BC13C0F60003186843
:1020300010602FE03A6846F6C013C0F60003186837
:10204000106027E03A6846F6C413C0F6000318682B
:1020500010601FE03A6846F6C813C0F6000318681F
:10206000106017E03A6846F6CC13C0F60003186813
:1020700010600FE03A6846F6D013C0F60003186807
:10208000106007E03A6846F6D413C0F600031868FB
:10209000106000BF07F10C07BD4680BC704700BF51
:1020A00090B583B000AF03463960FB80FB88802B7E
:1020B00000F09780802B11DC082B5ED0082B06DC0B
:1020C000022B40D0042B4BD0012B2FD00AE1202B28
:1020D0006DD0402B78D0102B5CD003E1B3F5006FAE
:1020E00000F0B580B3F5006F0BDCB3F5007F00F0B6
:1020F0009280B3F5806F00F09B80B3F5807F7DD038
:10210000F0E0B3F5005F00F0C080B3F5005F04DCE1
:10211000B3F5805F00F0AA80E4E0B3F5804F00F0F3
:10212000C380B3F5004F00F0CE80DBE03C68204672
:1021300003F0C8FE0346E21846F6D813C0F60003C3
:102140001B881380CEE03C68204603F0BBFE0346AC
:10215000E21846F6DC13C0F600031B881380C1E0CA
:102160003C68204603F0AEFE0346E21846F6E01354
:10217000C0F600031B881380B4E03C68204603F0DF
:10218000A1FE0346E21846F6E413C0F600031B88DE
:102190001380A7E03C68204603F094FE0346E21853
:1021A00046F6E813C0F600031B8813809AE03C68EB
:1021B000204603F087FE0346E21846F6EC13C0F60D
:1021C00000031B8813808DE03C68204603F07AFEF4
:1021D0000346E21846F6F013C0F600031B8813808E
:1021E00080E03C68204603F06DFE0346E21846F6A8
:1021F000F413C0F600031B88138073E03C6820468C
:1022000003F060FE0346E21846F6F813C0F600033A
:102210001B88138066E03C68204603F053FE0346AB
:10222000E21846F6FC13C0F600031B88138059E041
:102230003C68204603F046FE0346E21846F60023BB
:10224000C0F6000319889B78118093704AE03C68BF
:10225000204603F037FE0346E21846F60423C0F694
:10226000000319889B78118093703BE03C682046FE
:1022700003F028FE0346E21846F60823C0F60003E2
:1022800019889B78118093702CE03C68204603F0FD
:1022900019FE0346E21846F60C23C0F6000319881F
:1022A0009B78118093701DE03C68204603F00AFE85
:1022B0000346E21846F61023C0F6000319889B78FF
:1022C000118093700EE03C68204603F0FBFD03464E
:1022D000E21846F61423C0F6000319889B78118093
:1022E000937000BF07F10C07BD4690BD80B582B06A
:1022F00000AF78607B684FF48052C4F202029342D0
:1023000000F0A0804FF48052C4F2020293421FD822
:102310004FF48062C4F20202934252D04FF48062C2
:10232000C4F20202934206D84FF00002C4F2020245
:10233000934230D000E14FF40062C4F202029342B3
:1023400055D04FF44062C4F20202934265D0F3E0EC
:102350004FF4C052C4F20202934200F09D804FF449
:10236000C052C4F20202934206D84FF4A052C4F203
:10237000020293427BD0DFE04FF4E052C4F202024B
:10238000934200F09E804FF40052C4F20202934246
:1023900000F0AC80D0E040F2BC73C2F200031B78C6
:1023A000002B40F0B8804FF001004FF00101FFF723
:1023B00089F940F2BC73C2F200034FF001021A70B7
:1023C000A9E040F2BC73C2F200035B78002B40F03E
:1023D000A4804FF002004FF00101FFF773F940F2C3
:1023E000BC73C2F200034FF001025A7095E040F254
:1023F000BC73C2F200039B78002B40F090804FF03A
:1024000004004FF00101FFF75DF940F2BC73C2F226
:1024100000034FF001029A7081E040F2BC73C2F2F7
:102420000003DB78002B7CD14FF008004FF0010156
:10243000FFF748F940F2BC73C2F200034FF001020B
:10244000DA706EE040F2BC73C2F200031B79002B1D
:1024500069D14FF010004FF00101FFF733F940F25E
:10246000BC73C2F200034FF001021A715BE040F24C
:10247000BC73C2F200035B79002B56D14FF02000F1
:102480004FF00101FFF71EF940F2BC73C2F20003E6
:102490004FF001025A7148E040F2BC73C2F20003EF
:1024A0009B79002B43D14FF040004FF00101FFF723
:1024B00009F940F2BC73C2F200034FF001029A71B5
:1024C00035E040F2BC73C2F20003DB79002B30D15F
:1024D0004FF080004FF00101FFF7F4F840F2BC73B9
:1024E000C2F200034FF00102DA7122E040F2BC7345
:1024F000C2F200031B7A002B1DD14FF480704FF005
:102500000101FFF7DFF840F2BC73C2F200034FF0A5
:1025100001021A720FE000BF0EE000BF0CE000BF26
:102520000AE000BF08E000BF06E000BF04E000BF13
:1025300002E000BF00E000BF07F10807BD4680BD14
:1025400080B485B000AF0346FB80FB88802B50D061
:10255000802B11DC082B3CD0082B06DC022B30D062
:10256000042B32D0012B28D067E0202B39D0402B10
:102570003BD0102B31D060E0B3F5006F49D0B3F5FC
:10258000006F09DCB3F5007F3BD0B3F5806F3CD022
:10259000B3F5807F31D050E0B3F5005F41D0B3F5A3
:1025A000005F03DCB3F5805F37D046E0B3F5804FC2
:1025B0003BD0B3F5004F3CD03FE04FF00003FB6051
:1025C0003BE04FF00103FB6037E04FF00203FB609C
:1025D00033E04FF00303FB602FE04FF00403FB6098
:1025E0002BE04FF00503FB6027E04FF00603FB6094
:1025F00023E04FF00703FB601FE04FF00803FB6090
:102600001BE04FF00903FB6017E04FF00A03FB608B
:1026100013E04FF00B03FB600FE04FF00C03FB6087
:102620000BE04FF00D03FB6007E04FF00E03FB6083
:1026300003E04FF00F03FB6000BFFB68184607F193
:102640001407BD4680BC704780B400AF40F2C87329
:10265000C2F200031B6803F1010240F2C873C2F228
:1026600000031A6040F2C873C2F200031B68B3F1A2
:10267000FF3F06D140F2C873C2F200034FF00002E0
:102680001A60BD4680BC704780B483B000AF4FF085
:102690000003FB7143E0F97940F2CC72C2F2000210
:1026A0000B464FEA43035B184FEA8303D3184FF0FE
:1026B00000021A70F97940F2CC72C2F200020B46A5
:1026C0004FEA43035B184FEA8303D3184FF003022A
:1026D0005A70F97940F2CC72C2F200020B464FEA0E
:1026E00043035B184FEA8303D31803F104034FF04D
:1026F00000021A60F97940F2CC72C2F200020B4675
:102700004FEA43035B184FEA8303D31803F108032E
:102710004FF000021A60FB7903F10103FB71FB79B2
:10272000052BB8D907F10C07BD4680BC704700BF28
:1027300080B483B000AF03463960FB71FB79052B91
:1027400047D8F97940F2CC72C2F200020B464FEA48
:1027500043035B184FEA8303D3184FF001021A704A
:10276000F97940F2CC72C2F200020B464FEA430301
:102770005B184FEA8303D3184FF002025A70F979BD
:1027800040F2C873C2F200031A683B68D01840F2E6
:10279000CC72C2F200020B464FEA43035B184FEAC9
:1027A0008303D31803F104031860F97940F2C87366
:1027B000C2F20003186840F2CC72C2F200020B466B
:1027C0004FEA43035B184FEA8303D31803F108036E
:1027D000186007F10C07BD4680BC704780B483B019
:1027E00000AF0346FB71FB79052B0DD8F97940F258
:1027F000CC72C2F200020B464FEA43035B184FEA69
:102800008303D3185B7801E04FF00003184607F10B
:102810000C07BD4680BC704780B483B000AF034650
:10282000FB71FB79052B2ED8F97940F2CC72C2F2FC
:1028300000020B464FEA43035B184FEA8303D318A9
:102840004FF000021A70F97940F2CC72C2F2000225
:102850000B464FEA43035B184FEA8303D3184FF04C
:1028600003025A70F97940F2CC72C2F200020B46B0
:102870004FEA43035B184FEA8303D31803F10403C1
:102880004FF000021A6007F10C07BD4680BC70478C
:1028900080B400AF40F2C873C2F200031B68184650
:1028A000BD4680BC704700BF80B483B000AF034614
:1028B000FB71FB79052B15D840F2C873C2F20003F7
:1028C0001868F97940F2CC72C2F200020B464FEA66
:1028D00043035B184FEA8303D31803F108031B6813
:1028E000C31A01E04FF00003184607F10C07BD467C
:1028F00080BC704780B483B000AF4FF00003FB7121
:1029000046E0F97940F2CC72C2F200020B464FEA7F
:1029100043035B184FEA8303D3181B78012B33D191
:10292000F97940F2CC72C2F200020B464FEA43033F
:102930005B184FEA8303D3185B78032B24D0F97913
:1029400040F2CC72C2F200020B464FEA43035B181E
:102950004FEA8303D31803F104031A6840F2C873E3
:10296000C2F200031B689A420ED8F97940F2CC7289
:10297000C2F200020B464FEA43035B184FEA83039F
:10298000D3184FF003025A70FB7903F10103FB7176
:10299000FB79052BB5D907F10C07BD4680BC704704
:1029A00080B582B000AF0346FB7107F107034FF01B
:1029B000010019464FF00102FFF73CF907F1080743
:1029C000BD4680BD80B483B000AF78600B46FB701D
:1029D0007B68FA781A704FF00103184607F10C076C
:1029E000BD4680BC704700BF80B485B000AF786042
:1029F00039604FF00003FB600FE03B681A787B689A
:102A00001A707B6803F101037B603B6803F10103EB
:102A10003B60FB6803F10103FB603B681B78002B04
:102A2000EBD1FB68184607F11407BD4680BC704720
:102A300080B586B000AFF8607A603B600B46FB72F1
:102A40004FF000037B617B6803F1FF337B603B68E1
:102A5000092B25D93A684CF6CD43CCF6CC43A3FBE1
:102A600002134FEAD303FA7AF86811467A68FFF73F
:102A7000DFFF78617B69FA68D318FB6013E0FB7AAB
:102A8000F8681946FFF79EFFFB6803F10103FB603E
:102A90007B6903F101037B617B6803F1FF337B609A
:102AA0007B68002BEBDC39684CF6CD43CCF6CC438D
:102AB000A3FB01234FEAD30213464FEA83039B187B
:102AC0004FEA4303CA1AD3B203F13003DBB2F8680A
:102AD0001946FFF777FF03467A69D3187B617B6954
:102AE000184607F11807BD4680BD00BF80B586B007
:102AF00000AFF8607A603B600B46FB724FF000035A
:102B00007B613B68002B04DA3B68C3F100033B6147
:102B100001E03B683B617B6803F1FF337B603B690D
:102B2000092B2AD93B68002B12DA3A694CF6CD43BF
:102B3000CCF6CC43A3FB02134FEAD303C3F100034B
:102B4000FA7AF86811467A68FFF7D0FF78610FE0EB
:102B50003A694CF6CD43CCF6CC43A3FB02134FEAC3
:102B6000D303FA7AF86811467A68FFF7BFFF7861F5
:102B70007B69FA68D318FB602BE03B68002B15DA01
:102B80007B6803F1FF337B6010E0FB7AF86819463D
:102B9000FFF718FFFB6803F10103FB607B6903F19A
:102BA00001037B617B6803F1FF337B607B68002B53
:102BB000EBDC3B68002B0CDAF8684FF02D01FFF7D7
:102BC00001FF03467A69D3187B61FB6803F10103B7
:102BD000FB6039694CF6CD43CCF6CC43A3FB012313
:102BE0004FEAD30213464FEA83039B184FEA43038D
:102BF000CA1AD3B203F13003DBB2F8681946FFF703
:102C0000E1FE03467A69D3187B617B69184607F1B8
:102C10001807BD4680BD00BF80B588B002AFF86020
:102C20007A600A46FA72BB724FF000037B617B68E0
:102C300003F1FF337B603B6A4FEA1313002B24D070
:102C40003B6A4FEA1311FA7ABB7A0091F868114691
:102C50007A68FFF7E1FF03467A69D3187B617B69E5
:102C6000FA68D318FB6013E0FB7AF8681946FFF79F
:102C7000A9FEFB6803F10103FB607B6903F101031B
:102C80007B617B6803F1FF337B607B68002BEBDCAF
:102C90003B6A03F00F03092B0CD83B6ADBB203F04D
:102CA0000F03DBB203F13003DBB2F8681946FFF71C
:102CB00089FE1BE0BB7A002B0CD03B6ADBB203F031
:102CC0000F03DBB203F13703DBB2F8681946FFF7F5
:102CD00079FE0BE03B6ADBB203F00F03DBB203F1DA
:102CE0005703DBB2F8681946FFF76CFE7B6903F106
:102CF00001037B617B69184607F11807BD4680BD5B
:102D000080B58AB002AFF860B9607A603B604FF07E
:102D10000003BB614FF000037B61FB68002B00F0F8
:102D20001C81FB684FF000021A7016E17B681B786B
:102D3000252B10D07B681A78FB681A70FB6803F1AA
:102D40000103FB607B6803F101037B607B6903F196
:102D500001037B6102E17B6803F101031B78252BF2
:102D600010D1FB684FF025021A70FB6803F10103D4
:102D7000FB607B6803F102037B607B6903F1010365
:102D80007B61EBE04FF02003FB774FF00003BB7754
:102D90007B6803F101037B607B681B78302B1BD1C0
:102DA0004FF03003FB777B6803F101037B6013E096
:102DB000BB7F1A464FEA8202D3184FEA4303DAB2C6
:102DC0007B681B78D318DBB2A3F13003BB777B6839
:102DD00003F101037B6000E000BF7B681B782F2BB1
:102DE00003D97B681B78392BE2D9BA7F7B69D3186A
:102DF0001A46BB689A4205D9BB68DAB27B69DBB276
:102E0000D31ABB777B681B78A3F15803202B00F201
:102E1000948001A252F823F0ED2E00083B2F000809
:102E20003B2F00083B2F00083B2F00083B2F0008DA
:102E30003B2F00083B2F00083B2F00083B2F0008CA
:102E40003B2F0008232F00089D2E00083B2F000871
:102E50003B2F00083B2F00083B2F00089D2E000849
:102E60003B2F00083B2F00083B2F00083B2F00089A
:102E70003B2F00083B2F00083B2F00083B2F00088A
:102E80003B2F00080D2F00083B2F0008B52E00082F
:102E90003B2F00083B2F0008CD2E0008BA7F3B686F
:102EA00003F1040139601B68F97FF868FFF71EFE23
:102EB000B86145E0BA7F3B6803F1040139601B68E3
:102EC000F97FF868FFF7B4FDB86139E0BA7F3B6875
:102ED00003F1040139601968FB7F0091F868194615
:102EE0004FF00003FFF798FEB86129E0BA7F3B6816
:102EF00003F1040139601968FB7F0091F8681946F5
:102F00004FF00103FFF788FEB86119E03B6803F159
:102F100004023A601B68F8681946FFF765FDB8615E
:102F20000EE03B6803F104023A601B68DBB2F8680C
:102F30001946FFF747FDB86102E04FF0FF332CE080
:102F40007B6803F101037B60BB69FA68D318FB60FF
:102F50007A69BB69D3187B6100E000BF7B681B788E
:102F6000002B04D07A69BB689A42FFF4DFAE7A691D
:102F7000BB689A4204D2FB684FF000021A700BE063
:102F8000FB6803F1FF33FB60FB684FF000021A702F
:102F90007B6903F1FF337B617B69184607F12007EA
:102FA000BD4680BD0CB480B584B000AF7860396098
:102FB00007F11C03BB6078683968BA69BB68FFF722
:102FC0009FFEF860FB68184607F11007BD46BDE894
:102FD000804002B0704700BF80B584B000AFF86099
:102FE000B9607A60F8684FF06401BA687B68FFF7EF
:102FF00087FE0346184607F11007BD4680BD00BF97
:10300000B0B5A6B000AFF860B9607A6046F6DC23D0
:10301000C0F6000307F110041D460FCD0FC40FCDFD
:103020000FC42B68236007F134031846B9687A6827
:10303000FFF7D2FF0346632B0CDD40F2D063C2F2F0
:1030400000031B68DB6807F110021046194600F008
:1030500077F8FEE707F134031846F96800F070F8D6
:103060000346184607F19807BD46B0BD80B582B04B
:1030700000AF7860396040F2D063C2F200031B6891
:103080009B68184679683A68FFF7BAFF0346184606
:1030900007F10807BD4680BD0FB480B582B000AF10
:1030A00007F114033B6038693968FFF7DFFF786088
:1030B0007B68184607F10807BD46BDE8804004B0AC
:1030C000704700BF0EB480B585B000AF786007F1DF
:1030D0002003BB607868F969BA68FFF77DFFF86084
:1030E000FB68184607F11407BD46BDE8804003B0F1
:1030F000704700BF80B582B000AF7860396040F2A1
:10310000D063C2F200031B689A683B689A4208D0F9
:1031100040F2D063C2F200031B68DA683B689A424F
:1031200006D17B68DBB21846FFF73AFC7B6801E00A
:103130004FF0FF33184607F10807BD4680BD00BFBA
:1031400080B584B000AF786039604FF00003FB6059
:1031500014E07B681B7818463968FFF7CBFF0346FD
:10316000B3F1FF3F02D14FF0FF330CE0FB6803F1F6
:103170000103FB607B6803F101037B607B681B78C4
:10318000002BE6D1FB68184607F11007BD4680BD4D
:1031900080B588B000AF0346B9607A60FB7307F171
:1031A0001403184601F0F0FFF97B46F60032C0F632
:1031B00000020B464FEAC3035B1A4FEA8303D3189E
:1031C00003F118031B68184600F026F87B689BB2D1
:1031D000BB82BB68BB614FF00003FB824FF0000372
:1031E000BB83F97B46F60032C0F600020B464FEA7D
:1031F000C3035B1A4FEA8303D31803F118031B6858
:103200001A4607F114031046194601F043FF07F16F
:103210002007BD4680BD00BF80B582B000AF78609A
:103220007B684FF4C052C4F20002934200F0AE80BB
:103230004FF4C052C4F20002934228D84FF4006207
:10324000C4F20002934269D04FF40062C4F200025B
:10325000934209D8B3F1804F52D04FF48062C4F248
:103260000002934253D0A6E04FF48052C4F2000211
:10327000934261D04FF4A052C4F20002934262D054
:103280004FF44062C4F2000293424ED093E04FF4F8
:103290008062C4F2010293425CD04FF48062C4F2B7
:1032A0000102934212D84FF40052C4F2000293423A
:1032B0007AD04FF00002C4F20102934219D04FF4C9
:1032C000E052C4F20002934267D074E04FF48842A7
:1032D000C4F2010293424BD04FF49042C4F2010277
:1032E00093424CD04FF48042C4F20102934238D052
:1032F00061E04FF001004FF00101FEF70DFA5AE0D6
:103300004FF001004FF00101FEF706FA53E04FF0D5
:1033100002004FF00101FEF7FFF94CE04FF004000E
:103320004FF00101FEF7F8F945E04FF008004FF0CB
:103330000101FEF7F1F93EE04FF010004FF00101FE
:10334000FEF7EAF937E04FF020004FF00101FEF7F9
:10335000E3F930E04FF002004FF00101FEF7DCF935
:1033600029E04FF480304FF00101FEF7D5F922E05B
:103370004FF400304FF00101FEF7CEF91BE04FF49F
:1033800080204FF00101FEF7C7F914E04FF0400034
:103390004FF00101FEF7C0F90DE04FF080004FF053
:1033A0000101FEF7B9F906E04FF480704FF001011A
:1033B000FEF7B2F900BF07F10807BD4680BD00BFA8
:1033C00080B582B000AF4FF00003FB804FF4A050F7
:1033D000C4F201004FF02001FDF754FA0346012B1F
:1033E00007D14FF4A050C4F20100FDF739FA0346AB
:1033F000FB8040F61403C2F200031B78002B09D1B6
:1034000000F00EF803461A4640F61403C2F2000319
:103410001A7000E000BF07F10807BD4680BD00BF7D
:1034200080B500AF40F2D863C2F200039A7840F250
:10343000D863C2F20003DB78104619464FF4E1323C
:10344000FEF712FA46F6DC40C0F60000FFF724FE55
:1034500046F6E440C0F60000FFF71EFE46F6E840E0
:10346000C0F60000FFF718FE46F6F040C0F6000078
:103470004FF00701FFF710FE46F6F840C0F60000D7
:10348000FFF70AFE4FF00103184680BD80B487B0F5
:1034900000AF786039604FF000037B614FF00003AC
:1034A0003B614FF00003FB604FF000037B6186E05F
:1034B0007B694FF0010202FA03F33B613B681A6833
:1034C0003B691340FB60FA683B699A4273D17B68A1
:1034D0001A687B694FEA43034FF0030101FA03F3D3
:1034E0006FEA03031A407B681A607B681A683B68BE
:1034F0001B7919467B694FEA430301FA03F31A4328
:103500007B681A603B681B79012B03D03B681B79F1
:10351000022B34D17B689A687B694FEA43034FF0F2
:10352000030101FA03F36FEA03031A407B689A6010
:103530007B689A683B685B7919467B694FEA43036D
:1035400001FA03F31A437B689A607B685A687B69C7
:103550009BB24FF0010101FA03F36FEA03031A4033
:103560007B685A607B685A683B689B7919467B691F
:103570009BB201FA03F39BB21A437B685A607B68E3
:10358000DA687B699BB24FEA43034FF0030101FA0B
:1035900003F36FEA03031A407B68DA607B68DA683A
:1035A0003B68DB7919467B694FEA430301FA03F371
:1035B0001A437B68DA607B6903F101037B617B69F5
:1035C0000F2B7FF675AF07F11C07BD4680BC704717
:1035D00080B485B000AF78600B467B804FF000036D
:1035E000FB737B681A697B881340002B03D04FF074
:1035F0000103FB7302E04FF00003FB73FB7B1846F3
:1036000007F11407BD4680BC704700BF80B485B089
:1036100000AF78600B467B804FF00003FB737B6844
:103620005A697B881340002B03D04FF00103FB73D2
:1036300002E04FF00003FB73FB7B184607F1140711
:10364000BD4680BC704700BF80B485B000AF7860D5
:1036500013460A467A807B704FF00003FB604FF000
:103660000003BB607A787B8803F007034FEA83038B
:1036700002FA03F3FB607B884FEAD3039BB21A463E
:103680007B884FEAD3039BB219467B6801F108019E
:1036900053F821107B8803F007034FEA83034FF0B0
:1036A0000F0000FA03F36FEA030319407B6802F18D
:1036B000080243F822107B884FEAD3039BB21A46D4
:1036C0007B6802F1080253F82220FB681343BB60B9
:1036D0007B884FEAD3039BB21A467B6802F108024B
:1036E000B96843F8221007F11407BD4680BC704743
:1036F00080B487B000AF4FF000033B614FF0000390
:103700007B614FF00203FB604FF00003BB604FF0A2
:1037100002037B604FF46053C4F202039B6803F022
:103720000C033B613B69042B0DD0082B15D0002BFB
:1037300069D140F2DC63C2F200034FF41052C0F2D0
:10374000F4021A6069E040F2DC63C2F2000347F65B
:103750004002C0F27D121A605FE04FF46053C4F281
:1037600002035B6803F480034FEA9353BB604FF49A
:103770006053C4F202035B6803F03F037B60BB68E5
:10378000002B14D047F64003C0F27D137A68B3FBD8
:10379000F2F24FF46053C4F20203596847F6C07363
:1037A0000B404FEA931303FB02F37B6113E04FF4EA
:1037B0001053C0F2F4037A68B3FBF2F24FF4605393
:1037C000C4F20203596847F6C0730B404FEA9313E3
:1037D00003FB02F37B614FF46053C4F202035B68A6
:1037E00003F440334FEA134303F101034FEA430369
:1037F000FB607A69FB68B2FBF3F240F2DC63C2F271
:1038000000031A6009E040F2DC63C2F200034FF4E7
:103810001052C0F2F4021A6000BF4FF46053C4F2B9
:1038200002039B6803F0F0034FEA131240F2E063D7
:10383000C2F200039B5CDBB23B6140F2DC63C2F28C
:1038400000031A683B6922FA03F240F2DC63C2F219
:1038500000031A6007F11C07BD4680BC704700BF1B
:1038600080B500AF40F61503C2F200031B78002BB1
:1038700002D0012B08D018E040F61503C2F2000375
:103880004FF001021A7010E0FDF76AFB024640F2A9
:10389000CF739A4204D84FF00100FCF7DFFC03E03D
:1038A0004FF00000FCF7DAFC00BF80BD80B485B0AB
:1038B00000AF78604FF00003FB734FF00003BB7361
:1038C0004FF00F037B737B68DB78002B45D04FF400
:1038D0006D43CEF20003DB686FEA030303F4E06399
:1038E0004FEA1323FB73FB7BC3F10403BB737A7BA7
:1038F000FB7B42FA03F37B737B685B781A46BB7BE6
:1039000002FA03F3FB737B689A787B7B1340DAB28D
:10391000FB7B1343FB73FB7B4FEA0313FB734FF4F7
:103920006143CEF200037A6812789B18FA7B83F821
:1039300000234FF46143CEF200037A6812784FEA15
:103940005212D2B27968097801F01F014FF00100DC
:1039500000FA01F143F8221014E04FF46143CEF273
:1039600000037A6812784FEA5212D2B27968097865
:1039700001F01F014FF0010000FA01F102F12002F5
:1039800043F8221007F11407BD4680BC704700BF02
:1039900080B586B000AF0346FB71F97946F6145244
:1039A000C0F600020B464FEAC3035B1A4FEA8303DB
:1039B000D3181B683B61F97946F61452C0F6000231
:1039C0000B464FEAC3035B1A4FEA8303D3189B8865
:1039D000FB81F97946F61452C0F600020B464FEA15
:1039E000C3035B1A4FEA8303D3189B79002B02D0E1
:1039F000012B08D00FE0FB8938691946FFF7E8FD75
:103A00000346FB7508E0FB8938691946FFF7FEFDA0
:103A10000346FB7500E000BFF97946F61452C0F684
:103A200000020B464FEAC3035B1A4FEA8303D31825
:103A3000DB79002B10D0012B1DD1FB7D002B05D095
:103A4000012B07D14FF00003BB7504E04FF00103D9
:103A5000BB7500E000BF0EE0FB7D002B05D0012B05
:103A600007D14FF00103BB7504E04FF00003BB75B5
:103A700000E000BF00BFBB7D184607F11807BD4638
:103A800080BD00BF90B585B000AF0346FB71F979EA
:103A900046F64862C0F600020B464FEAC3035B1AC3
:103AA0004FEA8303D31803F118031B68184600F08C
:103AB000C1FE03461C46F97946F64862C0F600028C
:103AC0000B464FEAC3035B1A4FEA8303D31803F193
:103AD00010031B68184600F04DFF034640F618021D
:103AE000C2F200024FEA8401CB184FEAC303D31895
:103AF0009B79002B02D14FF00003C0E0F97946F624
:103B00004862C0F600020B464FEAC3035B1A4FEA55
:103B10008303D31803F118031B68184600F08AFECC
:103B200003461C46F97946F64862C0F600020B4689
:103B30004FEAC3035B1A4FEA8303D31803F1100360
:103B40001B68184600F016FF034640F61802C2F242
:103B500000024FEA8401CB184FEAC303D3185B7904
:103B6000FB73FB7B012B02D14FF0010387E0F97956
:103B700046F64862C0F600020B464FEAC3035B1AE2
:103B80004FEA8303D31803F118031B68184600F0AB
:103B900051FE03461C46F97946F64862C0F600021B
:103BA0000B464FEAC3035B1A4FEA8303D31803F1B2
:103BB00010031B68184600F0DDFE034640F61802AD
:103BC000C2F200024FEA8401CB184FEAC303D318B4
:103BD0004FF001025A71F97946F64862C0F60002C8
:103BE0000B464FEAC3035B1A4FEA8303D31803F172
:103BF00018031B681846F97946F64862C0F60002B9
:103C00000B464FEAC3035B1A4FEA8303D31803F151
:103C100010031B689BB219464FF0010201F0A6FD8C
:103C2000F97946F64862C0F600020B464FEAC30334
:103C30005B1A4FEA8303D31803F118031B68184675
:103C40004FF0010101F094FEF97946F64862C0F6A2
:103C500000020B464FEAC3035B1A4FEA8303D318F3
:103C600003F110031B79012B07D14FF080404FF077
:103C700010014FF0010201F0A3FE4FF001031846BE
:103C800007F11407BD4690BD90B585B000AF03465F
:103C9000FB71F97946F64862C0F600020B464FEA1E
:103CA000C3035B1A4FEA8303D31803F118031B689D
:103CB000184600F0BFFD03461C46F97946F64862F7
:103CC000C0F600020B464FEAC3035B1A4FEA8303B8
:103CD000D31803F110031B68184600F04BFE03468F
:103CE00040F61802C2F200024FEA8401CB184FEAF4
:103CF000C303D3189B79002B02D14FF00003A7E038
:103D0000F97946F64862C0F600020B464FEAC30353
:103D10005B1A4FEA8303D31803F118031B68184694
:103D200000F088FD03461C46F97946F64862C0F665
:103D300000020B464FEAC3035B1A4FEA8303D31812
:103D400003F110031B68184600F014FE034640F60A
:103D50001802C2F200024FEA8401CB184FEAC303F3
:103D6000D3185B79FB73FB7B002B02D14FF0000370
:103D70006EE0F97946F64862C0F600020B464FEA5B
:103D8000C3035B1A4FEA8303D31803F118031B68BC
:103D9000184600F04FFD03461C46F97946F6486286
:103DA000C0F600020B464FEAC3035B1A4FEA8303D7
:103DB000D31803F110031B68184600F0DBFD03461F
:103DC00040F61802C2F200024FEA8401CB184FEA13
:103DD000C303D3184FF000025A71F97946F64862CE
:103DE000C0F600020B464FEAC3035B1A4FEA830397
:103DF000D31803F118031B681846F97946F6486290
:103E0000C0F600020B464FEAC3035B1A4FEA830376
:103E1000D31803F110031B689BB219464FF0000240
:103E200001F0A4FCF97946F64862C0F600020B46A0
:103E30004FEAC3035B1A4FEA8303D31803F1180355
:103E40001B6818464FF0000101F092FD4FF000038F
:103E5000184607F11407BD4690BD00BF90B589B064
:103E600000AF0346B9607A60FB734FF00103FB615A
:103E70004FF00103BB614FF000037B61FB7B062B1E
:103E800002D94FF0010348E3F97B46F64862C0F6D9
:103E900000020B464FEAC3035B1A4FEA8303D318B1
:103EA00003F118031B68B3F1804F00F00581F97B23
:103EB00046F64862C0F600020B464FEAC3035B1A9F
:103EC0004FEA8303D31803F118031A684FF4806391
:103ED000C4F200039A4200F0EF80F97B46F6486294
:103EE000C0F600020B464FEAC3035B1A4FEA830396
:103EF000D31803F118031A684FF40063C4F20003E7
:103F00009A4200F0D980F97B46F64862C0F600027A
:103F10000B464FEAC3035B1A4FEA8303D31803F13E
:103F200018031A684FF44063C4F200039A4200F089
:103F3000C380F97B46F64862C0F600020B464FEAA2
:103F4000C3035B1A4FEA8303D31803F118031A68FB
:103F50004FF48053C4F200039A4200F0AD80F97B25
:103F600046F64862C0F600020B464FEAC3035B1AEE
:103F70004FEA8303D31803F118031A684FF4A053D0
:103F8000C4F200039A4200F09780F97B46F648623B
:103F9000C0F600020B464FEAC3035B1A4FEA8303E5
:103FA000D31803F118031A684FF48063C4F20103B5
:103FB0009A4200F08180F97B46F64862C0F6000222
:103FC0000B464FEAC3035B1A4FEA8303D31803F18E
:103FD00018031A684FF48043C4F201039A426BD06D
:103FE000F97B46F64862C0F600020B464FEAC3036F
:103FF0005B1A4FEA8303D31803F118031A684FF4CE
:104000008843C4F201039A4256D0F97B46F64862CF
:10401000C0F600020B464FEAC3035B1A4FEA830364
:10402000D31803F118031A684FF49043C4F2010344
:104030009A4241D0F97B46F64862C0F600020B4630
:104040004FEAC3035B1A4FEA8303D31803F1180343
:104050001A684FF4C053C4F200039A422CD0F97B83
:1040600046F64862C0F600020B464FEAC3035B1AED
:104070004FEA8303D31803F118031A684FF4E0538F
:10408000C4F200039A4217D0F97B46F64862C0F6A4
:1040900000020B464FEAC3035B1A4FEA8303D318AF
:1040A00003F118031A684FF40053C4F200039A4254
:1040B00002D04FF0030330E2F97B46F64862C0F6C7
:1040C00000020B464FEAC3035B1A4FEA8303D3187F
:1040D00003F118031B68184600F0ACFB03461C46AE
:1040E000F97B46F64862C0F600020B464FEAC3036E
:1040F0005B1A4FEA8303D31803F110031B681846B9
:1041000000F038FC034640F61802C2F200024FEA03
:104110008401CB184FEAC303D3189B79012B02D13A
:104120004FF00203F9E140F2DC63C2F200031A68C7
:104130004DF68363C4F21B33A3FB02134FEAD34350
:1041400003F1FF33BB61BB684FEA430303F1FF3365
:10415000FB61F97B46F64862C0F600020B464FEA67
:10416000C3035B1A4FEA8303D31803F118031B68D8
:10417000B3F1804F14D0F97B46F64862C0F60002D6
:104180000B464FEAC3035B1A4FEA8303D31803F1CC
:1041900018031A684FF44063C4F200039A4203D133
:1041A0004FF0FF337B61E0E0F97B46F64862C0F6F2
:1041B00000020B464FEAC3035B1A4FEA8303D3188E
:1041C00003F118031A684FF48063C4F200039A42A3
:1041D00000F0BF80F97B46F64862C0F600020B464D
:1041E0004FEAC3035B1A4FEA8303D31803F11803A2
:1041F0001A684FF40063C4F200039A4200F0A980E9
:10420000F97B46F64862C0F600020B464FEAC3034C
:104210005B1A4FEA8303D31803F118031A684FF4AB
:104220008043C4F201039A4200F09380F97B46F682
:104230004862C0F600020B464FEAC3035B1A4FEA1E
:104240008303D31803F118031A684FF48843C4F2A8
:1042500001039A427DD0F97B46F64862C0F600021F
:104260000B464FEAC3035B1A4FEA8303D31803F1EB
:1042700018031A684FF49043C4F201039A4268D0BD
:10428000F97B46F64862C0F600020B464FEAC303CC
:104290005B1A4FEA8303D31803F118031A684FF42B
:1042A000C053C4F200039A4253D0F97B46F64862E9
:1042B000C0F600020B464FEAC3035B1A4FEA8303C2
:1042C000D31803F118031A684FF4E053C4F2000343
:1042D0009A423ED0F97B46F64862C0F600020B4691
:1042E0004FEAC3035B1A4FEA8303D31803F11803A1
:1042F0001A684FF40053C4F200039A4229D0F97BA4
:1043000046F64862C0F600020B464FEAC3035B1A4A
:104310004FEA8303D31803F118031A684FF480534C
:10432000C4F200039A4214D0F97B46F64862C0F604
:1043300000020B464FEAC3035B1A4FEA8303D3180C
:1043400003F118031A684FF4A053C4F200039A4211
:104350000BD14FF6FF737B6107E0BB694FEA430364
:10436000BB61FB694FEA5303FB61FA697B699A42BF
:10437000F3D2FB7B1846F969BA69FEF709FFFB7BAC
:104380001846F9697A6800F02DFBF97B46F6486219
:10439000C0F600020B464FEAC3035B1A4FEA8303E1
:1043A000D31803F110031B79012B20D1F97B46F6BA
:1043B0004862C0F600020B464FEAC3035B1A4FEA9D
:1043C0008303D31803F118031868F97B46F6486293
:1043D000C0F600020B464FEAC3035B1A4FEA8303A1
:1043E000D31803F110031B68194600F0E7FBF97BB3
:1043F00046F64862C0F600020B464FEAC3035B1A5A
:104400004FEA8303D31803F118031B68184600F022
:1044100011FA03461C46F97B46F64862C0F60002D4
:104420000B464FEAC3035B1A4FEA8303D31803F129
:1044300010031B68184600F09DFA03461A4640F622
:104440001803C2F200034FEA84018A18F96943F89D
:104450003210F97B46F64862C0F600020B464FEA7E
:10446000C3035B1A4FEA8303D31803F118031B68D5
:10447000184600F0DFF903461C46F97B46F6486211
:10448000C0F600020B464FEAC3035B1A4FEA8303F0
:10449000D31803F110031B68184600F06BFA0346AB
:1044A00040F61802C2F200024FEA8401CB184FEA2C
:1044B000C303D3184FF001029A71F97B46F64862A4
:1044C000C0F600020B464FEAC3035B1A4FEA8303B0
:1044D000D31803F118031B6818464FF0010100F0D0
:1044E00071FEF97B46F64862C0F600020B464FEAC1
:1044F000C3035B1A4FEA8303D31803F110035B79FC
:10450000012B04D1FB7B1846FFF7BCFA03E0FB7BD1
:104510001846FFF7B9FB4FF00203184607F12407CE
:10452000BD4690BD90B583B000AF0346FB71F979ED
:1045300046F64862C0F600020B464FEAC3035B1A18
:104540004FEA8303D31803F118031B68184600F0E1
:1045500085FCF97946F64862C0F600020B464FEA40
:10456000C3035B1A4FEA8303D31803F118031B68D4
:10457000184600F05FF903461C46F97946F6486292
:10458000C0F600020B464FEAC3035B1A4FEA8303EF
:10459000D31803F110031B68184600F0EBF903462B
:1045A0001A4640F61803C2F200034FEA84018A1843
:1045B0004FF0000143F83210F97946F64862C0F630
:1045C00000020B464FEAC3035B1A4FEA8303D3187A
:1045D00003F118031B68184600F02CF903461C462B
:1045E000F97946F64862C0F600020B464FEAC3036B
:1045F0005B1A4FEA8303D31803F110031B681846B4
:1046000000F0B8F9034640F61802C2F200024FEA81
:104610008401CB184FEAC303D3184FF000025A713C
:10462000F97946F64862C0F600020B464FEAC3032A
:104630005B1A4FEA8303D31803F118031B6818466B
:1046400000F0F8F803461C46F97946F64862C0F6D1
:1046500000020B464FEAC3035B1A4FEA8303D318E9
:1046600003F110031B68184600F084F9034640F676
:104670001802C2F200024FEA8401CB184FEAC303CA
:10468000D3184FF000029A7107F10C07BD4690BD98
:1046900090B587B000AF0346B9607A60FB73F97BD1
:1046A00046F64862C0F600020B464FEAC3035B1AA7
:1046B0004FEA8303D31803F118031B68184600F070
:1046C000B9F803461C46F97B46F64862C0F600027C
:1046D0000B464FEAC3035B1A4FEA8303D31803F177
:1046E00010031B68184600F045F9034640F618020F
:1046F000C2F200024FEA8401CB184FEAC303D31879
:104700005B79FB75FB7D002B08D1BB684FF0000285
:104710001A607B684FF000021A706CE0F97B46F675
:104720004862C0F600020B464FEAC3035B1A4FEA29
:104730008303D31803F118031B68184600F07AF8B6
:1047400003461C46F97B46F64862C0F600020B465B
:104750004FEAC3035B1A4FEA8303D31803F1100334
:104760001B68184600F006F903461A4640F618037F
:10477000C2F200034FEA84018A1853F83220BB6862
:104780001A60F97B46F64862C0F600020B464FEA13
:10479000C3035B1A4FEA8303D31803F118031B68A2
:1047A000184600F047F803461C46F97B46F6486277
:1047B000C0F600020B464FEAC3035B1A4FEA8303BD
:1047C000D31803F110031B68184600F0D3F8034612
:1047D00040F61802C2F200024FEA8401CB184FEAF9
:1047E000C303D3181A797B681A70BB681B684FEA39
:1047F0005302BB681A6007F11C07BD4690BD00BF9D
:1048000080B500AF4FF00500FFF73EFA4FF0804053
:104810004FF010014FF0000201F0D2F84FF4806029
:10482000C4F200004FF008014FF0010201F0C8F897
:1048300080BD00BF80B483B000AF78607B684FF468
:10484000C052C4F20002934200F082804FF4C05282
:10485000C4F20002934228D84FF40062C4F200026E
:1048600093425DD04FF40062C4F20002934209D833
:10487000B3F1804F4ED04FF48062C4F200029342F5
:104880004BD06EE04FF48052C4F2000293424DD000
:104890004FF4A052C4F2000293424AD04FF4406257
:1048A000C4F2000293423ED05BE04FF48062C4F257
:1048B0000102934240D04FF48062C4F2010293425D
:1048C00012D84FF40052C4F20002934246D04FF087
:1048D0000002C4F20102934219D04FF4E052C4F234
:1048E0000002934237D03CE04FF48842C4F2010208
:1048F000934227D04FF49042C4F20102934224D055
:104900004FF48042C4F20102934218D029E04FF0E4
:10491000000328E04FF0010325E04FF0020322E0FE
:104920004FF003031FE04FF004031CE04FF00503BA
:1049300019E04FF0060316E04FF0070313E04FF0C5
:10494000080310E04FF009030DE04FF00A030AE0FE
:104950004FF00B0307E04FF00C0304E04FF00D03A2
:1049600001E04FF00F03184607F10C07BD4680BC6D
:10497000704700BF80B483B000AF78607B680C2BB9
:1049800028D801A252F823F0BD490008D5490008F3
:10499000D5490008D5490008C3490008D549000891
:1049A000D5490008D5490008C9490008D54900087B
:1049B000D5490008D5490008CF4900084FF0000349
:1049C0000AE04FF0010307E04FF0020304E04FF06C
:1049D000030301E04FF00503184607F10C07BD463D
:1049E00080BC704790B58DB000AF0346B9607A6067
:1049F000FB7307F11003184600F016FE4FF000039A
:104A00007B824FF00003BB834FF060033B82F97B56
:104A100046F64862C0F600020B464FEAC3035B1A33
:104A20004FEA8303D31803F118031B681846FFF7F6
:104A300001FF03461C46F97B46F64862C0F60002B9
:104A40000B464FEAC3035B1A4FEA8303D31803F103
:104A500010031B681846FFF78DFF03467A68D1B232
:104A600040F61802C2F200024FEA8400C3184FEA6F
:104A7000C303D3180A461A717B68632B02D9BB683B
:104A8000BB6110E07B68BA6802FB03F37B627A6A61
:104A900048F21F53C5F2EB13A3FB02134FEA531363
:104AA0007B627B6ABB61F97B46F64862C0F6000216
:104AB0000B464FEAC3035B1A4FEA8303D31803F193
:104AC00010031B680C2B74D801A252F823F000BF0E
:104AD000054B0008B34B0008B34B0008B34B00086C
:104AE0001B4B0008B34B0008B34B0008B34B000846
:104AF000314B0008B34B0008B34B0008B34B000820
:104B0000474B000845F20523C0F60003FB6245F25F
:104B10007D63C0F60003BB6220E045F20133C0F6BE
:104B20000003FB6245F2B563C0F60003BB6215E00B
:104B300045F22943C0F60003FB6245F2F563C0F677
:104B40000003BB620AE045F24953C0F60003FB6272
:104B500045F22D73C0F60003BB6200BFF97B46F639
:104B60004862C0F600020B464FEAC3035B1A4FEAE5
:104B70008303D31803F118031B68194607F11002C9
:104B8000FB6A084611469847F97B46F64862C0F62C
:104B900000020B464FEAC3035B1A4FEA8303D318A4
:104BA00003F118031B681A46BB6A10464FF0080150
:104BB000984707F13407BD4690BD00BF80B584B06B
:104BC00000AF786039604FF01C033B734FF0000377
:104BD0007B734FF00003BB734FF00103FB7307F1CE
:104BE0000C031846FEF762FE3B680C2B3CD801A272
:104BF00052F823F0294C0008694C0008694C000861
:104C0000694C0008394C0008694C0008694C0008E0
:104C1000694C0008494C0008694C0008694C0008C0
:104C2000694C0008594C00087B6818464FF0020197
:104C30004FF0000200F0C4FE7B6818464FF00401FC
:104C40004FF0000200F0BCFE7B6818464FF00801F0
:104C50004FF0000200F0B4FE7B6818464FF01001E0
:104C60004FF0000200F0ACFE07F11007BD4680BD1A
:104C700090B58DB000AF0B463A600246FA71BB7139
:104C800007F11C0318464FF000014FF00C0201F031
:104C900083F807F10C0318464FF000014FF00F02A4
:104CA00001F07AF8FB79002B02D0012B23D0C8E069
:104CB000B97946F64862C0F600020B464FEAC303D4
:104CC0005B1A4FEA8303D3181B6818463968FDF74F
:104CD00047F9B97946F64862C0F600020B464FEA3A
:104CE000C3035B1A4FEA8303D3189B8818463968BD
:104CF000FDF7D6F9A6E0B97907F12C0207F12B03ED
:104D0000084611461A46FFF7C3FCFB6A002B7FD00A
:104D1000FA6A40F2E7339A4232D8FB6A4FF06402F3
:104D200002FB03F244F24023C0F20F03B3FBF2F3A1
:104D300007F10C0210464FF0030146F66072C0F610
:104D40000002FEF72FF9386840494FF0090201F0E0
:104D5000E9F807F10C03386819464FF00F0201F02B
:104D6000E1F83C68204601F0ADF80346E21846F64B
:104D70006473C0F60003186810601B7913712BE090
:104D8000FA6A44F24023C0F20F03B3FBF2F307F1D7
:104D90000C0210464FF0030146F66072C0F60002A6
:104DA000FEF700F9386829494FF0090201F0BAF816
:104DB00007F10C03386819464FF00F0201F0B2F802
:104DC0003C68204601F07EF80346E21846F66C7314
:104DD000C0F600031868106097F82B3007F11C022A
:104DE00010464FF00C0146F67072C0F60002FEF756
:104DF000D9F807F11C03386819464FF00C0201F08E
:104E000091F8386812494FF0090201F08BF819E067
:104E1000386810494FF0090201F084F83C682046D8
:104E200001F050F80346E21846F67C73C0F6000322
:104E300018681060386808494FF0090201F072F8EC
:104E400000E000BF07F13407BD4690BD1E6F0008AB
:104E50004B6F0008156F0008546F000880B582B0D2
:104E600000AF78607A684FF00003C4F201039A4201
:104E70000CD14FF001004FF00101FCF7CBFC4FF0DB
:104E800001004FF00001FCF7C5FCFFE07B68B3F1C7
:104E9000804F0CD14FF001004FF00101FCF790FC66
:104EA0004FF001004FF00001FCF78AFCEEE07A6859
:104EB0004FF48063C4F200039A420CD14FF0020019
:104EC0004FF00101FCF77CFC4FF002004FF00001B5
:104ED000FCF776FCDAE07A684FF40063C4F2000372
:104EE0009A420CD14FF004004FF00101FCF768FC2E
:104EF0004FF004004FF00001FCF762FCC6E07A6856
:104F00004FF44063C4F200039A420CD14FF0080002
:104F10004FF00101FCF754FC4FF008004FF0000186
:104F2000FCF74EFCB2E07A684FF48053C4F2000301
:104F30009A420CD14FF010004FF00101FCF740FCF9
:104F40004FF010004FF00001FCF73AFC9EE07A6849
:104F50004FF4A053C4F200039A420CD14FF020004A
:104F60004FF00101FCF72CFC4FF020004FF0000146
:104F7000FCF726FC8AE07A684FF48063C4F20103F0
:104F80009A420CD14FF002004FF00101FCF742FCB5
:104F90004FF002004FF00001FCF73CFC76E07A682D
:104FA0004FF48043C4F201039A420CD14FF4803095
:104FB0004FF00101FCF72EFC4FF480304FF0000160
:104FC000FCF728FC62E07A684FF48843C4F20103DE
:104FD0009A420CD14FF400304FF00101FCF71AFC5B
:104FE0004FF400304FF00001FCF714FC4EE07A68FB
:104FF0004FF49043C4F201039A420CD14FF4802045
:105000004FF00101FCF706FC4FF480204FF0000147
:10501000FCF700FC3AE07A684FF4C053C4F2000396
:105020009A420CD14FF040004FF00101FCF7C8FB51
:105030004FF040004FF00001FCF7C2FB26E07A6819
:105040004FF4E053C4F200039A420CD14FF08000B9
:105050004FF00101FCF7B4FB4FF080004FF000016E
:10506000FCF7AEFB12E07A684FF40053C4F2000381
:105070009A420BD14FF480704FF00101FCF7A0FB76
:105080004FF480704FF00001FCF79AFB07F108071E
:10509000BD4680BD80B485B000AF786039604FF008
:1050A0000003FB817B681B88FB817A684FF000035B
:1050B000C4F201039A421FD07A684FF48063C4F2AD
:1050C00001039A4218D07B68B3F1804F14D07A68FC
:1050D0004FF48063C4F200039A420DD07A684FF413
:1050E0000063C4F200039A4206D07A684FF440632A
:1050F000C4F200039A4208D1FB8923F07003FB81BC
:105100003B685A88FB891343FB817A684FF48053CC
:10511000C4F200039A420FD07A684FF4A053C4F24D
:1051200000039A4208D0FB8923F44073FB813B685B
:105130001A89FB891343FB817B68FA891A803B68D3
:105140005A687B68DA623B681A887B681A857A68D5
:105150004FF00003C4F201039A4206D07A684FF47C
:105160008063C4F201039A4204D13B689B7A1A46D9
:105170007B681A867B684FF001029A8207F1140758
:10518000BD4680BC704700BF80B483B000AF78607C
:105190007B684FF0FF325A607B684FF000021A8044
:1051A0007B684FF000021A817B684FF000025A8042
:1051B0007B684FF000029A7207F10C07BD4680BC75
:1051C000704700BF80B483B000AF78600B46FB70BF
:1051D000FB78002B08D07B681B889BB243F001034F
:1051E0009AB27B681A8007E07B681B889BB223F029
:1051F00001039AB27B681A8007F10C07BD4680BC98
:10520000704700BF80B485B000AF786039604FF060
:1052100000037B814FF00003FB814FF00003BB8153
:105220007B681B8C9BB223F001039AB27B681A84C3
:105230007B681B8CFB817B689B88BB817B681B8B9D
:105240007B817B8923F070037B817B8923F00303BF
:105250007B813B681A887B8913437B81FB8923F020
:105260000203FB813B689A89FB891343FB813B68FE
:105270005A88FB891343FB817A684FF00003C4F21C
:1052800001039A4206D07A684FF48063C4F20103A6
:105290009A4223D1FB8923F00803FB813B68DA891A
:1052A000FB891343FB81FB8923F00403FB813B68EB
:1052B0009A88FB891343FB81BB8923F48073BB81EC
:1052C000BB8923F40073BB813B681A8ABB891343F3
:1052D000BB813B685A8ABB891343BB817B68BA890F
:1052E0009A807B687A891A833B689A687B685A63DC
:1052F0007B68FA891A8407F11407BD4680BC7047A1
:1053000080B485B000AF786039604FF000037B81D6
:105310004FF00003FB814FF00003BB817B681B8CC7
:105320009BB223F010039AB27B681A847B681B8CB3
:10533000FB817B689B88BB817B681B8B7B817B8926
:1053400023F4E0437B817B8923F440737B813B68BA
:105350001B884FEA03239AB27B8913437B81FB8925
:1053600023F02003FB813B689B894FEA03139AB229
:10537000FB891343FB813B685B884FEA03139AB2B6
:10538000FB891343FB817A684FF00003C4F20103E9
:105390009A4206D07A684FF48063C4F201039A42BD
:1053A0002FD1FB8923F08003FB813B68DB894FEA27
:1053B00003139AB2FB891343FB81FB8923F040035B
:1053C000FB813B689B884FEA03139AB2FB89134326
:1053D000FB81BB8923F48063BB81BB8923F4006319
:1053E000BB813B681B8A4FEA83039AB2BB89134394
:1053F000BB813B685B8A4FEA83039AB2BB89134344
:10540000BB817B68BA899A807B687A891A833B68FA
:105410009A687B689A637B68FA891A8407F1140793
:10542000BD4680BC704700BF80B485B000AF7860D7
:1054300039604FF000037B814FF00003FB814FF098
:105440000003BB817B681B8C9BB223F480739AB2F0
:105450007B681A847B681B8CFB817B689B88BB8183
:105460007B689B8B7B817B8923F070037B817B89AD
:1054700023F003037B813B681A887B8913437B817C
:10548000FB8923F40073FB813B689B894FEA03236C
:105490009AB2FB891343FB813B685B884FEA032385
:1054A0009AB2FB891343FB817A684FF00003C4F280
:1054B00001039A4206D07A684FF48063C4F2010374
:1054C0009A422FD1FB8923F40063FB813B68DB897F
:1054D0004FEA03239AB2FB891343FB81FB8923F430
:1054E0008063FB813B689B884FEA03239AB2FB8968
:1054F0001343FB81BB8923F48053BB81BB8923F415
:105500000053BB813B681B8A4FEA03139AB2BB89E5
:105510001343BB813B685B8A4FEA03139AB2BB8992
:105520001343BB817B68BA899A807B687A899A83A6
:105530003B689A687B68DA637B68FA891A8407F1AA
:105540001407BD4680BC704780B485B000AF78605A
:1055500039604FF00003BB814FF000037B814FF0B7
:105560000003FB817B681B8C9BB223F480539AB2AF
:105570007B681A847B681B8C7B817B689B88FB81A2
:105580007B689B8BBB81BB8923F4E043BB81BB89D8
:1055900023F44073BB813B681B884FEA03239AB214
:1055A000BB891343BB817B8923F400537B813B6818
:1055B0009B894FEA03339AB27B8913437B813B6813
:1055C0005B884FEA03339AB27B8913437B817A6805
:1055D0004FF00003C4F201039A4206D07A684FF4F8
:1055E0008063C4F201039A420BD1FB8923F4804308
:1055F000FB813B681B8A4FEA83139AB2FB891343F2
:10560000FB817B68FA899A807B68BA899A833B68B8
:105610009A687B681A647B687A891A8407F1140790
:10562000BD4680BC704700BF80B483B000AF7860D7
:105630007B684FF000021A807B684FF000025A80AE
:105640007B684FF000029A807B684FF000029A60FE
:105650007B684FF000029A817B684FF00002DA818C
:105660007B684FF000021A827B684FF000025A827A
:1056700007F10C07BD4680BC704700BF80B485B001
:1056800000AF78600B467B804FF00003FB817B68A6
:105690001B8BFB81FB8923F00803FB81FA897B8844
:1056A0001343FB817B68FA891A8307F11407BD460F
:1056B00080BC704780B485B000AF78600B467B80BB
:1056C0004FF00003FB817B681B8BFB81FB8923F47C
:1056D0000063FB817B884FEA03239AB2FB89134363
:1056E000FB817B68FA891A8307F11407BD4680BCE9
:1056F000704700BF80B485B000AF78600B467B80F8
:105700004FF00003FB817B689B8BFB81FB8923F0BF
:105710000803FB81FA897B881343FB817B68FA8944
:105720009A8307F11407BD4680BC704780B485B0EA
:1057300000AF78600B467B804FF00003FB817B68F5
:105740009B8BFB81FB8923F40063FB817B884FEA01
:1057500003239AB2FB891343FB817B68FA899A83FE
:1057600007F11407BD4680BC704700BF80B485B008
:1057700000AF786013460A467A803B804FF0000302
:10578000FB817B884FF0010202FA03F3FB817B6807
:105790001B8C9AB2FB896FEA03039BB213409AB247
:1057A0007B681A847B681B8C9AB239887B8801FAE3
:1057B00003F39BB213439AB27B681A8407F1140770
:1057C000BD4680BC704700BF80B582B000AF786036
:1057D00039603B681B88002B0FD13B6859883B68B8
:1057E0009A883B681B89786800F00EF93B68DB8873
:1057F0007868194600F048F836E03B681B88042BAF
:105800000FD13B6859883B689A883B681B89786848
:1058100000F03AF93B68DB887868194600F050F8E8
:1058200022E03B681B88082B0FD13B6859883B68F6
:105830009A883B681B89786800F074F93B68DB88BC
:105840007868194600F05AF80EE03B6859883B68C2
:105850009A883B681B89786800F0AAF93B68DB8866
:105860007868194600F066F807F10807BD4680BD64
:1058700080B483B000AF78607B68DB6B184607F1BB
:105880000C07BD4680BC704780B483B000AF786021
:105890000B467B807B681B8B9BB223F00C039AB278
:1058A0007B681A837B681B8B9AB27B8813439AB2FE
:1058B0007B681A8307F10C07BD4680BC704700BFA8
:1058C00080B483B000AF78600B467B807B681B8B15
:1058D0009BB223F440639AB27B681A837B681B8B6C
:1058E0009AB27B884FEA03239BB213439AB27B6838
:1058F0001A8307F10C07BD4680BC704780B483B0A3
:1059000000AF78600B467B807B689B8B9BB223F05B
:105910000C039AB27B689A837B689B8B9AB27B88D4
:1059200013439AB27B689A8307F10C07BD4680BC8B
:10593000704700BF80B483B000AF78600B467B80B7
:105940007B689B8B9BB223F440639AB27B689A83FB
:105950007B689B8B9AB27B884FEA03239BB21343ED
:105960009AB27B689A8307F10C07BD4680BC7047EA
:1059700080B483B000AF78600B46FB70FB78002BDF
:105980000CD07B68B3F844309BB26FEA43436FEAB4
:1059900053439AB27B68A3F844200BE07B68B3F8CA
:1059A00044309BB24FEA43434FEA53439AB27B6879
:1059B000A3F8442007F10C07BD4680BC704700BF28
:1059C00080B483B000AF786013460A467A807B705B
:1059D0007B78002B08D07B689B899AB27B88134325
:1059E0009AB27B689A810AE07B689B899AB27B882D
:1059F0006FEA03039BB213409AB27B689A8107F166
:105A00000C07BD4680BC704780B487B000AFF8601B
:105A100079813A81FB804FF00003FB824FF0000355
:105A2000BB82FB681B8C9BB223F001039AB2FB681C
:105A30001A84FB681B8BFB82FB681B8CBB82FB8A76
:105A400023F0F303FB82FB884FEA03139AB23B89EE
:105A500013439AB2FB8A1343FB82BB8A23F00A03E7
:105A6000BB827A89BB8A13439BB243F00103BB829A
:105A7000FB68FA8A1A83FB68BA8A1A8407F11C0742
:105A8000BD4680BC704700BF80B487B000AFF860EF
:105A900079813A81FB804FF00003FB824FF00003D5
:105AA000BB824FF000037B82FB681B8C9BB223F010
:105AB00010039AB2FB681A84FB681B8BFB82FB689D
:105AC0001B8CBB827B894FEA03137B82FB8A23F406
:105AD00040734FEA03534FEA1353FB82FB884FEAAC
