:020000040800F2
:10000000481500206D0E0008D90E0008D90E000812
:10001000D90E0008D90E0008D90E00080000000013
:10002000000000000000000000000000D90E0008E1
:10003000D90E000800000000D90E0008D52E0008D7
:10004000D90E0008D90E0008D90E0008D90E0008F4
:10005000D90E0008D90E0008D90E0008D90E0008E4
:10006000D90E0008D90E0008D90E0008D90E0008D4
:10007000D90E0008D90E0008D90E0008D90E0008C4
:10008000D90E0008D90E0008DD260008D90E000898
:10009000D90E0008D90E0008D90E0008D90E0008A4
:1000A000D90E0008D90E0008D90E0008D90E000894
:1000B000C9540008E9540008F5540008D90E000896
:1000C000D90E0008D90E0008D90E0008D90E000874
:1000D000D90E0008D90E0008D90E0008D90E000864
:1000E000D90E0008D90E0008D90E0008D90E000854
:1000F000D90E0008D90E0008D90E0008D90E000844
:10010000D90E0008D90E0008D90E0008D90E000833
:10011000D90E0008D90E0008D90E0008D90E000823
:10012000D90E0008D90E0008D90E0008D90E000813
:10013000D90E0008D90E0008D90E0008D90E000803
:10014000D90E0008D90E0008D90E0008D90E0008F3
:10015000D90E0008D90E0008D90E0008F5190008BC
:10016000D90E0008D90E0008D90E0008D90E0008D3
:10017000D90E0008D90E0008D90E0008D90E0008C3
:10018000D90E0008D90E000880B500AF40F2F06328
:10019000C2F200031B78012B17D0022B3BD0002B9F
:1001A00057D14FF0030044F620614FF0090204F0EC
:1001B000B9FC4FF0030004F0C9FA40F2F063C2F258
:1001C00000034FF002021A7046E04FF0030004F003
:1001D000BFFB4FF0030005F009F840F20103C2F243
:1001E00000031B781A4646F6CC33C0F600039B5C2E
:1001F0004FF0030044F620611A4604F093FC4FF0E0
:10020000030004F0A3FA40F2F063C2F200034FF0DF
:1002100002021A7020E040F20003C2F200031A78D2
:1002200040F20103C2F200031B789A4213D040F25D
:100230000003C2F200031A7840F20103C2F2000385
:100240001A7040F2F063C2F200034FF001021A701C
:1002500001E000BF00E000BF80BD00BF80B483B0FC
:1002600000AF0346FB7140F20003C2F200031B78AB
:10027000FA799A420DD040F20103C2F200031B78D2
:10028000FA799A4205D040F20003C2F20003FA79EB
:100290001A7007F10C07BD4680BC7047B0B582B03C
:1002A00000AF0B463A600246FA71BB71FB79002B36
:1002B00000F0B280012B40F0AD8040F20103C2F2A9
:1002C00000031B78042B00F2A38001A252F823F054
:1002D000E5020008210300085D03000899030008F7
:1002E000D503000838684F494FF0090206F086FA36
:1002F0003C68204606F052FA0346E21846F6D4332C
:10030000C0F6000314461D460FCD20606160A26058
:10031000E360386844494FF0090206F06FFA78E06C
:10032000386842494FF0090206F068FA3C682046F6
:1003300006F034FA0346E21846F6E433C0F600034A
:1003400014461D460FCD20606160A260E3603868EE
:1003500035494FF0090206F051FA5AE0386834493D
:100360004FF0090206F04AFA3C68204606F016FAF9
:100370000346E21846F6F433C0F60003144607CBF2
:1003800020606160A2601B88A381386826494FF015
:10039000090206F033FA3CE0386824494FF00902BC
:1003A00006F02CFA3C68204606F0F8F90346E218FD
:1003B00046F60443C0F6000314461D460FCD2060E8
:1003C0006160A260E360386817494FF0090206F0E7
:1003D00015FA1EE0386813494FF0090206F00EFACC
:1003E0003C68204606F0DAF90346E21846F6144364
:1003F000C0F6000314461D460FCD20606160A26068
:10040000E360386808494FF0090206F0F7F900E0A8
:1004100000BF02E000BF00E000BF07F10807BD46D3
:10042000B0BD00BFAE6B0008B76B0008936B00084F
:100430008A6B000880B582B000AF4FF00003FB71FB
:100440002BE0FB7940F20402C2F200024FEA4303C0
:10045000D3185B78184604F0FFF80346BB71BB79EC
:10046000002B0BD0012B13D1FA7940F20403C2F216
:1004700000034FF0010103F812100AE0FA7940F28C
:100480000403C2F200034FF0000103F8121000E071
:1004900000BFFB7903F10103FB71FB79002BD0D086
:1004A00007F10807BD4680BD80B483B000AF0346A6
:1004B000FB71FB79012B02D94FF0020306E0FA79B8
:1004C00040F20403C2F2000313F81230184607F199
:1004D0000C07BD4680BC704790B583B000AF0B469B
:1004E0003A600246FA71BB71FB79002B02D0012BF6
:1004F00035D076E0BB7940F20402C2F200024FEA46
:100500004303D3185B78194646F62442C0F600022E
:100510000B464FEAC3035B1A4FEA8303D3181B68E9
:100520001846396801F09CFBBB7940F20402C2F224
:1005300000024FEA4303D3185B78194646F624427B
:10054000C0F600020B464FEAC3035B1A4FEA83036F
:10055000D3189B881846396801F022FC42E0BB7929
:100560001846FFF7A1FF0346012B1CD138681F492D
:100570004FF0090206F042F93C68204606F00EF9F9
:100580000346E31846F63C52C0F6000210681860B5
:100590009188927999809A71386815494FF00902CB
:1005A00006F02CF91EE0386812494FF0090206F0F7
:1005B00025F93C68204606F0F1F80346E21846F6B5
:1005C0004453C0F6000303CB1060516019889B7838
:1005D00011819372386806494FF0090206F00EF94E
:1005E00000E000BF07F10C07BD4690BDFA6C0008A3
:1005F000276D0008036D000880B58AB000AF7860F1
:1006000039604FF000037B624FF000033B624FF014
:100610000003FB614FF00003BB617B681B8A9BB248
:100620007B627B6A23F440537B623B68DB887A6A97
:1006300013437B627B6A9AB27B681A827B689B89D0
:100640009BB27B627B6A23F4B05323F00C037B6282
:100650003B689A883B681B8913439AB23B685B8965
:1006600013439BB27A6A13437B627B6A9AB27B68BC
:100670009A817B689B8A9BB27B627B6A23F440737E
:100680007B623B689B897A6A13437B627B6A9AB27E
:100690007B689A8207F10803184600F0ADFD7A687E
:1006A0004FF48053C4F201039A4206D07A684FF4A3
:1006B000A053C4F201039A4202D17B693B6201E07C
:1006C0003B693B627B689B899BB29BB21BB2002B50
:1006D0000FDA3A6A13464FEA83039B184FEA830204
:1006E0009A183B681B684FEA4303B2FBF3F3FB61C4
:1006F0000EE03A6A13464FEA83039B184FEA8302DF
:100700009A183B681B684FEA8303B2FBF3F3FB6163
:10071000FA6948F21F53C5F2EB13A3FB02134FEA29
:1007200053134FEA03137B627B6A4FEA13134FF0B4
:10073000640202FB03F3FA69D31ABB617B689B89ED
:100740009BB29BB21BB2002B12DABB694FEAC30308
:1007500003F1320248F21F53C5F2EB13A3FB02135D
:100760004FEA531303F007037A6A13437B6211E0E5
:10077000BB694FEA031303F1320248F21F53C5F27B
:10078000EB13A3FB02134FEA531303F00F037A6A30
:1007900013437B627B6A9AB27B681A8107F1280750
:1007A000BD4680BD80B485B000AF786039604FF041
:1007B0000003FB607B681B8A9BB2FB60FB6823F431
:1007C0007063FB603B681A883B685B8813439AB28E
:1007D0003B689B8813439AB23B68DB8813439BB208
:1007E000FA681343FB60FB689AB27B681A8207F1D0
:1007F0001407BD4680BC704780B483B000AF7860FA
:100800000B46FB70FB78002B08D07B689B899BB262
:1008100043F400539AB27B689A8107E07B689B8916
:100820009BB223F400539AB27B689A8107F10C07BC
:10083000BD4680BC704700BF80B483B000AF786015
:100840000B467B807B884FEAC3534FEAD3539AB25F
:100850007B689A8007F10C07BD4680BC704700BFDB
:1008600080B483B000AF78607B689B889BB24FEA0E
:10087000C3534FEAD3539BB2184607F10C07BD464A
:1008800080BC704780B485B000AF78600B467B8039
:100890004FF00003FB737B681B889AB27B88134080
:1008A0009BB2002B03D04FF00103FB7302E04FF02B
:1008B0000003FB73FB7B184607F11407BD4680BCA1
:1008C000704700BF80B500AF40F2FA63C2F2000388
:1008D0001B78002B02D0012B0AD013E000F048F85F
:1008E00003461A4640F2FA63C2F200031A700AE0A5
:1008F00000F02AF903461A4640F2FA63C2F20003F6
:100900001A7000E000BF80BD80B500AF40F2F86310
:10091000C2F200031B8803F101039AB240F2F863AC
:10092000C2F200031A8040F2F863C2F200031B888F
:10093000B3F5FA6F1AD14FF0030002F0FBFB024649
:1009400040F2F463C2F200031A604FF0030002F0B9
:10095000A9FB4FF003004FF47A7102F02FFB40F235
:10096000F863C2F200034FF000021A8080BD00BF9E
:1009700090B5ABB000AF4FF00003C7F8A43046F617
:100980008463C0F6000307F148011A464FF05A038A
:10099000084611461A4605F0C9FD4FF00003C7F896
:1009A000A43024E046F66863C0F60003D7F8A4201C
:1009B00053F8223046F67460C0F600004FF0030191
:1009C0001A4603F0F3F907F14801D7F8A4201346BB
:1009D0004FEA03139B1A4FEA4303CB18184603F060
:1009E000E5F9D7F8A43003F10103C7F8A430D7F82C
:1009F000A430022BD6D946F67460C0F600004FF042
:100A000004014FF0140203F0D1F94FF00003C7F8CE
:100A1000A4300BE046F68060C0F6000003F0C6F993
:100A2000D7F8A43003F10103C7F8A430D7F8A430F5
:100A30002C2BEFD94FF00003C7F8A43079E040F237
:100A40000803C2F20003D7F8A4204FF05C0101FBB9
:100A500002F29B1803F158031B78012B63D107F1B5
:100A6000040318464FF000014FF0110205F000FE9C
:100A7000D7F8A43003F105031A4646F66863C0F6BA
:100A800000031B6846F67460C0F6000011461A4663
:100A900003F08CF9D7F8A4304FF05C0202FB03F2AC
:100AA00040F20803C2F20003D318184603F07EF99F
:100AB000D7F8A43003F105031A4646F66863C0F67A
:100AC00000035B6846F67460C0F6000011461A46E3
:100AD00003F06CF940F20803C2F20003D7F8A42037
:100AE0004FF05C0101FB02F29B1803F154031C68F8
:100AF00040F20803C2F20003D7F8A4204FF05C01D3
:100B000001FB02F29B1803F118039B791A4607F1C7
:100B100004034FF0000011461A46A04707F10403F2
:100B2000184603F043F9D7F8A43003F10103C7F8DE
:100B3000A430D7F8A430062B81D94FF00103184612
:100B400007F1AC07BD4690BD90B591B000AF4FF036
:100B5000000387F83F304FF00003BB634FF0000302
:100B6000BB63CFE040F20803C2F20003BA6B4FF060
:100B70005C0101FB02F29B1803F158031B78012B67
:100B800040F0BC803B4618464FF000014FF0320267
:100B900005F06EFD40F20803C2F20003BA6B4FF09D
:100BA0005C0101FB02F29B1803F154031C6840F244
:100BB0000803C2F20003BA6B4FF05C0101FB02F2C2
:100BC0009B1803F118039B791A463B464FF001002E
:100BD00011461A46A047BB6B4FF05C0202FB03F3C1
:100BE00003F1180240F20803C2F20003D31803F124
:100BF00007043B46184605F0D1FD03463A46204619
:100C000011461A4605F03EFE0346002B76D0BB6B1C
:100C10004FF05C0202FB03F303F1180240F20803F9
:100C2000C2F20003D31803F107043B46184605F04F
:100C3000B5FD03463A46204611461A4605F0B2FE77
:100C40003B46184605F0AAFD0446BB6B4FF05C021C
:100C500002FB03F303F1180240F20803C2F200039F
:100C6000D31803F10703184605F098FD0346E31A6D
:100C70007B637B6B002B2CDA4FF0000387F83F304F
:100C800020E03B46184605F089FD0346322B0DD087
:100C90003B46184605F082FD03463A46D21846F612
:100CA000E063C0F600031B88138005E07B6BDBB2BA
:100CB000C3F1000387F83F3097F83F3003F1010399
:100CC00087F83F3097F83F207B6BC3F100039A42CF
:100CD000D7DBBB6B03F105031A4646F66863C0F623
:100CE00000039B6846F67460C0F6000011461A4681
:100CF00003F05CF83B46184603F058F8BB6B03F171
:100D00000103BB63BB6B062B7FF62CAF4FF00103D7
:100D1000184607F14407BD4690BD00BF80B586B0B8
:100D200000AF0B463A600246FA71BB71FB79002BAB
:100D300047D0012B43D102F0F1F978617A6940F292
:100D4000E7339A423FD97A6944F6D353C1F262033A
:100D5000A3FB02134FEA93133B613B693B2B24D95E
:100D60003A6948F68903C8F68803A3FB02134FEAE1
:100D70005313FB603A6948F68903C8F68803A3FB5E
:100D800002134FEA53110B464FEA03135B1A4FEA63
:100D90008303D31A3B61FA683B69386846F6E4611D
:100DA000C0F6000103F018F80DE03B69386846F61C
:100DB000F061C0F600011A4603F00EF803E000BF30
:100DC00002E000BF00E000BF07F11807BD4680BD8C
:100DD00080B582B000AF0B463A600246FA71BB7133
:100DE000FB79002B3CD0012B38D140F2F463C2F2E6
:100DF00000031A6840F69F739A4215D940F2F463D3
:100E0000C2F200031A6844F6D353C1F26203A3FB93
:100E100002134FEAD313386846F6FC61C0F60001AE
:100E20001A4602F0D9FF1CE040F2F463C2F200035C
:100E30001B684FF47A7202FB03F244F6D353C1F2FB
:100E40006203A3FB02134FEAD313386846F604711A
:100E5000C0F600011A4602F0BFFF02E000BF00E04A
:100E600000BF07F10807BD4680BD00BF80B582B056
:100E700000AF47F64403C0F600037B6040F2000376
:100E8000C2F200033B600BE07B681A683B681A60A3
:100E90003B6803F104033B607B6803F104037B6060
:100EA0003A6840F2F063C2F200039A42ECD3084879
:100EB00008494FF000028842B8BF40F8042BFFF603
:100EC000FAAF00F023F907F10807BD4680BD000026
:100ED000F0060020440D002080B400AFFEE700BF04
:100EE00080B500AF40F2FC63C2F200031B78002B18
:100EF00002D0012B0CD021E000F06AF800F080F85D
:100F000040F2FC63C2F200034FF001021A7018E0D5
:100F10004FF0020002F0A8F80346032B10D140F274
:100F20008C23C2F200031B78184603F00FFC4FF02D
:100F300002004FF03C0102F041F801E000BF00E088
:100F400000BF80BD80B582B000AF0B463A6002465C
:100F5000FA71BB7140F28C23C2F200035B78BA795C
:100F60009A4207D040F28C23C2F200031B78BA7970
:100F70009A4227D1FB79002B01D0012B23E0B979CC
:100F800046F60C72C0F600020B464FEAC3035B1A2A
:100F90004FEA8303D3181B681846396800F060FED7
:100FA000B97946F60C72C0F600020B464FEAC3034D
:100FB0005B1A4FEA8303D3189B881846396800F000
:100FC000EFFE00E000BF07F10807BD4680BD00BF8F
:100FD00080B500AF40F28C23C2F200031B781846A4
:100FE0004FF014014FF0320203F09CFD40F28C23CD
:100FF000C2F200031B78184603F0A8FB80BD00BFB7
:1010000080B584B000AF40F28C23C2F200035B785D
:101010003B704FF000037B704FF000037B600A4B86
:10102000BB604FF00003FB603B460FCB01F08CF937
:1010300003461A4640F28C23C2F200031A7207F1EB
:101040001007BD4680BD00BF9002002080B483B071
:1010500000AF03463960FB7197F90730002B10DAB7
:101060004FF46D43CEF20003FA7902F00F02A2F1C1
:1010700004013A68D2B24FEA0212D2B25B181A7671
:101080000DE04FF46143CEF2000397F907103A6880
:10109000D2B24FEA0212D2B25B1883F8002307F1F2
:1010A0000C07BD4680BC704780B582B000AF786049
:1010B0007A686FF07F439A4202D94FF001031FE034
:1010C0004EF21003CEF200037A6822F07F4202F162
:1010D000FF325A604FF0FF304FF00F01FFF7B6FFBD
:1010E0004EF21003CEF200034FF000029A604EF26F
:1010F0001003CEF200034FF007021A604FF0000316
:10110000184607F10807BD4680BD00BF80B582B014
:1011100000AF4FF00003FB714FF00003BB7100F014
:10112000EFFC01F0F7FE40F2DC63C2F200031A6844
:1011300044F6D353C1F26203A3FB02134FEA9313A5
:101140001846FFF7B1FF4FF00003FB714FF00000AE
:10115000FFF784F84FF003004FF47A7101F02EFF8F
:1011600002F00EF802F0B6FF4FF0040001F07CFF31
:101170000346032B07D14FF004004FF0320101F07A
:101180001DFFFFF79FFBFFF7BFFB4FF0010001F0D2
:101190006BFF0346032B07D1FFF74CF94FF001001B
:1011A0004FF00A0101F00AFF4FF00000FFF77CF951
:1011B0000346012B18D1BB79002B18D1FB79002BEA
:1011C00007D14FF00100FFF749F84FF00103FB7121
:1011D00006E04FF00000FFF741F84FF00003FB710D
:1011E0004FF00103BB7102E04FF00003BB71FEF74B
:1011F000CBFFFFF775FEB3E780B489B000AF78602E
:101200004FF00003BB614FF000037B614FF0000320
:10121000FB614FF002033B614FF00003FB604FF0B6
:101220000203BB604FF46053C4F202039B6803F0F7
:101230000C03BB61BB69042B0AD0082B0FD0002B19
:1012400060D17A684FF41053C0F2F403136060E089
:101250007A6847F64003C0F27D13136059E04FF4FB
:101260006053C4F202035B6803F480034FEA9353B4
:10127000FB604FF46053C4F202035B6803F03F036A
:10128000BB60FB68002B14D047F64003C0F27D130F
:10129000BA68B3FBF2F24FF46053C4F20203596828
:1012A00047F6C0730B404FEA931303FB02F3FB6155
:1012B00013E04FF41053C0F2F403BA68B3FBF2F238
:1012C0004FF46053C4F20203596847F6C0730B40F1
:1012D0004FEA931303FB02F3FB614FF46053C4F234
:1012E00002035B6803F440334FEA134303F1010345
:1012F0004FEA43033B61FA693B69B2FBF3F27B6857
:101300001A6006E07A684FF41053C0F2F4031360D9
:1013100000BF4FF46053C4F202039B6803F0F00374
:10132000BB61BB694FEA1313BB6140F29823C2F261
:101330000003BA699B181B78DBB27B617B681A6873
:101340007B6922FA03F27B685A604FF46053C4F25F
:1013500002039B6803F4E053BB61BB694FEA93232C
:10136000BB6140F29823C2F20003BA699B181B7854
:10137000DBB27B617B685A687B6922FA03F27B6887
:101380009A604FF46053C4F202039B6803F4604315
:10139000BB61BB694FEA5333BB6140F29823C2F291
:1013A0000003BA699B181B78DBB27B617B685A68C3
:1013B0007B6922FA03F27B68DA6007F12407BD46F5
:1013C00080BC704780B483B000AF78600B46FB7080
:1013D000FB78002B0CD04FF46053C4F202034FF49F
:1013E0006052C4F20202116B7A680A431A630DE07C
:1013F0004FF46053C4F202034FF46052C4F202028D
:10140000116B7A686FEA02020A401A6307F10C074F
:10141000BD4680BC704700BF80B483B000AF786029
:101420000B46FB70FB78002B0CD04FF46053C4F2DA
:1014300002034FF46052C4F20202116C7A680A434C
:101440001A640DE04FF46053C4F202034FF460528B
:10145000C4F20202116C7A686FEA02020A401A644E
:1014600007F10C07BD4680BC704700BF80B483B055
:1014700000AF78600B46FB70FB78002B0CD04FF46C
:101480006053C4F202034FF46052C4F20202516C82
:101490007A680A435A640DE04FF46053C4F20203C1
:1014A0004FF46052C4F20202516C7A686FEA020291
:1014B0000A405A6407F10C07BD4680BC704700BF64
:1014C00080B483B000AF78600B46FB70FB78002BD4
:1014D0000CD04FF46053C4F202034FF46052C4F2D4
:1014E0000202116A7A680A431A620DE04FF46053EF
:1014F000C4F202034FF46052C4F20202116A7A6825
:101500006FEA02020A401A6207F10C07BD4680BC6E
:10151000704700BF80B483B000AF78600B46FB70AB
:10152000FB78002B0CD04FF46053C4F202034FF44D
:101530006052C4F20202516A7A680A435A620DE0AC
:101540004FF46053C4F202034FF46052C4F202023B
:10155000516A7A686FEA02020A405A6207F10C0780
:10156000BD4680BC704700BF80B58AB000AF0B4657
:101570003A600246FA71BB7147F2E802C0F6000217
:1015800007F11C031068516803C307F10C034FF007
:1015900000021A6003F104034FF000021A6003F125
:1015A00004034FF000021A6003F104034FF000023D
:1015B0001A6003F104033B68FB60F97947F22402E7
:1015C000C0F600020B464FEAC3035B1A4FEA8303DF
:1015D000D31803F118031A684FF48053C4F20103BF
:1015E0009A4241D0F97947F22402C0F600020B4634
:1015F0004FEAC3035B1A4FEA8303D31803F11803BE
:101600001A684FF48843C4F200039A422CD0F97947
:1016100047F22402C0F600020B464FEAC3035B1AEE
:101620004FEA8303D31803F118031A684FF4904369
:10163000C4F200039A4217D0F97947F22402C0F6A7
:1016400000020B464FEAC3035B1A4FEA8303D31829
:1016500003F118031A684FF4A053C4F201039A422D
:1016600002D04FF0050360E1F97947F22402C0F699
:1016700000020B464FEAC3035B1A4FEA8303D318F9
:1016800003F118031B68184600F000FA03461A46D7
:1016900040F20073C2F200034FF02C0101FB02F292
:1016A0009B181B78012B02D14FF006033DE1FB791B
:1016B000002B6BD0BB79002B68D04FF00C03FB8262
:1016C000F97947F22402C0F600020B464FEAC30341
:1016D0005B1A4FEA8303D31803F118031868B9792A
:1016E00047F22402C0F600020B464FEAC3035B1A1E
:1016F0004FEA8303D31803F118031B68984202D002
:101700004FF0020311E1F97947F22402C0F600021A
:101710000B464FEAC3035B1A4FEA8303D31803F166
:1017200018031B68184600F0B1F903461A4640F248
:101730000073C2F200034FF02C0101FB02F29B1870
:1017400003F12803FA795A70B97947F22402C0F6F6
:1017500000020B464FEAC3035B1A4FEA8303D31818
:1017600003F118031B68184600F090F903461A4667
:1017700040F20073C2F200034FF02C0101FB02F2B1
:101780009B1803F12803BA791A7010E0FB79002B3B
:1017900003D04FF00803FB8209E0BB79002B03D094
:1017A0004FF00403FB8202E04FF00303BDE0F97940
:1017B00047F22402C0F600020B464FEAC3035B1A4D
:1017C0004FEA8303D31803F118031B68184600F08F
:1017D00017F9F97947F22402C0F600020B464FEAE6
:1017E000C3035B1A4FEA8303D31803F118031B6882
:1017F0001A4607F10C0310461946FEF7FDFEF9796B
:1018000047F22402C0F600020B464FEAC3035B1AFC
:101810004FEA8303D31803F118031B681A4607F134
:101820001C0310461946FEF7BDFFBB79002B25D0DF
:10183000B97947F22402C0F600020B464FEAC3030F
:101840005B1A4FEA8303D31803F110031B79012BB2
:1018500014D14FF0470387F824304FF0000387F886
:1018600025304FF0000387F826304FF0010387F84A
:10187000273007F12403184602F07CFEF97947F27D
:101880002402C0F600020B464FEAC3035B1A4FEA7C
:101890008303D31803F118031B6818464FF00101A6
:1018A000FEF7AAFFF97947F22402C0F600020B46C0
:1018B0004FEAC3035B1A4FEA8303D31803F11803FB
:1018C0001B68184600F0E2F803461A4640F200731F
:1018D000C2F200034FF02C0101FB02F29B184FF003
:1018E00001021A70F97947F22402C0F600020B4691
:1018F0004FEAC3035B1A4FEA8303D31803F11803BB
:101900001B68184600F0C2F803461A4640F20073FE
:10191000C2F200034FF02C0101FB02F29B1803F10D
:1019200004033A681A604FF00003184607F12807CD
:10193000BD4680BD80B584B000AF39601346024615
:10194000FA71BB804FF00003FB8149E048F2A063CD
:10195000C0F20103BB6003E0BB6803F1FF33BB606F
:10196000F97947F22402C0F600020B464FEAC3039E
:101970005B1A4FEA8303D31803F118031B68184658
:101980004FF08001FEF77EFF0346012B02D0BB68BB
:10199000002BE1D1BB68002B02D14FF0040324E0FF
:1019A000F97947F22402C0F600020B464FEAC3035E
:1019B0005B1A4FEA8303D31803F118031B681A4616
:1019C000FB893968CB181B78F98901F10101F9818C
:1019D00010461946FEF730FFBB8803F1FF33BB808A
:1019E000BB88002BB2D14FF00003184607F1100757
:1019F000BD4680BD80B400AFBD4680BC704700BF0F
:101A000080B582B000AF78607B684FF49042C4F23A
:101A10000002934227D04FF49042C4F20002934256
:101A200006D84FF48842C4F20002934214D028E052
:101A30004FF48052C4F20102934206D04FF4A052F8
:101A4000C4F20102934215D01BE04FF010004FF09A
:101A50000101FFF70BFD14E04FF400304FF00101DE
:101A6000FFF704FD0DE04FF480204FF00101FFF778
:101A7000FDFC06E04FF020004FF00101FFF7F6FCFF
:101A800000BF07F10807BD4680BD00BF80B483B02A
:101A900000AF78607B684FF49042C4F2000293423A
:101AA0001FD04FF49042C4F20002934206D84FF484
:101AB0008842C4F20002934210D018E04FF48052E2
:101AC000C4F20102934206D04FF4A052C4F20102C4
:101AD000934209D00BE04FF000030AE04FF00103FE
:101AE00007E04FF0020304E04FF0030301E04FF082
:101AF0000503184607F10C07BD4680BC704700BFC0
:101B000090B587B000AF02F07DFC4FF00103FB758C
:101B10009DE0F97D47F2F002C0F600020B464FEA65
:101B2000C3035B1A4FEA8303D3181B683B61F97D3B
:101B300047F2F002C0F600020B464FEAC3035B1AFD
:101B40004FEA8303D3189B887B60F97D47F2F0024C
:101B5000C0F600020B464FEAC3035B1A4FEA830349
:101B6000D3189B793B72F97D47F2F002C0F6000270
:101B70000B464FEAC3035B1A4FEA8303D31803F102
:101B800008035B78BB72F97D47F2F002C0F60002F1
:101B90000B464FEAC3035B1A4FEA8303D31803F1E2
:101BA00008039B78FB72F97D47F2F002C0F6000251
:101BB0000B464FEAC3035B1A4FEA8303D31803F1C2
:101BC00008031B787B72386900F010FA3B7A022B0D
:101BD00033D1F97D47F2F002C0F600020B464FEA1E
:101BE000C3035B1A4FEA8303D3189B88184600F09F
:101BF00027FBF860F97D47F2F002C0F600020B46C1
:101C00004FEAC3035B1A4FEA8303D3181868FB68D3
:101C10009CB2F97D47F2F002C0F600020B464FEA93
:101C2000C3035B1A4FEA8303D31803F10C031B6849
:101C3000DBB221461A4602F091FB07F10403386932
:101C4000194602F0ADFAFB7D03F10103FB75FB7D44
:101C5000062B7FF65EAF07F11C07BD4690BD00BFA7
:101C600080B483B000AF786039607B684FF48052F5
:101C7000C4F20202934265D04FF48052C4F20202D1
:101C800093421FD84FF48062C4F20202934241D0C3
:101C90004FF48062C4F20202934206D84FF0000271
:101CA000C4F2020293422DD074E04FF40062C4F2F9
:101CB0000202934236D04FF44062C4F202029342D1
:101CC00038D067E04FF4C052C4F20202934249D0C8
:101CD0004FF4C052C4F20202934206D84FF4A0520D
:101CE000C4F20202934235D054E04FF4E052C4F201
:101CF000020293423ED04FF40052C4F202029342D9
:101D000040D047E03A6847F2B413C0F600031868C1
:101D100010603FE03A6847F2B813C0F60003186855
:101D2000106037E03A6847F2BC13C0F60003186849
:101D300010602FE03A6847F2C013C0F6000318683D
:101D4000106027E03A6847F2C413C0F60003186831
:101D500010601FE03A6847F2C813C0F60003186825
:101D6000106017E03A6847F2CC13C0F60003186819
:101D700010600FE03A6847F2D013C0F6000318680D
:101D8000106007E03A6847F2D413C0F60003186801
:101D9000106000BF07F10C07BD4680BC704700BF54
:101DA00090B583B000AF03463960FB80FB88802B81
:101DB00000F09780802B11DC082B5ED0082B06DC0E
:101DC000022B40D0042B4BD0012B2FD00AE1202B2B
:101DD0006DD0402B78D0102B5CD003E1B3F5006FB1
:101DE00000F0B580B3F5006F0BDCB3F5007F00F0B9
:101DF0009280B3F5806F00F09B80B3F5807F7DD03B
:101E0000F0E0B3F5005F00F0C080B3F5005F04DCE4
:101E1000B3F5805F00F0AA80E4E0B3F5804F00F0F6
:101E2000C380B3F5004F00F0CE80DBE03C68204675
:101E300004F0B4FC0346E21847F2D813C0F60003DE
:101E40001B881380CEE03C68204604F0A7FC0346C4
:101E5000E21847F2DC13C0F600031B881380C1E0D0
:101E60003C68204604F09AFC0346E21847F2E0136F
:101E7000C0F600031B881380B4E03C68204604F0E1
:101E80008DFC0346E21847F2E413C0F600031B88FA
:101E90001380A7E03C68204604F080FC0346E2186B
:101EA00047F2E813C0F600031B8813809AE03C68F1
:101EB000204604F073FC0346E21847F2EC13C0F628
:101EC00000031B8813808DE03C68204604F066FC0C
:101ED0000346E21847F2F013C0F600031B88138094
:101EE00080E03C68204604F059FC0346E21847F2C3
:101EF000F413C0F600031B88138073E03C6820468F
:101F000004F04CFC0346E21847F2F813C0F6000355
:101F10001B88138066E03C68204604F03FFC0346C3
:101F2000E21847F2FC13C0F600031B88138059E047
:101F30003C68204604F032FC0346E21847F20023D6
:101F4000C0F6000319889B78118093704AE03C68C2
:101F5000204604F023FC0346E21847F20423C0F6AF
:101F6000000319889B78118093703BE03C68204601
:101F700004F014FC0346E21847F20823C0F60003FD
:101F800019889B78118093702CE03C68204604F0FF
:101F900005FC0346E21847F20C23C0F6000319883B
:101FA0009B78118093701DE03C68204604F0F6FB9E
:101FB0000346E21847F21023C0F6000319889B7805
:101FC000118093700EE03C68204604F0E7FB034666
:101FD000E21847F21423C0F6000319889B78118099
:101FE000937000BF07F10C07BD4690BD80B582B06D
:101FF00000AF78607B684FF48052C4F202029342D3
:1020000000F0A0804FF48052C4F2020293421FD825
:102010004FF48062C4F20202934252D04FF48062C5
:10202000C4F20202934206D84FF00002C4F2020248
:10203000934230D000E14FF40062C4F202029342B6
:1020400055D04FF44062C4F20202934265D0F3E0EF
:102050004FF4C052C4F20202934200F09D804FF44C
:10206000C052C4F20202934206D84FF4A052C4F206
:10207000020293427BD0DFE04FF4E052C4F202024E
:10208000934200F09E804FF40052C4F20202934249
:1020900000F0AC80D0E040F2B073C2F200031B78D5
:1020A000002B40F0B8804FF001004FF00101FFF726
:1020B00089F940F2B073C2F200034FF001021A70C6
:1020C000A9E040F2B073C2F200035B78002B40F04D
:1020D000A4804FF002004FF00101FFF773F940F2C6
:1020E000B073C2F200034FF001025A7095E040F263
:1020F000B073C2F200039B78002B40F090804FF049
:1021000004004FF00101FFF75DF940F2B073C2F235
:1021100000034FF001029A7081E040F2B073C2F206
:102120000003DB78002B7CD14FF008004FF0010159
:10213000FFF748F940F2B073C2F200034FF001021A
:10214000DA706EE040F2B073C2F200031B79002B2C
:1021500069D14FF010004FF00101FFF733F940F261
:10216000B073C2F200034FF001021A715BE040F25B
:10217000B073C2F200035B79002B56D14FF0200000
:102180004FF00101FFF71EF940F2B073C2F20003F5
:102190004FF001025A7148E040F2B073C2F20003FE
:1021A0009B79002B43D14FF040004FF00101FFF726
:1021B00009F940F2B073C2F200034FF001029A71C4
:1021C00035E040F2B073C2F20003DB79002B30D16E
:1021D0004FF080004FF00101FFF7F4F840F2B073C8
:1021E000C2F200034FF00102DA7122E040F2B07354
:1021F000C2F200031B7A002B1DD14FF480704FF008
:102200000101FFF7DFF840F2B073C2F200034FF0B4
:1022100001021A720FE000BF0EE000BF0CE000BF29
:102220000AE000BF08E000BF06E000BF04E000BF16
:1022300002E000BF00E000BF07F10807BD4680BD17
:1022400080B485B000AF0346FB80FB88802B50D064
:10225000802B11DC082B3CD0082B06DC022B30D065
:10226000042B32D0012B28D067E0202B39D0402B13
:102270003BD0102B31D060E0B3F5006F49D0B3F5FF
:10228000006F09DCB3F5007F3BD0B3F5806F3CD025
:10229000B3F5807F31D050E0B3F5005F41D0B3F5A6
:1022A000005F03DCB3F5805F37D046E0B3F5804FC5
:1022B0003BD0B3F5004F3CD03FE04FF00003FB6054
:1022C0003BE04FF00103FB6037E04FF00203FB609F
:1022D00033E04FF00303FB602FE04FF00403FB609B
:1022E0002BE04FF00503FB6027E04FF00603FB6097
:1022F00023E04FF00703FB601FE04FF00803FB6093
:102300001BE04FF00903FB6017E04FF00A03FB608E
:1023100013E04FF00B03FB600FE04FF00C03FB608A
:102320000BE04FF00D03FB6007E04FF00E03FB6086
:1023300003E04FF00F03FB6000BFFB68184607F196
:102340001407BD4680BC704790B587B000AF3C46CF
:1023500084E80F004FF000033B614FF00003FB7572
:102360004FF00003BB753B78194647F21822C0F6C0
:1023700000020B464FEAC3035B1A4FEA8303D318EC
:1023800003F118031B68184600F07AFD03461A464D
:1023900040F2BC73C2F200039B5C002B2ED13B7851
:1023A000194647F21822C0F600020B464FEAC30353
:1023B0005B1A4FEA8303D31803F118031B6818460E
:1023C00000F094FB3B78194647F21822C0F6000251
:1023D0000B464FEAC3035B1A4FEA8303D31803F19A
:1023E00018031B68184600F04BFD03461A4640F2DE
:1023F000BC73C2F200034FF0010199543B781946B7
:1024000047F21822C0F600020B464FEAC3035B1ADC
:102410004FEA8303D31803F118031B68184600F032
:102420002FFD03461A4640F63033C2F200039B5C90
:10243000112B40F29A804FF0120349E13B78194684
:1024400047F21822C0F600020B464FEAC3035B1A9C
:102450004FEA8303D31803F118031B68184600F0F2
:102460000FFD03461946F87D40F2D072C2F2000219
:102470000B464FEAC3035B184FEA43031B184FEAAE
:102480000313D3181B78DBB2194647F21822C0F6A3
:1024900000020B464FEAC3035B1A4FEA8303D318CB
:1024A00003F1180318683B78194647F21822C0F662
:1024B00000020B464FEAC3035B1A4FEA8303D318AB
:1024C00003F118031B6898424AD13B78194647F23A
:1024D0001822C0F600020B464FEAC3035B1A4FEA0C
:1024E0008303D31803F118031B68184600F0C8FCD7
:1024F00003461946F87D40F2D072C2F200020B4644
:102500004FEAC3035B184FEA43031B184FEA031358
:10251000D3181B78DBB2194647F21822C0F6000226
:102520000B464FEAC3035B1A4FEA8303D31803F148
:10253000100318683B78194647F21822C0F60002CB
:102540000B464FEAC3035B1A4FEA8303D31803F128
:1025500010031B68984203D14FF00103BB7505E0DF
:10256000FB7D03F10103FB7500E000BF3B781946DA
:1025700047F21822C0F600020B464FEAC3035B1A6B
:102580004FEA8303D31803F118031B68184600F0C1
:1025900077FC03461A4640F63033C2F200039B5CD8
:1025A000FA7D9A4203D2BB7D002B3FF447AFBB7D3F
:1025B000002B40F08C803B78194647F21822C0F679
:1025C00000020B464FEAC3035B1A4FEA8303D3189A
:1025D00003F118031B68184600F052FC03461A4624
:1025E00040F63033C2F200039B5CFB753B78194622
:1025F00047F21822C0F600020B464FEAC3035B1AEB
:102600004FEA8303D31803F118031B68184600F040
:1026100037FC03461A4640F63033C2F200039B5C97
:10262000112B21D83B78194647F21822C0F6000238
:102630000B464FEAC3035B1A4FEA8303D31803F137
:1026400018031B68184600F01BFC03461A4640F6A8
:102650003033C2F200039B5C03F10103D9B240F6B0
:102660003033C2F2000399543B78194647F21822DE
:10267000C0F600020B464FEAC3035B1A4FEA83031E
:10268000D31803F118031B68184600F0F9FB034642
:102690001A46F97D13464FEAC3039B184FEA4303DA
:1026A0005B184FEA031240F2D073C2F20003D31852
:1026B0003B613B691C463B460FCB84E80F003B69FE
:1026C0004FF000025A603B694FF000025A70FB7DE8
:1026D000184607F11C07BD4690BD00BFB0B582B0DB
:1026E00000AF4FF40050C4F2010040F2052100F0A9
:1026F000ABFF0346012B05D14FF40053C4F2010395
:102700007B6021E04FF40450C4F2010040F2052147
:1027100000F09AFF0346012B05D14FF40453C4F295
:1027200001037B6010E04FF40850C4F2010040F256
:10273000052100F089FF0346012B40F04D814FF445
:102740000853C4F201037B607B68184600F042FF27
:102750000346184600F0D6FA3860786800F090FB1F
:1027600003461C46786800F08BFB03461A4640F28D
:10277000C473C2F200039B5CDBB2194640F2D07214
:10278000C2F2000223464FEAC3031B194FEA430378
:102790005B184FEA0313D3183A685A60786800F060
:1027A0006FFB03461C46786800F06AFB03461A4636
:1027B00040F2C473C2F200039B5CDBB2194640F2E4
:1027C000D072C2F2000223464FEAC3031B194FEA3C
:1027D00043035B184FEA0313D31803F108031B6884
:1027E000002B42D0786800F04BFB03461C4678680B
:1027F00000F046FB03461A4640F2C473C2F20003DF
:102800009B5CDBB2194640F2D072C2F20002234652
:102810004FEAC3031B194FEA43035B184FEA031344
:10282000D31803F108031D68786800F029FB0346FC
:102830001C46786800F024FB03461A4640F2C47335
:10284000C2F200039B5CDBB2194640F2D072C2F2C6
:10285000000223464FEAC3031B194FEA43035B18E8
:102860004FEA0313D3185B682B60786800F008FB0D
:1028700003461C46786800F003FB03461A4640F204
:10288000C473C2F200039B5CDBB2194640F2D07203
:10289000C2F2000223464FEAC3031B194FEA430367
:1028A0005B184FEA0313D31803F108035B68002B8E
:1028B00043D0786800F0E4FA03461C46786800F0DC
:1028C000DFFA03461A4640F2C473C2F200039B5C6F
:1028D000DBB2194640F2D072C2F2000223464FEA40
:1028E000C3031B194FEA43035B184FEA0313D318C2
:1028F00003F108035D68786800F0C2FA03461C46DD
:10290000786800F0BDFA03461A4640F2C473C2F27A
:1029100000039B5CDBB2194640F2D072C2F20002A7
:1029200023464FEAC3031B194FEA43035B184FEAE0
:102930000313D3185B681846A847786800F0A0FA1C
:1029400003461A4640F2C073C2F200034FF0000182
:102950009954786800F094FA03461A4640F2CC7312
:10296000C2F200039B5CDBB2002B36D0786800F02B
:1029700087FA03461A4640F2C873C2F200039B5C12
:10298000DBB203F10103D9B240F2C873C2F2000313
:102990009954786800F0D8F90346002B0FDB78686B
:1029A00000F06EFA03461A4640F2C873C2F2000302
:1029B0009B5CDBB27868194600F028F80DE0786877
:1029C00000F05EFA03461A4640F2CC73C2F20003EE
:1029D0004FF00001995400E000BF07F10807BD4621
:1029E000B0BD00BF80B582B000AF7860786800F0FD
:1029F00047FA03461A4640F2C073C2F200039B5CDA
:102A0000DBB2184607F10807BD4680BD90B585B01A
:102A100000AF78600B46FB704FF6FF73FB6000E081
:102A200000BF7868FFF7DEFF0346002B0BD0FB6882
:102A3000002B0CBF00230123DBB2FA6802F1FF3246
:102A4000FA60002BECD1FB68002B4AD07C687868D8
:102A500000F016FA03461946F87840F2D072C2F236
:102A600000020B464FEAC3035B184FEA43031B18EF
:102A70004FEA0313D3181B78DBB2194647F218222A
:102A8000C0F600020B464FEAC3035B1A4FEA83030A
:102A9000D31803F110031B68DBB2204619464FF030
:102AA00001024FF0000300F0A7FC786800F0E8F99D
:102AB00003461A4640F2C073C2F200034FF0010110
:102AC0009954786800F0DCF903461A4640F2C47362
:102AD000C2F20003F97899547B68184600F06AFD49
:102AE00000E000BF07F11407BD4690BD80B58EB071
:102AF00000AF786007F12403184600F047FC07F1A7
:102B00000C03184600F0EEFB4FF000037B624FF021
:102B10000003BB624FF00003FB624FF000033B6316
:102B20004FF00003FB604FF000033B744FF00003D5
:102B30007B744FF000037B614FF00003BB614FF0EB
:102B40000003FB614FF0010387F8203007F12403F5
:102B5000184600F0EDFB786800F060F97A6807F13C
:102B60000C031046194600F061FB7B68184640F2E2
:102B700005214FF0010200F03BFD4FF012033B72C4
:102B80004FF000037B724FF00103BB724FF0010363
:102B9000FB7207F10803184601F0ECFC4FF000034C
:102BA0007B6363E0786800F06BF90346194640F2F6
:102BB000D072C2F200020B464FEAC3035B184FEA21
:102BC0004303796B5B184FEA0313D3184FF00002ED
:102BD0005A70786800F054F90346194640F2D072F2
:102BE000C2F200020B464FEAC3035B184FEA4303ED
:102BF000796B5B184FEA0313D3184FF000025A6049
:102C0000786800F03DF90346194640F2D072C2F2EE
:102C100000020B464FEAC3035B184FEA4303796B8C
:102C20005B184FEA0313D31803F108034FF00002B7
:102C30001A60786800F024F90346194640F2D07211
:102C4000C2F200020B464FEAC3035B184FEA43038C
:102C5000796B5B184FEA0313D31803F108034FF0A5
:102C600000025A607B6B03F101037B637B6B112BCA
:102C700098DD786800F004F903461A4640F63033D0
:102C8000C2F200034FF000019954786800F0F8F8A0
:102C900003461A4640F2C073C2F200034FF000012F
:102CA0009954786800F0ECF803461A4640F2C47371
:102CB000C2F200034FF000019954786800F0E0F888
:102CC00003461A4640F2C873C2F200034FF00001F7
:102CD0009954786800F0D4F803461A4640F2CC7351
:102CE000C2F200034FF0000199547B6818464FF080
:102CF000010100F065FB4FF00003184607F13807AB
:102D0000BD4680BD80B485B000AF78607B68FB6055
:102D1000FB6840F6E44202FB03F3FB60FA6840F212
:102D20000113C0F21003A3FB0213D21A4FEA52029E
:102D30009B184FEAD323FB60FB68184607F1140782
:102D4000BD4680BC704700BF90B585B000AF7860CD
:102D50004FF00003FB7339E0786800F091F8034608
:102D60001C46786800F08CF803461A4640F2C87397
:102D7000C2F200039B5CDBB2194640F2D072C2F291
:102D8000000223464FEAC3031B194FEA43035B18B3
:102D90004FEA0313D3185B78DBB2012B03D14FF05A
:102DA0000103FB7312E0786800F06AF803461A46E4
:102DB00040F2C873C2F200039B5CDBB203F1010373
:102DC000D9B240F2C873C2F200039954786800F097
:102DD00057F803461A4640F2C873C2F200039B5CE0
:102DE000DCB2786800F04CF803461A4640F63033FF
:102DF000C2F200039B5C9C4202D2FB7B002BABD057
:102E0000FB7B002B01D0FB7B01E04FF0FF035BB2AB
:102E1000184607F11407BD4690BD00BF80B582B0CB
:102E200000AF78607A684FF40053C4F201039A420D
:102E300006D14FF480704FF00101FEF717FB1AE046
:102E40007A684FF40453C4F201039A4206D14FF456
:102E500000704FF00101FEF709FB0CE07A684FF4B7
:102E60000853C4F201039A4205D14FF480604FF039
:102E70000101FEF7FBFA07F10807BD4680BD00BF60
:102E800080B483B000AF78607A684FF40053C4F226
:102E900001039A4202D14FF0000315E07A684FF423
:102EA0000453C4F201039A4202D14FF001030BE034
:102EB0007A684FF40853C4F201039A4202D14FF0EA
:102EC000020301E04FF00403184607F10C07BD466A
:102ED00080BC704780B400AF40F63433C2F20003C8
:102EE0001B6803F1010240F63433C2F200031A609A
:102EF00040F63433C2F200031B68B3F1FF3F06D142
:102F000040F63433C2F200034FF000021A60BD46AF
:102F100080BC704780B483B000AF4FF00003FB71FA
:102F200043E0F97940F63832C2F200020B464FEA2C
:102F300043035B184FEA8303D3184FF000021A7063
:102F4000F97940F63832C2F200020B464FEA4303E9
:102F50005B184FEA8303D3184FF003025A70F979D4
:102F600040F63832C2F200020B464FEA43035B18C8
:102F70004FEA8303D31803F104034FF000021A60F1
:102F8000F97940F63832C2F200020B464FEA4303A9
:102F90005B184FEA8303D31803F108034FF00002D4
:102FA0001A60FB7903F10103FB71FB79052BB8D99A
:102FB00007F10C07BD4680BC704700BF80B483B0EA
:102FC00000AF03463960FB71FB79052B47D8F979CF
:102FD00040F63832C2F200020B464FEA43035B1858
:102FE0004FEA8303D3184FF001021A70F97940F6C3
:102FF0003832C2F200020B464FEA43035B184FEA35
:103000008303D3184FF002025A70F97940F6343333
:10301000C2F200031A683B68D01840F63832C2F298
:1030200000020B464FEA43035B184FEA8303D318B1
:1030300003F104031860F97940F63433C2F2000357
:10304000186840F63832C2F200020B464FEA4303DA
:103050005B184FEA8303D31803F10803186007F1E4
:103060000C07BD4680BC704780B483B000AF0346F8
:10307000FB71FB79052B0DD8F97940F63832C2F295
:1030800000020B464FEA43035B184FEA8303D31851
:103090005B7801E04FF00003184607F10C07BD46CE
:1030A00080BC704780B483B000AF0346FB71FB79EE
:1030B000052B2ED8F97940F63832C2F200020B46C1
:1030C0004FEA43035B184FEA8303D3184FF0000223
:1030D0001A70F97940F63832C2F200020B464FEA14
:1030E00043035B184FEA8303D3184FF003025A706F
:1030F000F97940F63832C2F200020B464FEA430338
:103100005B184FEA8303D31803F104034FF0000266
:103110001A6007F10C07BD4680BC704780B400AF51
:1031200040F63433C2F200031B681846BD4680BC2B
:10313000704700BF80B483B000AF0346FB71FB79DA
:10314000052B15D840F63433C2F200031868F9791C
:1031500040F63832C2F200020B464FEA43035B18D6
:103160004FEA8303D31803F108031B68C31A01E075
:103170004FF00003184607F10C07BD4680BC7047AE
:1031800080B483B000AF4FF00003FB7146E0F979E3
:1031900040F63832C2F200020B464FEA43035B1896
:1031A0004FEA8303D3181B78012B33D1F97940F60A
:1031B0003832C2F200020B464FEA43035B184FEA73
:1031C0008303D3185B78032B24D0F97940F6383287
:1031D000C2F200020B464FEA43035B184FEA830337
:1031E000D31803F104031A6840F63433C2F2000323
:1031F0001B689A420ED8F97940F63832C2F20002C2
:103200000B464FEA43035B184FEA8303D3184FF092
:1032100003025A70FB7903F10103FB71FB79052B63
:10322000B5D907F10C07BD4680BC704780B485B0A6
:1032300000AF786039604FF00003FB604FF000038F
:10324000FB727B685B68FB60FB6823F0407323F4D0
:103250008073FB603B681B794FEA03223B681B6865
:103260001343FA681343FB607B68FA685A607B6813
:103270009B68FB60FA684FF2FD73CCF2FF031340CA
:10328000FB603B681A693B68DB681A433B689B68D4
:103290001A433B685B794FEA43031343FA681343CD
:1032A000FB607B68FA689A607B68DB6AFB60FB689E
:1032B00023F47003FB603B681B7D03F1FF33DAB23C
:1032C000FB7A1343FB72FB7A4FEA0353FA6813430A
:1032D000FB607B68FA68DA6207F11407BD4680BCC0
:1032E000704700BF80B483B000AF78607B684FF058
:1032F00000021A607B684FF000021A717B684FF081
:1033000000025A717B684FF000029A607B684FF0B0
:103310000002DA607B684FF000021A617B684FF0B0
:1033200001021A7507F10C07BD4680BC704700BF4B
:1033300080B485B000AF78604FF00003FB604FF4BD
:103340000C53C4F201035B68FB60FA6843F2E003CC
:10335000CFF6FC731340FB607B681A687B685B6880
:103360001A437B689B681A437B68DB681343FA68DF
:103370001343FB604FF40C53C4F20103FA685A6024
:1033800007F11407BD4680BC704700BF80B483B00E
:1033900000AF78607B684FF000021A607B684FF0E6
:1033A00000025A607B684FF000029A607B684FF021
:1033B0000002DA6007F10C07BD4680BC704700BF11
:1033C00080B483B000AF78600B46FB70FB78002BB5
:1033D00006D07B689B6843F001027B689A6005E039
:1033E0007B689B6823F001027B689A6007F10C07F9
:1033F000BD4680BC704700BF80B485B000AF786028
:10340000F970BA707B704FF00003FB604FF000035F
:10341000BB60FB78092B27D97B68DB68FB60FA78F7
:1034200013464FEA43039B18A3F11E034FF0070214
:1034300002FA03F3BB60BB686FEA0303FA68134048
:10344000FB607978FA7813464FEA43039B18A3F19F
:103450001E0301FA03F3BB60FA68BB681343FB6009
:103460007B68FA68DA6022E07B681B69FB60FA78A7
:1034700013464FEA43039B184FF0070202FA03F387
:10348000BB60BB686FEA0303FA681340FB6079789E
:10349000FA7813464FEA43039B1801FA03F3BB6023
:1034A000FA68BB681343FB607B68FA681A61BB78F3
:1034B000062B27D87B685B6BFB60BB7803F1FF3280
:1034C00013464FEA83039B184FF01F0202FA03F3DF
:1034D000BB60BB686FEA0303FA681340FB60F978CE
:1034E000BB7803F1FF3213464FEA83039B1801FABE
:1034F00003F3BB60FA68BB681343FB607B68FA6840
:103500005A6351E0BB780C2B27D87B681B6BFB60A0
:10351000BA7813464FEA83039B18A3F123034FF0B5
:103520001F0202FA03F3BB60BB686FEA0303FA6889
:103530001340FB60F978BA7813464FEA83039B186F
:10354000A3F1230301FA03F3BB60FA68BB681343DA
:10355000FB607B68FA681A6326E07B68DB6AFB60C5
:10356000BA7813464FEA83039B18A3F141034FF047
:103570001F0202FA03F3BB60BB686FEA0303FA6839
:103580001340FB60F978BA7813464FEA83039B181F
:10359000A3F1410301FA03F3BB60FA68BB6813436C
:1035A000FB607B68FA68DA6207F11407BD4680BCED
:1035B000704700BF80B483B000AF78607B689B68C1
:1035C00043F080427B689A6007F10C07BD4680BCDF
:1035D000704700BF80B483B000AF78607B68DB6C5D
:1035E0009BB2184607F10C07BD4680BC704700BF70
:1035F00080B485B000AF786013460A467A807B704D
:103600004FF00003FB607B88DBB2FB60FB684FF090
:10361000010202FA03F3FB607B78002B06D07B6883
:103620005A68FB681A437B685A6007E07B685A68EF
:10363000FB686FEA03031A407B685A6007F11407BE
:10364000BD4680BC704700BF80B487B000AF7860D3
:103650000B467B804FF00003FB754FF000033B618E
:103660004FF00003FB607B884FEA13239BB23B6162
:103670007B685A687B88DBB24FF0010101FA03F3E3
:103680001340FB607B681A683B691340002B06D02F
:10369000FB68002B03D04FF00103FB7502E04FF0F5
:1036A0000003FB75FB7D184607F11C07BD4680BC77
:1036B000704700BF80B582B000AF0346FB7107F1D1
:1036C00007034FF0010019464FF00102FEF732F9EF
:1036D00007F10807BD4680BD80B483B000AF7860B5
:1036E0000B46FB707B68FA781A704FF0010318469E
:1036F00007F10C07BD4680BC704700BF80B485B0A1
:1037000000AF786039604FF00003FB600FE03B686A
:103710001A787B681A707B6803F101037B603B6851
:1037200003F101033B60FB6803F10103FB603B68AD
:103730001B78002BEBD1FB68184607F11407BD4638
:1037400080BC704780B586B000AFF8607A603B609F
:103750000B46FB724FF000037B617B6803F1FF3384
:103760007B603B68092B25D93A684CF6CD43CCF6F3
:10377000CC43A3FB02134FEAD303FA7AF86811464D
:103780007A68FFF7DFFF78617B69FA68D318FB601E
:1037900013E0FB7AF8681946FFF79EFFFB6803F118
:1037A0000103FB607B6903F101037B617B6803F12B
:1037B000FF337B607B68002BEBDC39684CF6CD4334
:1037C000CCF6CC43A3FB01234FEAD30213464FEAC6
:1037D00083039B184FEA4303CA1AD3B203F13003A1
:1037E000DBB2F8681946FFF777FF03467A69D3180A
:1037F0007B617B69184607F11807BD4680BD00BF95
:1038000080B586B000AFF8607A603B600B46FB7213
:103810004FF000037B613B68002B04DA3B68C3F187
:1038200000033B6101E03B683B617B6803F1FF33D0
:103830007B603B69092B2AD93B68002B12DA3A6975
:103840004CF6CD43CCF6CC43A3FB02134FEAD30393
:10385000C3F10003FA7AF86811467A68FFF7D0FFDF
:1038600078610FE03A694CF6CD43CCF6CC43A3FB2C
:1038700002134FEAD303FA7AF86811467A68FFF721
:10388000BFFF78617B69FA68D318FB602BE03B6867
:10389000002B15DA7B6803F1FF337B6010E0FB7AC5
:1038A000F8681946FFF718FFFB6803F10103FB6096
:1038B0007B6903F101037B617B6803F1FF337B606C
:1038C0007B68002BEBDC3B68002B0CDAF8684FF0D0
:1038D0002D01FFF701FF03467A69D3187B61FB686E
:1038E00003F10103FB6039694CF6CD43CCF6CC43C0
:1038F000A3FB01234FEAD30213464FEA83039B182D
:103900004FEA4303CA1AD3B203F13003DBB2F868BB
:103910001946FFF7E1FE03467A69D3187B617B699C
:10392000184607F11807BD4680BD00BF80B588B0B6
:1039300002AFF8607A600A46FA72BB724FF0000379
:103940007B617B6803F1FF337B603B6A4FEA1313B3
:10395000002B24D03B6A4FEA1311FA7ABB7A00910C
:10396000F86811467A68FFF7E1FF03467A69D318D1
:103970007B617B69FA68D318FB6013E0FB7AF86817
:103980001946FFF7A9FEFB6803F10103FB607B69A1
:1039900003F101037B617B6803F1FF337B607B688C
:1039A000002BEBDC3B6A03F00F03092B0CD83B6ABE
:1039B000DBB203F00F03DBB203F13003DBB2F868D4
:1039C0001946FFF789FE1BE0BB7A002B0CD03B6A3F
:1039D000DBB203F00F03DBB203F13703DBB2F868AD
:1039E0001946FFF779FE0BE03B6ADBB203F00F03E9
:1039F000DBB203F15703DBB2F8681946FFF76CFE40
:103A00007B6903F101037B617B69184607F11807A5
:103A1000BD4680BD80B58AB002AFF860B9607A60FB
:103A20003B604FF00003BB614FF000037B61FB681C
:103A3000002B00F01C81FB684FF000021A7016E1A9
:103A40007B681B78252B10D07B681A78FB681A706E
:103A5000FB6803F10103FB607B6803F101037B60FA
:103A60007B6903F101037B6102E17B6803F10103E0
:103A70001B78252B10D1FB684FF025021A70FB68CC
:103A800003F10103FB607B6803F102037B607B6948
:103A900003F101037B61EBE04FF02003FB774FF074
:103AA0000003BB777B6803F101037B607B681B78B5
:103AB000302B1BD14FF03003FB777B6803F1010300
:103AC0007B6013E0BB7F1A464FEA8202D3184FEAAD
:103AD0004303DAB27B681B78D318DBB2A3F130035F
:103AE000BB777B6803F101037B6000E000BF7B686C
:103AF0001B782F2B03D97B681B78392BE2D9BA7F2F
:103B00007B69D3181A46BB689A4205D9BB68DAB2FA
:103B10007B69DBB2D31ABB777B681B78A3F15803B0
:103B2000202B00F2948001A252F823F0013C0008FF
:103B30004F3C00084F3C00084F3C00084F3C000839
:103B40004F3C00084F3C00084F3C00084F3C000829
:103B50004F3C00084F3C0008373C0008B13B0008D0
:103B60004F3C00084F3C00084F3C00084F3C000809
:103B7000B13B00084F3C00084F3C00084F3C000898
:103B80004F3C00084F3C00084F3C00084F3C0008E9
:103B90004F3C00084F3C0008213C00084F3C000807
:103BA000C93B00084F3C00084F3C0008E13B0008BF
:103BB000BA7F3B6803F1040139601B68F97FF8683C
:103BC000FFF71EFEB86145E0BA7F3B6803F10401D0
:103BD00039601B68F97FF868FFF7B4FDB86139E018
:103BE000BA7F3B6803F1040139601968FB7F0091DB
:103BF000F86819464FF00003FFF798FEB86129E016
:103C0000BA7F3B6803F1040139601968FB7F0091BA
:103C1000F86819464FF00103FFF788FEB86119E014
:103C20003B6803F104023A601B68F8681946FFF725
:103C300065FDB8610EE03B6803F104023A601B6861
:103C4000DBB2F8681946FFF747FDB86102E04FF0B4
:103C5000FF332CE07B6803F101037B60BB69FA68EA
:103C6000D318FB607A69BB69D3187B6100E000BFA1
:103C70007B681B78002B04D07A69BB689A42FFF4FA
:103C8000DFAE7A69BB689A4204D2FB684FF000024B
:103C90001A700BE0FB6803F1FF33FB60FB684FF029
:103CA00000021A707B6903F1FF337B617B69184660
:103CB00007F12007BD4680BD0CB480B584B000AFCD
:103CC0007860396007F11C03BB6078683968BA69AD
:103CD000BB68FFF79FFEF860FB68184607F1100706
:103CE000BD46BDE8804002B0704700BF80B584B0DB
:103CF00000AFF860B9607A60F8684FF06401BA68A4
:103D00007B68FFF787FE0346184607F11007BD469C
:103D100080BD00BFB0B5A6B000AFF860B9607A60F2
:103D200047F2A033C0F6000307F110041D460FCD83
:103D30000FC40FCD0FC42B68236007F1340318465E
:103D4000B9687A68FFF7D2FF0346632B0CDD40F2B7
:103D5000D063C2F200031B68DB6807F11002104653
:103D6000194600F077F8FEE707F134031846F968C2
:103D700000F070F80346184607F19807BD46B0BD3D
:103D800080B582B000AF7860396040F2D063C2F293
:103D900000031B689B68184679683A68FFF7BAFF0A
:103DA0000346184607F10807BD4680BD0FB480B52D
:103DB00082B000AF07F114033B6038693968FFF740
:103DC000DFFF78607B68184607F10807BD46BDE84D
:103DD000804004B0704700BF0EB480B585B000AF1E
:103DE000786007F12003BB607868F969BA68FFF76B
:103DF0007DFFF860FB68184607F11407BD46BDE873
:103E0000804003B0704700BF80B582B000AF7860DB
:103E1000396040F2D063C2F200031B689A683B68C5
:103E20009A4208D040F2D063C2F200031B68DA68FD
:103E30003B689A4206D17B68DBB21846FFF73AFC32
:103E40007B6801E04FF0FF33184607F10807BD46D5
:103E500080BD00BF80B584B000AF786039604FF09E
:103E60000003FB6014E07B681B7818463968FFF795
:103E7000CBFF0346B3F1FF3F02D14FF0FF330CE01D
:103E8000FB6803F10103FB607B6803F101037B60C6
:103E90007B681B78002BE6D1FB68184607F11007FA
:103EA000BD4680BD80B588B000AF0346B9607A607A
:103EB000FB7307F11403184601F0CCFFF97B47F2BE
:103EC000C432C0F600020B464FEAC3035B1A4FEA46
:103ED0008303D31803F118031B68184600F026F873
:103EE0007B689BB2BB82BB68BB614FF00003FB8267
:103EF0004FF00003BB83F97B47F2C432C0F60002E7
:103F00000B464FEAC3035B1A4FEA8303D31803F14E
:103F100018031B681A4607F114031046194601F0EE
:103F20001FFF07F12007BD4680BD00BF80B582B0EE
:103F300000AF78607B684FF4C052C4F20002934235
:103F400000F0AE804FF4C052C4F20002934228D871
:103F50004FF40062C4F20002934269D04FF4006251
:103F6000C4F20002934209D8B3F1804F52D04FF40B
:103F70008062C4F20002934253D0A6E04FF4805214
:103F8000C4F20002934261D04FF4A052C4F2000286
:103F9000934262D04FF44062C4F2000293424ED08A
:103FA00093E04FF48062C4F2010293425CD04FF47C
:103FB0008062C4F20102934212D84FF40052C4F25C
:103FC000000293427AD04FF00002C4F20102934201
:103FD00019D04FF4E052C4F20002934267D074E06B
:103FE0004FF48842C4F2010293424BD04FF4904206
:103FF000C4F2010293424CD04FF48042C4F2010259
:10400000934238D061E04FF001004FF00101FDF71D
:1040100003FA5AE04FF001004FF00101FDF7FCF9FF
:1040200053E04FF002004FF00101FDF7F5F94CE0CD
:104030004FF004004FF00101FDF7EEF945E04FF0BD
:1040400008004FF00101FDF7E7F93EE04FF01000E6
:104050004FF00101FDF7E0F937E04FF020004FF09D
:104060000101FDF7D9F930E04FF002004FF00101F6
:10407000FDF7D2F929E04FF480304FF00101FDF750
:10408000CBF922E04FF400304FF00101FDF7C4F905
:104090001BE04FF480204FF00101FDF7BDF914E063
:1040A0004FF040004FF00101FDF7B6F90DE04FF081
:1040B00080004FF00101FDF7AFF906E04FF480708A
:1040C0004FF00101FDF7A8F900BF07F10807BD4651
:1040D00080BD00BF80B582B000AF4FF00003FB8011
:1040E0004FF4A050C4F201004FF02001FCF7CAFBCE
:1040F0000346012B07D14FF4A050C4F20100FCF796
:10410000AFFB0346FB8040F68033C2F200031B780E
:10411000002B09D100F00EF803461A4640F6803312
:10412000C2F200031A7000E000BF07F10807BD46A5
:1041300080BD00BF80B500AF40F2D863C2F200037B
:104140009A7840F2D863C2F20003DB781046194631
:104150004FF4E132FDF708FA47F2A050C0F6000034
:10416000FFF724FE47F2A850C0F60000FFF71EFE3E
:1041700047F2AC50C0F60000FFF718FE47F2B4500B
:10418000C0F600004FF00701FFF710FE47F2BC50E9
:10419000C0F60000FFF70AFE4FF00103184680BD8D
:1041A00080B487B000AF786039604FF000037B6166
:1041B0004FF000033B614FF00003FB604FF0000342
:1041C0007B6186E07B694FF0010202FA03F33B61F9
:1041D0003B681A683B691340FB60FA683B699A4286
:1041E00073D17B681A687B694FEA43034FF0030180
:1041F00001FA03F36FEA03031A407B681A607B68D5
:104200001A683B681B7919467B694FEA430301FA38
:1042100003F31A437B681A603B681B79012B03D0B8
:104220003B681B79022B34D17B689A687B694FEA23
:1042300043034FF0030101FA03F36FEA03031A404B
:104240007B689A607B689A683B685B7919467B69F2
:104250004FEA430301FA03F31A437B689A607B68D1
:104260005A687B699BB24FF0010101FA03F36FEAD0
:1042700003031A407B685A607B685A683B689B79E5
:1042800019467B699BB201FA03F39BB21A437B6820
:104290005A607B68DA687B699BB24FEA43034FF050
:1042A000030101FA03F36FEA03031A407B68DA6043
:1042B0007B68DA683B68DB7919467B694FEA430320
:1042C00001FA03F31A437B68DA607B6903F10103A7
:1042D0007B617B690F2B7FF675AF07F11C07BD462D
:1042E00080BC704780B485B000AF78600B467B809F
:1042F0004FF00003FB737B681A697B881340002B27
:1043000003D04FF00103FB7302E04FF00003FB7397
:10431000FB7B184607F11407BD4680BC704700BF01
:1043200080B485B000AF78600B467B804FF000030F
:10433000FB737B685A697B881340002B03D04FF0D6
:104340000103FB7302E04FF00003FB73FB7B184695
:1043500007F11407BD4680BC704700BF80B485B02C
:1043600000AF786013460A467A807B704FF00003F6
:10437000FB604FF00003BB607A787B8803F0070393
:104380004FEA830302FA03F3FB607B884FEAD3030F
:104390009BB21A467B884FEAD3039BB219467B68CF
:1043A00001F1080153F821107B8803F007034FEA5D
:1043B00083034FF00F0000FA03F36FEA0303194081
:1043C0007B6802F1080243F822107B884FEAD3038E
:1043D0009BB21A467B6802F1080253F82220FB6860
:1043E0001343BB607B884FEAD3039BB21A467B68BA
:1043F00002F10802B96843F8221007F11407BD461C
:1044000080BC704780B487B000AF4FF000033B61C1
:104410004FF000037B614FF00203FB604FF000039D
:10442000BB604FF002037B604FF46053C4F20203A1
:104430009B6803F00C033B613B69042B0DD0082BF8
:1044400015D0002B69D140F2DC63C2F200034FF4B7
:104450001052C0F2F4021A6069E040F2DC63C2F26A
:10446000000347F64002C0F27D121A605FE04FF48D
:104470006053C4F202035B6803F480034FEA935372
:10448000BB604FF46053C4F202035B6803F03F0368
:104490007B60BB68002B14D047F64003C0F27D134D
:1044A0007A68B3FBF2F24FF46053C4F20203596826
:1044B00047F6C0730B404FEA931303FB02F37B6193
:1044C00013E04FF41053C0F2F4037A68B3FBF2F236
:1044D0004FF46053C4F20203596847F6C0730B40AF
:1044E0004FEA931303FB02F37B614FF46053C4F272
:1044F00002035B6803F440334FEA134303F1010303
:104500004FEA4303FB607A69FB68B2FBF3F240F2C7
:10451000DC63C2F200031A6009E040F2DC63C2F21D
:1045200000034FF41052C0F2F4021A6000BF4FF4BF
:104530006053C4F202039B6803F0F0034FEA1312C6
:1045400040F2E063C2F200039B5CDBB23B6140F2ED
:10455000DC63C2F200031A683B6922FA03F240F2FC
:10456000DC63C2F200031A6007F11C07BD4680BC81
:10457000704700BF80B485B000AF78604FF0000393
:10458000FB734FF00003BB734FF00F037B737B682B
:10459000DB78002B45D04FF46D43CEF20003DB688F
:1045A0006FEA030303F4E0634FEA1323FB73FB7B1F
:1045B000C3F10403BB737A7BFB7B42FA03F37B7387
:1045C0007B685B781A46BB7B02FA03F3FB737B685C
:1045D0009A787B7B1340DAB2FB7B1343FB73FB7B44
:1045E0004FEA0313FB734FF46143CEF200037A6882
:1045F00012789B18FA7B83F800234FF46143CEF2C4
:1046000000037A6812784FEA5212D2B279680978B8
:1046100001F01F014FF0010000FA01F143F82210F0
:1046200014E04FF46143CEF200037A6812784FEA47
:104630005212D2B27968097801F01F014FF00100DF
:1046400000FA01F102F1200243F8221007F11407E9
:10465000BD4680BC704700BF80B586B000AF034642
:10466000FB71F97947F2D852C0F600020B464FEAC7
:10467000C3035B1A4FEA8303D3181B683B61F979C4
:1046800047F2D852C0F600020B464FEAC3035B1A4A
:104690004FEA8303D3189B88FB81F97947F2D852FC
:1046A000C0F600020B464FEAC3035B1A4FEA8303CE
:1046B000D3189B79002B02D0012B08D00FE0FB8987
:1046C00038691946FFF70EFE0346FB7508E0FB89C3
:1046D00038691946FFF724FE0346FB7500E000BF6A
:1046E000F97947F2D852C0F600020B464FEAC303ED
:1046F0005B1A4FEA8303D318DB79002B10D0012B10
:104700001DD1FB7D002B05D0012B07D14FF00003FD
:10471000BB7504E04FF00103BB7500E000BF0EE085
:10472000FB7D002B05D0012B07D14FF00103BB759A
:1047300004E04FF00003BB7500E000BF00BFBB7D8D
:10474000184607F11807BD4680BD00BF90B585B07B
:1047500000AF0346FB71F97947F20C72C0F6000214
:104760000B464FEAC3035B1A4FEA8303D31803F1E6
:1047700018031B68184600F0C3FE03461C46F9796F
:1047800047F20C72C0F600020B464FEAC3035B1AF5
:104790004FEA8303D31803F110031B68184600F097
:1047A0004FFF034640F68432C2F200024FEA840112
:1047B000CB184FEAC303D3189B79002B02D14FF0DB
:1047C0000003C0E0F97947F20C72C0F600020B4614
:1047D0004FEAC3035B1A4FEA8303D31803F11803AC
:1047E0001B68184600F08CFE03461C46F97947F218
:1047F0000C72C0F600020B464FEAC3035B1A4FEA85
:104800008303D31803F110031B68184600F018FF48
:10481000034640F68432C2F200024FEA8401CB180C
:104820004FEAC303D3185B79FB73FB7B012B02D1E7
:104830004FF0010387E0F97947F20C72C0F60002ED
:104840000B464FEAC3035B1A4FEA8303D31803F105
:1048500018031B68184600F053FE03461C46F979FE
:1048600047F20C72C0F600020B464FEAC3035B1A14
:104870004FEA8303D31803F110031B68184600F0B6
:10488000DFFE034640F68432C2F200024FEA8401A2
:10489000CB184FEAC303D3184FF001025A71F979CC
:1048A00047F20C72C0F600020B464FEAC3035B1AD4
:1048B0004FEA8303D31803F118031B681846F979EC
:1048C00047F20C72C0F600020B464FEAC3035B1AB4
:1048D0004FEA8303D31803F110031B689BB21946F8
:1048E0004FF0010201F0A8FDF97947F20C72C0F611
:1048F00000020B464FEAC3035B1A4FEA8303D31847
:1049000003F118031B6818464FF0010101F0C2FDC6
:10491000F97947F20C72C0F600020B464FEAC30366
:104920005B1A4FEA8303D31803F110031B79012BA1
:1049300007D14FF080404FF010014FF0010201F01D
:10494000D1FD4FF00103184607F11407BD4690BD95
:1049500090B585B000AF0346FB71F97947F20C7250
:10496000C0F600020B464FEAC3035B1A4FEA83030B
:10497000D31803F118031B68184600F0C1FD034665
:104980001C46F97947F20C72C0F600020B464FEA5A
:10499000C3035B1A4FEA8303D31803F110031B68A8
:1049A000184600F04DFE034640F68432C2F2000283
:1049B0004FEA8401CB184FEAC303D3189B79002B2D
:1049C00002D14FF00003A7E0F97947F20C72C0F66C
:1049D00000020B464FEAC3035B1A4FEA8303D31866
:1049E00003F118031B68184600F08AFD03461C46B5
:1049F000F97947F20C72C0F600020B464FEAC30386
:104A00005B1A4FEA8303D31803F110031B6818469F
:104A100000F016FE034640F68432C2F200024FEA6E
:104A20008401CB184FEAC303D3185B79FB73FB7B7C
:104A3000002B02D14FF000036EE0F97947F20C72BF
:104A4000C0F600020B464FEAC3035B1A4FEA83032A
:104A5000D31803F118031B68184600F051FD0346F4
:104A60001C46F97947F20C72C0F600020B464FEA79
:104A7000C3035B1A4FEA8303D31803F110031B68C7
:104A8000184600F0DDFD034640F68432C2F2000213
:104A90004FEA8401CB184FEAC303D3184FF000024A
:104AA0005A71F97947F20C72C0F600020B464FEAD0
:104AB000C3035B1A4FEA8303D31803F118031B687F
:104AC0001846F97947F20C72C0F600020B464FEA1D
:104AD000C3035B1A4FEA8303D31803F110031B6867
:104AE0009BB219464FF0000201F0A6FCF97947F29B
:104AF0000C72C0F600020B464FEAC3035B1A4FEA82
:104B00008303D31803F118031B6818464FF0000104
:104B100001F0C0FC4FF00003184607F11407BD4632
:104B200090BD00BF90B589B000AF0346B9607A6010
:104B3000FB734FF00103FB614FF00103BB614FF0CA
:104B400000037B61FB7B062B02D94FF0010348E396
:104B5000F97B47F20C72C0F600020B464FEAC30322
:104B60005B1A4FEA8303D31803F118031B68B3F1F0
:104B7000804F00F00581F97B47F20C72C0F600020D
:104B80000B464FEAC3035B1A4FEA8303D31803F1C2
:104B900018031A684FF48063C4F200039A4200F0CD
:104BA000EF80F97B47F20C72C0F600020B464FEA29
:104BB000C3035B1A4FEA8303D31803F118031A687F
:104BC0004FF40063C4F200039A4200F0D980F97BED
:104BD00047F20C72C0F600020B464FEAC3035B1AA1
:104BE0004FEA8303D31803F118031A684FF44063A4
:104BF000C4F200039A4200F0C380F97B47F20C72C2
:104C0000C0F600020B464FEAC3035B1A4FEA830368
:104C1000D31803F118031A684FF48053C4F2000349
:104C20009A4200F0AD80F97B47F20C72C0F60002A8
:104C30000B464FEAC3035B1A4FEA8303D31803F111
:104C400018031A684FF4A053C4F200039A4200F00C
:104C50009780F97B47F20C72C0F600020B464FEAD0
:104C6000C3035B1A4FEA8303D31803F118031A68CE
:104C70004FF48063C4F201039A4200F08180F97B13
:104C800047F20C72C0F600020B464FEAC3035B1AF0
:104C90004FEA8303D31803F118031A684FF48043D3
:104CA000C4F201039A426BD0F97B47F20C72C0F652
:104CB00000020B464FEAC3035B1A4FEA8303D31883
:104CC00003F118031A684FF48843C4F201039A42AF
:104CD00056D0F97B47F20C72C0F600020B464FEA41
:104CE000C3035B1A4FEA8303D31803F118031A684E
:104CF0004FF49043C4F201039A4241D0F97B47F24A
:104D00000C72C0F600020B464FEAC3035B1A4FEA6F
:104D10008303D31803F118031A684FF4C053C4F285
:104D200000039A422CD0F97B47F20C72C0F60002C5
:104D30000B464FEAC3035B1A4FEA8303D31803F110
:104D400018031A684FF4E053C4F200039A4217D0D4
:104D5000F97B47F20C72C0F600020B464FEAC30320
:104D60005B1A4FEA8303D31803F118031A684FF450
:104D70000053C4F200039A4202D04FF0030330E222
:104D8000F97B47F20C72C0F600020B464FEAC303F0
:104D90005B1A4FEA8303D31803F118031B68184604
:104DA00000F0AEFB03461C46F97B47F20C72C0F6DE
:104DB00000020B464FEAC3035B1A4FEA8303D31882
:104DC00003F110031B68184600F03AFC034640F656
:104DD0008432C2F200024FEA8401CB184FEAC303C7
:104DE000D3189B79012B02D14FF00203F9E140F275
:104DF000DC63C2F200031A684DF68363C4F21B330E
:104E0000A3FB02134FEAD34303F1FF33BB61BB683B
:104E10004FEA430303F1FF33FB61F97B47F20C7266
:104E2000C0F600020B464FEAC3035B1A4FEA830346
:104E3000D31803F118031B68B3F1804F14D0F97B2A
:104E400047F20C72C0F600020B464FEAC3035B1A2E
:104E50004FEA8303D31803F118031A684FF4406331
:104E6000C4F200039A4203D14FF0FF337B61E0E0CC
:104E7000F97B47F20C72C0F600020B464FEAC303FF
:104E80005B1A4FEA8303D31803F118031A684FF42F
:104E90008063C4F200039A4200F0BF80F97B47F2BE
:104EA0000C72C0F600020B464FEAC3035B1A4FEACE
:104EB0008303D31803F118031A684FF40063C4F294
:104EC00000039A4200F0A980F97B47F20C72C0F609
:104ED00000020B464FEAC3035B1A4FEA8303D31861
:104EE00003F118031A684FF48043C4F201039A4295
:104EF00000F09380F97B47F20C72C0F600020B467B
:104F00004FEAC3035B1A4FEA8303D31803F1180374
:104F10001A684FF48843C4F201039A427DD0F97BAA
:104F200047F20C72C0F600020B464FEAC3035B1A4D
:104F30004FEA8303D31803F118031A684FF4904320
:104F4000C4F201039A4268D0F97B47F20C72C0F6B2
:104F500000020B464FEAC3035B1A4FEA8303D318E0
:104F600003F118031A684FF4C053C4F200039A42C5
:104F700053D0F97B47F20C72C0F600020B464FEAA1
:104F8000C3035B1A4FEA8303D31803F118031A68AB
:104F90004FF4E053C4F200039A423ED0F97B47F24B
:104FA0000C72C0F600020B464FEAC3035B1A4FEACD
:104FB0008303D31803F118031A684FF40053C4F2A3
:104FC00000039A4229D0F97B47F20C72C0F6000226
:104FD0000B464FEAC3035B1A4FEA8303D31803F16E
:104FE00018031A684FF48053C4F200039A4214D095
:104FF000F97B47F20C72C0F600020B464FEAC3037E
:105000005B1A4FEA8303D31803F118031A684FF4AD
:10501000A053C4F200039A420BD14FF6FF737B6199
:1050200007E0BB694FEA4303BB61FB694FEA5303E7
:10503000FB61FA697B699A42F3D2FB7B1846F969F6
:10504000BA69FEF72FFFFB7B1846F9697A6800F012
:105050002FFBF97B47F20C72C0F600020B464FEAB9
:10506000C3035B1A4FEA8303D31803F110031B79C0
:10507000012B20D1F97B47F20C72C0F600020B46DF
:105080004FEAC3035B1A4FEA8303D31803F11803F3
:105090001868F97B47F20C72C0F600020B464FEA23
:1050A000C3035B1A4FEA8303D31803F110031B6891
:1050B000194600F0E9FBF97B47F20C72C0F60002DA
:1050C0000B464FEAC3035B1A4FEA8303D31803F17D
:1050D00018031B68184600F013FA03461C46F97BB8
:1050E00047F20C72C0F600020B464FEAC3035B1A8C
:1050F0004FEA8303D31803F110031B68184600F02E
:105100009FFA03461A4640F68433C2F200034FEA80
:1051100084018A18F96943F83210F97B47F20C725E
:10512000C0F600020B464FEAC3035B1A4FEA830343
:10513000D31803F118031B68184600F0E1F9034681
:105140001C46F97B47F20C72C0F600020B464FEA90
:10515000C3035B1A4FEA8303D31803F110031B68E0
:10516000184600F06DFA034640F68432C2F200029F
:105170004FEA8401CB184FEAC303D3184FF0010262
:105180009A71F97B47F20C72C0F600020B464FEAA7
:10519000C3035B1A4FEA8303D31803F118031B6898
:1051A00018464FF0010100F073FEF97B47F20C72D4
:1051B000C0F600020B464FEAC3035B1A4FEA8303B3
:1051C000D31803F110035B79012B04D1FB7B184644
:1051D000FFF7BCFA03E0FB7B1846FFF7B9FB4FF083
:1051E0000203184607F12407BD4690BD90B583B071
:1051F00000AF0346FB71F97947F20C72C0F600026A
:105200000B464FEAC3035B1A4FEA8303D31803F13B
:1052100018031B68184600F087FCF97947F20C72F6
:10522000C0F600020B464FEAC3035B1A4FEA830342
:10523000D31803F118031B68184600F061F9034600
:105240001C46F97947F20C72C0F600020B464FEA91
:10525000C3035B1A4FEA8303D31803F110031B68DF
:10526000184600F0EDF903461A4640F68433C2F2C0
:1052700000034FEA84018A184FF0000143F832100E
:10528000F97947F20C72C0F600020B464FEAC303ED
:105290005B1A4FEA8303D31803F118031B681846FF
:1052A00000F02EF903461C46F97947F20C72C0F65D
:1052B00000020B464FEAC3035B1A4FEA8303D3187D
:1052C00003F110031B68184600F0BAF9034640F6D4
:1052D0008432C2F200024FEA8401CB184FEAC303C2
:1052E000D3184FF000025A71F97947F20C72C0F6E8
:1052F00000020B464FEAC3035B1A4FEA8303D3183D
:1053000003F118031B68184600F0FAF803461C4620
:10531000F97947F20C72C0F600020B464FEAC3035C
:105320005B1A4FEA8303D31803F110031B68184676
:1053300000F086F9034640F68432C2F200024FEADA
:105340008401CB184FEAC303D3184FF000029A71BF
:1053500007F10C07BD4690BD90B587B000AF03467E
:10536000B9607A60FB73F97B47F20C72C0F60002F9
:105370000B464FEAC3035B1A4FEA8303D31803F1CA
:1053800018031B68184600F0BBF803461C46F97B5F
:1053900047F20C72C0F600020B464FEAC3035B1AD9
:1053A0004FEA8303D31803F110031B68184600F07B
:1053B00047F9034640F68432C2F200024FEA840104
:1053C000CB184FEAC303D3185B79FB75FB7D002B29
:1053D00008D1BB684FF000021A607B684FF00002F2
:1053E0001A706CE0F97B47F20C72C0F600020B46B3
:1053F0004FEAC3035B1A4FEA8303D31803F1180380
:105400001B68184600F07CF803461C46F97B47F2FF
:105410000C72C0F600020B464FEAC3035B1A4FEA58
:105420008303D31803F110031B68184600F008F932
:1054300003461A4640F68433C2F200034FEA840161
:105440008A1853F83220BB681A60F97B47F20C7255
:10545000C0F600020B464FEAC3035B1A4FEA830310
:10546000D31803F118031B68184600F049F80346E7
:105470001C46F97B47F20C72C0F600020B464FEA5D
:10548000C3035B1A4FEA8303D31803F110031B68AD
:10549000184600F0D5F8034640F68432C2F2000206
:1054A0004FEA8401CB184FEAC303D3181A797B68FB
:1054B0001A70BB681B684FEA5302BB681A6007F199
:1054C0001C07BD4690BD00BF80B500AF4FF0050082
:1054D000FFF73EFA4FF080404FF010014FF000020E
:1054E00001F000F880BD00BF80B400AF00BFBD4632
:1054F00080BC704780B400AF00BFBD4680BC704721
:1055000080B483B000AF78607B684FF4C052C4F2BF
:105510000002934200F082804FF4C052C4F20002B5
:10552000934228D84FF40062C4F2000293425DD047
:105530004FF40062C4F20002934209D8B3F1804FE5
:105540004ED04FF48062C4F2000293424BD06EE022
:105550004FF48052C4F2000293424DD04FF4A05257
:10556000C4F2000293424AD04FF44062C4F20002F7
:1055700093423ED05BE04FF48062C4F2010293425A
:1055800040D04FF48062C4F20102934212D84FF42B
:105590000052C4F20002934246D04FF00002C4F21F
:1055A0000102934219D04FF4E052C4F20002934238
:1055B00037D03CE04FF48842C4F20102934227D036
:1055C0004FF49042C4F20102934224D04FF480423F
:1055D000C4F20102934218D029E04FF0000328E002
:1055E0004FF0010325E04FF0020322E04FF00303E8
:1055F0001FE04FF004031CE04FF0050319E04FF0EB
:10560000060316E04FF0070313E04FF0080310E025
:105610004FF009030DE04FF00A030AE04FF00B03CF
:1056200007E04FF00C0304E04FF00D0301E04FF0F2
:105630000F03184607F10C07BD4680BC704700BF3A
:1056400080B483B000AF78607B680C2B28D801A2AF
:1056500052F823F089560008A1560008A156000808
:10566000A15600088F560008A1560008A156000850
:10567000A156000895560008A1560008A15600083A
:10568000A15600089B5600084FF000030AE04FF0B7
:10569000010307E04FF0020304E04FF0030301E0D1
:1056A0004FF00503184607F10C07BD4680BC704754
:1056B00090B58DB000AF0346B9607A60FB7307F117
:1056C0001003184600F016FE4FF000037B824FF0E7
:1056D0000003BB834FF060033B82F97B47F20C72FF
:1056E000C0F600020B464FEAC3035B1A4FEA83037E
:1056F000D31803F118031B681846FFF701FF034690
:105700001C46F97B47F20C72C0F600020B464FEACA
:10571000C3035B1A4FEA8303D31803F110031B681A
:105720001846FFF78DFF03467A68D1B240F68432FF
:10573000C2F200024FEA8400C3184FEAC303D31831
:105740000A461A717B68632B02D9BB68BB6110E003
:105750007B68BA6802FB03F37B627A6A48F21F53E4
:10576000C5F2EB13A3FB02134FEA53137B627B6A70
:10577000BB61F97B47F20C72C0F600020B464FEAA0
:10578000C3035B1A4FEA8303D31803F110031B68AA
:105790000C2B74D801A252F823F000BFD157000897
:1057A0007F5800087F5800087F580008E757000816
:1057B0007F5800087F5800087F580008FD570008F0
:1057C0007F5800087F5800087F58000813580008C9
:1057D00045F6D163C0F60003FB6246F24933C0F6DA
:1057E0000003BB6220E045F6CD73C0F60003FB6208
:1057F00046F28133C0F60003BB6215E046F2F503C2
:10580000C0F60003FB6246F2C133C0F60003BB6280
:105810000AE046F21523C0F60003FB6246F2F933B4
:10582000C0F60003BB6200BFF97B47F20C72C0F602
:1058300000020B464FEAC3035B1A4FEA8303D318F7
:1058400003F118031B68194607F11002FB6A0846AA
:1058500011469847F97B47F20C72C0F600020B46DE
:105860004FEAC3035B1A4FEA8303D31803F118030B
:105870001B681A46BB6A10464FF00801984707F1AB
:105880003407BD4690BD00BF80B584B000AF7860DE
:1058900039604FF01C033B734FF000037B734FF0F4
:1058A0000003BB734FF00103FB7307F10C031846B1
:1058B000FEF760FE3B680C2B3CD801A252F823F0A7
:1058C000F5580008355900083559000835590008C1
:1058D00005590008355900083559000835590008A0
:1058E0001559000835590008355900083559000880
:1058F000255900087B6818464FF002014FF000025E
:1059000000F0F0FD7B6818464FF004014FF00002F4
:1059100000F0E8FD7B6818464FF008014FF00002E8
:1059200000F0E0FD7B6818464FF010014FF00002D8
:1059300000F0D8FD07F11007BD4680BD90B58DB0D1
:1059400000AF0B463A600246FA71BB7107F11C03C7
:1059500018464FF000014FF00C0200F089FE07F1ED
:105960000C0318464FF000014FF00F0200F080FECC
:10597000FB79002B02D0012B23D0C8E0B97947F284
:105980000C72C0F600020B464FEAC3035B1A4FEAE3
:105990008303D3181B6818463968FCF761F9B97995
:1059A00047F20C72C0F600020B464FEAC3035B1AC3
:1059B0004FEA8303D3189B8818463968FCF7F0F93F
:1059C000A6E0B97907F12C0207F12B03084611462E
:1059D0001A46FFF7C1FCFB6A002B7FD0FA6A40F23F
:1059E000E7339A4232D8FB6A4FF0640202FB03F2BB
:1059F00044F24023C0F20F03B3FBF2F307F10C02B1
:105A000010464FF0030147F62402C0F60002FEF7ED
:105A100053F9386840494FF0090200F0EFFE07F1F2
:105A20000C03386819464FF00F0200F0E7FE3C689F
:105A3000204600F0B3FE0346E21847F62803C0F6FE
:105A40000003186810601B7913712BE0FA6A44F2A6
:105A50004023C0F20F03B3FBF2F307F10C02104630
:105A60004FF0030147F62402C0F60002FEF724F9C6
:105A7000386829494FF0090200F0C0FE07F10C0315
:105A8000386819464FF00F0200F0B8FE3C68204617
:105A900000F084FE0346E21847F63003C0F6000328
:105AA0001868106097F82B3007F11C0210464FF071
:105AB0000C0147F63402C0F60002FEF7FDF807F1CC
:105AC0001C03386819464FF00C0200F097FE386846
:105AD00012494FF0090200F091FE19E038681049B0
